:100000000C942A000C9447000C9447000C94470071
:100010000C9447000C9447000C9447000C94470044
:100020000C9447000C9447000C9447000C94470034
:100030000C9447000C9447000C9447000C94470024
:100040000C9447000C9447000C9447000C94470014
:100050000C94470011241FBECFE5D8E0DEBFCDBF12
:1000600010E0A0E6B0E0E2EDF2E102C005900D92F2
:10007000A239B107D9F710E0A2E9B0E001C01D92A2
:10008000AD39B107E1F70E9449000C9467090C945F
:100090000000EF92FF920F931F93DF93CF93CDB7A2
:1000A000DEB72D970FB6F894DEBF0FBECDBF8DE63D
:1000B00090E00E944C03DE011396E0E6F0E08BE056
:1000C00001900D928150E1F780916B0090916C004E
:1000D0009A8389831092920083E0E82EF12CEC0E33
:1000E000FD1E8E010F5F1F4F11C0E9838DE690E06A
:1000F000642F41700E9430038DE690E0B8010E94A9
:10010000F402809192008F5F809392004091920060
:10011000F701E40FF11DE081EE2339F7FFCF282F1F
:10012000E82FE370F0E0EE0FFF1FE658FF4F01905D
:10013000F081E02D808190E026952695277002C001
:10014000959587952A95E2F781700895382F369511
:10015000369537708370E82FF0E0662391F0EE0F4C
:10016000FF1FEE58FF4F0190F081E02D208181E0CC
:1001700090E002C0880F991F3A95E2F7282B208360
:100180000895EE0FFF1FEE58FF4F0190F081E02D14
:10019000208181E090E002C0880F991F3A95E2F734
:1001A0008095822380830895482F762F582F53708F
:1001B000382F369536953770E52FF0E0662399F0A5
:1001C000EE0FFF1FEE57FF4F0190F081E02D2081D1
:1001D00081E090E0032E02C0880F991F0A94E2F795
:1001E000282B208313C0EE0FFF1FEE57FF4F019007
:1001F000F081E02D208181E090E0032E02C0880F85
:10020000991F0A94E2F78095822380834C7F452BC7
:100210003770330F330F437E432B60E0772309F4AD
:1002200061E0842F0E94A6000895482FE82FE37014
:10023000F0E0EE0FFF1FE658FF4F0190F081E02D38
:10024000E08146954695242F277030E0B9016F5F15
:100250007F4F81E090E00E94090902C0880F991F3A
:100260002A95E2F78150F0E046954695469502C002
:10027000F595E7954A95E2F78E230895CF93DF939E
:10028000982F969596959770382F329536953770AA
:100290008370E82FF0E0C92FD0E06623E9F0EE0F7D
:1002A000FF1FEE58FF4F0190F081E02D2081BE012D
:1002B0006F5F7F4F81E090E00E94090902C0880FC4
:1002C000991FCA95E2F7019702C0880F991F3A95C6
:1002D000E2F7282B20831DC0EE0FFF1FEE58FF4FC3
:1002E0000190F081E02D2081BE016F5F7F4F81E0A2
:1002F00090E00E94090902C0880F991FCA95E2F791
:10030000019702C0880F991F3A95E2F780958223E2
:100310008083DF91CF910895FF920F931F93CF9326
:10032000DF93382FF62E082F0370482F46954695F9
:100330004770182F129516951770E02FF0E0C42F14
:10034000D0E06623F9F0EE0FFF1FEE57FF4F01904C
:10035000F081E02D2081BE016F5F7F4F81E090E052
:100360000E940909042E02C0880F991F0A94E2F71F
:100370000197012E02C0880F991F0A94E2F7282BDB
:1003800020831FC0EE0FFF1FEE57FF4F0190F0813B
:10039000E02D2081BE016F5F7F4F81E090E00E94E1
:1003A0000909042E02C0880F991F0A94E2F70197E9
:1003B000012E02C0880F991F0A94E2F780958223CC
:1003C00080833C7F302B4770440F440F337E342BA7
:1003D0001295110F107E3F71312B60E0FF2009F460
:1003E00061E0832F0E943E01DF91CF911F910F9119
:1003F000FF900895FF920F931F93482F062FE82F29
:10040000E370F0E0EE0FFF1FEE58FF4F0190F08118
:10041000E02DF08046954695242F277030E0B901F5
:100420006F5F7F4F81E090E00E94090902C0880F52
:10043000991F2A95E2F701974695469546959C01A6
:10044000042E02C0220F331F0A94E2F720952F21B9
:1004500010E08023912302C0880F991F4A95E2F78C
:10046000282B20831F910F91FF900895AF92BF9288
:10047000CF92DF92EF92FF920F931F93CF93DF9370
:10048000EC015A016B018B8161E00E94A600C6015C
:10049000B50120E030E04AEF54E40E9485057B017D
:1004A0008C0120E030E040E85FE30E94DF06882313
:1004B0001CF461E070E024C0C801B70120E03FEF08
:1004C0004FE757E40E947F061816B4F4C601B50141
:1004D00020E030E040E251E40E9485050E94AF0335
:1004E00088EC90E005C0FC013197F1F76150704055
:1004F00061157105C1F707C0C801B7010E94AF03BC
:10050000CB010197F1F78B8160E00E94A600C80142
:10051000B70120E030E040E85FE30E94DF06882377
:100520001CF461E070E024C0C801B70120E03FEF97
:100530004FE757E40E947F061816B4F4C601B501D0
:1005400020E030E040E251E40E9485050E94AF03C4
:1005500088EC90E005C0FC013197F1F761507040E4
:1005600061157105C1F707C0C801B7010E94AF034B
:10057000CB010197F1F7DF91CF911F910F91FF9080
:10058000EF90DF90CF90BF90AF9008950F931F939F
:10059000CF93DF93EC01142F022F89810E94A600D4
:1005A0008A81612F0E94A6008C81813069F0602FC2
:1005B00062956F7088810E94FA01CE0140E050E0A0
:1005C00060E07FE30E9436028881602F0E94FA017A
:1005D000CE0140E050E060E070E40E943602DF911E
:1005E000CF911F910F9108950F931F93CF93DF9396
:1005F0008C01EB016115710569F08881882339F45C
:1006000009C02196C80161E040E00E94C60228812D
:100610002223B9F7DF91CF911F910F9108950F9386
:100620001F93CF93DF93EC01062F142F186107C09F
:10063000CE0160E040E0212F0E94C602015000235D
:10064000B9F7DF91CF911F910F910895662311F4AF
:1006500028E001C02CE060E040E00E94C60208955E
:10066000242F603160F4423050F42295220F220F83
:10067000207C260F206860E040E00E94C6020895BA
:1006800060E040E022E00E94C602089560E040E0A1
:1006900021E00E94C6020895CF93DF93EC01988178
:1006A000892F8C7129F49F71988381E08C8304C019
:1006B000937E906198831C82898161E00E94D400BE
:1006C0008A8161E00E94D4008B8161E00E94D400A5
:1006D000888161E00E948C0180E69AEE0197F1F733
:1006E000898160E00E94A6008A8160E00E94A600E5
:1006F0008C81813019F488816CE318C0888162E0B4
:100700000E94FA01CE0140E050E060E07FE30E94E9
:100710003602888162E00E94FA01CE0140E050E09A
:1007200060E07FE30E94360288816CE00E94FA015B
:10073000CE0140E050E060E070E40E943602CE015D
:1007400061E00E942603CE010E944603CE0160E0D4
:1007500040E026E00E94C602DF91CF910895EF921B
:10076000FF920F931F937B018C0120E030E040E06B
:100770005FE40E94AF0688238CF0C801B70120E037
:1007800030E040E05FE40E9427050E940F079B01D4
:10079000AC01205030404040504806C0C801B7016D
:1007A0000E940F079B01AC01B901CA011F910F9173
:1007B000FF90EF900895A0E0B0E0E1EEF3E00C943C
:1007C0003009DC012B01FA019C91923008F439C107
:1007D000EB018881823008F433C1943069F48430AD
:1007E00009F02FC111969C9111978981981709F4EE
:1007F00028C1AAE8B0E025C1843009F421C18230C3
:10080000A9F4923009F01DC19A01AD0188E0EA0116
:100810000990AE01E90109929E018150C1F7E20100
:10082000898111969C918923818308C1923009F4B2
:1008300007C112962D903C901397EB018A819B8102
:100840001496AD90BD90CD90DC901797EC80FD8014
:100850000E811F819101281B390BB90137FF04C09C
:1008600066277727621B730B603271050CF061C03D
:10087000121613066CF537014801062E04C0969433
:100880008794779467940A94D2F721E030E040E0AF
:1008900050E004C0220F331F441F551F6A95D2F742
:1008A00021503040404050402E213F2140235123D1
:1008B000211531054105510521F021E030E040E0EE
:1008C00050E079018A01E628F728082919293CC057
:1008D000232BD1F1260E371E35014601062E04C00A
:1008E00096948794779467940A94D2F721E030E045
:1008F00040E050E004C0220F331F441F551F6A958B
:10090000D2F721503040404050402A213B214C2119
:100910005D21211531054105510521F021E030E02F
:1009200040E050E059016A01A628B728C828D92814
:100930000BC0821593052CF01C01AA24BB24650171
:1009400003C0EE24FF24870111969C91D2011196D9
:100950008C91981709F445C0992339F0A8019701A3
:100960002A193B094C095D0906C0A60195012E19FB
:100970003F09400B510B57FD08C011823382228280
:1009800024833583468357831DC081E0818333826E
:10099000228288279927DC01821B930BA40BB50BBD
:1009A00084839583A683B7830DC0220F331F441F12
:1009B000551F248335834683578382819381019712
:1009C000938382832481358146815781DA01C9016D
:1009D0000197A109B1098F5F9F4FAF4FBF4328F324
:1009E0000BC0918333822282EA0CFB1C0C1D1D1D5F
:1009F000E482F5820683178383E080832481358136
:100A00004681578157FF1AC0C901AA2797FDA095B3
:100A1000BA2F81709070A070B07056954795379539
:100A20002795822B932BA42BB52B84839583A683A8
:100A3000B78382819381019693838283DF0101C012
:100A4000D201CD01CDB7DEB7E2E10C944C09A0E2B2
:100A5000B0E0EDE2F5E00C943C0969837A838B8386
:100A60009C832D833E834F835887E9E0EE2EF12C43
:100A7000EC0EFD1ECE010196B7010E9438088E01D2
:100A80000F5E1F4FCE010596B8010E9438088A8973
:100A900091E089278A8BC701B801AE01475E5F4F9D
:100AA0000E94DB030E946307A096E6E00C945809BD
:100AB000A0E2B0E0EEE5F5E00C943C0969837A83AE
:100AC0008B839C832D833E834F835887F9E0EF2EE1
:100AD000F12CEC0EFD1ECE010196B7010E943808E4
:100AE0008E010F5E1F4FCE010596B8010E94380897
:100AF000C701B801AE01475E5F4F0E94DB030E9451
:100B00006307A096E6E00C945809A0E2B0E0EBE899
:100B1000F5E00C94300969837A838B839C832D8361
:100B20003E834F835887CE010196BE01675F7F4F9A
:100B30000E943808CE010596BE016F5E7F4F0E946D
:100B400038089985923088F089898230C8F09430CD
:100B500019F4823051F404C0843029F4923081F4C5
:100B60008AE890E0C6C0923049F420E09A858A89EC
:100B7000981321E02A87CE010996BBC0823049F440
:100B800020E09A858A89981321E02A8BCE0141962C
:100B9000B0C02D843E844F8458886D887E888F88AD
:100BA000988CEE24FF248701AA24BB24650140E031
:100BB00050E060E070E0E0E0F0E0C1018170907032
:100BC000892BE9F0E60CF71C081D191D9A01AB01F1
:100BD0002A0D3B1D4C1D5D1D80E090E0A0E0B0E0C3
:100BE000E614F7040805190520F481E090E0A0E080
:100BF000B0E0BA01A901480F591F6A1F7B1FAA0C58
:100C0000BB1CCC1CDD1C97FE08C081E090E0A0E07E
:100C1000B0E0A82AB92ACA2ADB2A3196E032F105C7
:100C200049F0660C771C881C991C5694479437949D
:100C30002794C3CFFA85EA892B893C898B859C85CB
:100C4000280F391F2E5F3F4F17C0CA018170907067
:100C5000892B61F016950795F794E79480E090E072
:100C6000A0E0B0E8E82AF92A0A2B1B2B76956795B5
:100C7000579547952F5F3F4F77FDE7CF0CC0440F47
:100C8000551F661F771F17FD4160EE0CFF1C001FEC
:100C9000111F21503040403090E0590790E0690723
:100CA00090E4790760F32B8F3C8FDB01CA018F77CB
:100CB0009070A070B07080349105A105B10561F409
:100CC00047FD0AC0E114F1040105110529F0405C5B
:100CD0005F4F6F4F7F4F40781A8EFE1711F081E003
:100CE0008A8F4D8F5E8F6F8F78A383E0898FCE01BF
:100CF00049960E946307A096E2E10C944C09A8E192
:100D0000B0E0E5E8F6E00C943C0969837A838B83D4
:100D10009C832D833E834F83588789E0E82EF12CF6
:100D2000EC0EFD1ECE010196B7010E9438088E011F
:100D30000F5E1F4FCE010596B8010E9438088985C5
:100D4000823040F08989823028F0C701B8010E94C2
:100D5000B00801C08FEF6896E6E00C945809A8E14E
:100D6000B0E0E5EBF6E00C943C0969837A838B8371
:100D70009C832D833E834F83588789E0E82EF12C96
:100D8000EC0EFD1ECE010196B7010E9438088E01BF
:100D90000F5E1F4FCE010596B8010E943808898565
:100DA000823040F08989823028F0C701B8010E9462
:100DB000B00801C08FEF6896E6E00C945809A8E1EE
:100DC000B0E0E5EEF6E00C943C0969837A838B830E
:100DD0009C832D833E834F83588789E0E82EF12C36
:100DE000EC0EFD1ECE010196B7010E9438088E015F
:100DF0000F5E1F4FCE010596B8010E943808898505
:100E0000823040F08989823028F0C701B8010E9401
:100E1000B00801C081E06896E6E00C945809ACE0A7
:100E2000B0E0E5E1F7E00C94400969837A838B83B5
:100E30009C83CE010196BE016B5F7F4F0E943808F4
:100E40008D81823061F1823050F1843021F48E81C5
:100E5000882351F12EC02F81388537FD20C06E8147
:100E60002F3131051CF06623F9F023C08EE190E0AC
:100E7000821B930B29853A854B855C8504C056956A
:100E80004795379527958A95D2F76623B1F0509507
:100E90004095309521953F4F4F4F5F4F0EC020E05A
:100EA00030E040E050E009C02FEF3FEF4FEF5FE749
:100EB00004C020E030E040E050E8B901CA012C96BF
:100EC000E2E00C945C09DF92EF92FF920F931F9384
:100ED000FC01E480F58006811781D1808081823019
:100EE00048F480E090E0A0E1B0E0E82AF92A0A2B7B
:100EF0001B2BA5C0843009F49FC0823021F4EE245E
:100F0000FF24870105C0E114F1040105110519F45E
:100F1000E0E0F0E096C0628173819FEF623879076C
:100F20000CF05BC022E83FEF261B370B2A3131055E
:100F30002CF020E030E040E050E02AC0B801A701EA
:100F4000022E04C076956795579547950A94D2F777
:100F500081E090E0A0E0B0E004C0880F991FAA1FD4
:100F6000BB1F2A95D2F70197A109B1098E219F21B4
:100F7000A023B1230097A105B10521F081E090E005
:100F8000A0E0B0E09A01AB01282B392B4A2B5B2B58
:100F9000DA01C9018F779070A070B070803491052C
:100FA000A105B10539F427FF09C0205C3F4F4F4F21
:100FB0005F4F04C0215C3F4F4F4F5F4FE0E0F0E0D8
:100FC0002030A0E03A07A0E04A07A0E45A0710F05A
:100FD000E1E0F0E079018A0127C06038710564F52D
:100FE000FB01E158FF4FD801C7018F779070A070C7
:100FF000B07080349105A105B10539F4E7FE0DC04C
:1010000080E490E0A0E0B0E004C08FE390E0A0E0D6
:10101000B0E0E80EF91E0A1F1B1F17FF05C016954A
:101020000795F794E794319687E016950795F7941E
:10103000E7948A95D1F705C0EE24FF248701EFEFEE
:10104000F0E06E2F679566276795902F9F77D7946E
:10105000DD24D7948E2F8695492F462B582F5D2956
:10106000B701CA011F910F91FF90EF90DF90089593
:10107000FC01DB01408151812281622F6F7770E09A
:10108000221F2227221F9381892F880F822B282F2E
:1010900030E0991F9927991F11969C93119721155C
:1010A0003105A9F5411551056105710511F482E07D
:1010B00037C082E89FEF13969C938E9312979A0104
:1010C000AB0167E0220F331F441F551F6A95D1F70C
:1010D00083E08C930DC0220F331F441F551F1296BF
:1010E0008D919C911397019713969C938E931297D1
:1010F000203080E0380780E0480780E4580758F344
:1011000014962D933D934D935C93179708952F3F1D
:10111000310579F4411551056105710519F484E033
:101120008C93089564FF03C081E08C9312C01C92DD
:1011300010C02F57304013963C932E93129783E0A4
:101140008C9387E0440F551F661F771F8A95D1F750
:10115000706414964D935D936D937C9317970895E7
:101160001F93DC01FB019C91923008F447C0808101
:10117000823008F443C0943051F411961C918430AD
:1011800099F58181682F70E0611B71093FC084303F
:1011900021F0923031F48230B9F18181882389F1D4
:1011A0002DC011961C9111978230F1F08181181792
:1011B000D9F412962D913C911397828193818217D5
:1011C000930794F028173907BCF014968D919D91E0
:1011D0000D90BC91A02D248135814681578128171F
:1011E00039074A075B0718F4112341F00AC0821738
:1011F0009307A407B50740F4112319F061E070E0EC
:1012000005C06FEF7FEF02C060E070E0CB011F917F
:10121000089597FB092E07260AD077FD04D00CD03D
:1012200006D000201AF4709561957F4F0895F6F767
:10123000909581959F4F0895AA1BBB1B51E107C054
:10124000AA1FBB1FA617B70710F0A61BB70B881F56
:10125000991F5A95A9F780959095BC01CD010895E5
:101260002F923F924F925F926F927F928F929F92B6
:10127000AF92BF92CF92DF92EF92FF920F931F93A4
:10128000CF93DF93CDB7DEB7CA1BDB0B0FB6F89455
:10129000DEBF0FBECDBF09942A88398848885F8495
:1012A0006E847D848C849B84AA84B984C884DF8006
:1012B000EE80FD800C811B81AA81B981CE0FD11DEA
:1012C0000FB6F894DEBF0FBECDBFED010895F894C0
:0212D000FFCF4E
:1012D2004F6D61722041796D616E006100030206FB
:1012E2000A003B0038003500320039003600330076
:1012F20030003A00370034003100000000000000E6
:021302000000E9
:00000001FF
