:100000000C942A000C9447000C9447000C94470071
:100010000C9447000C9447000C9447000C94470044
:100020000C9447000C9447000C9447000C94470034
:100030000C9447000C948F020C9447000C944700DA
:100040000C9447000C9447000C9447000C94470014
:100050000C94470011241FBECFE5D8E0DEBFCDBF12
:1000600010E0A0E6B0E0ECE6F9E002C005900D92E9
:10007000A438B107D9F711E0A4E8B0E001C01D929F
:10008000A630B107E1F70E9449000C94B4040C9427
:100090000000EF920F9360E875E280E090E041E0AD
:1000A00020E003E0EE240E94060380E690E00E9438
:1000B000760380E197E228EC30E0F9013197F1F71F
:1000C0000197D9F780E197E2F8CF0F931F93E82FBC
:1000D00010E001C01F5F8E2F01E00E94EC03E82FAB
:1000E000822F832B842B852B862B872B8E2B892B82
:1000F00089F7812F1F910F910895282FE82FE37022
:10010000F0E0EE0FFF1FEC58FF4F0190F081E02D63
:10011000808190E026952695277002C09595879559
:100120002A95E2F781700895382F36953695377005
:100130008370E82FF0E0662391F0EE0FFF1FE45983
:10014000FF4F0190F081E02D208181E090E002C01E
:10015000880F991F3A95E2F7282B20830895EE0F18
:10016000FF1FE459FF4F0190F081E02D208181E0D5
:1001700090E002C0880F991F3A95E2F7809582239C
:1001800080830895582F782F7370382F36953695C1
:100190003770E72FF0E0662399F0EE0FFF1FE45869
:1001A000FF4F0190F081E02D208181E090E0032E4F
:1001B00002C0880F991F0A94E2F7282B208313C0EE
:1001C000EE0FFF1FE458FF4F0190F081E02D2081DA
:1001D00081E090E0032E02C0880F991F0A94E2F795
:1001E000809582238083852F8C7F872B3770330FF8
:1001F000330F837E832B642F0E949400089540E088
:10020000662309F441E00E94C2000895E82FE370DC
:10021000F0E0EE0FFF1FE459FF4F0190F081E02D59
:10022000908186958695877021E030E002C0220F8C
:10023000331F8A95E2F7922790830895482FE82F7D
:10024000E370F0E0EE0FFF1FEC58FF4F0190F081DC
:10025000E02DE08146954695242F277030E0B901C6
:100260006F5F7F4F81E090E00E946B0402C0880FB7
:10027000991F2A95E2F78150F0E0469546954695FC
:1002800002C0F595E7954A95E2F78E230895CF933E
:10029000DF93982F969596959770382F32953695CF
:1002A00037708370E82FF0E0C92FD0E06623E9F0C3
:1002B000EE0FFF1FE459FF4F0190F081E02D2081E8
:1002C000BE016F5F7F4F81E090E00E946B0402C02F
:1002D000880F991FCA95E2F7019702C0880F991FEE
:1002E0003A95E2F7282B20831DC0EE0FFF1FE4593B
:1002F000FF4F0190F081E02D2081BE016F5F7F4FA5
:1003000081E090E00E946B0402C0880F991FCA959B
:10031000E2F7019702C0880F991F3A95E2F780959E
:1003200082238083DF91CF910895FF920F931F93D3
:10033000CF93DF93382FF62E082F0370482F469562
:1003400046954770182F129516951770E02FF0E01C
:10035000C42FD0E06623F9F0EE0FFF1FE458FF4FE3
:100360000190F081E02D2081BE016F5F7F4F81E021
:1003700090E00E946B04042E02C0880F991F0A941B
:10038000E2F70197012E02C0880F991F0A94E2F745
:10039000282B20831FC0EE0FFF1FE458FF4F019052
:1003A000F081E02D2081BE016F5F7F4F81E090E002
:1003B0000E946B04042E02C0880F991F0A94E2F772
:1003C0000197012E02C0880F991F0A94E2F78095C9
:1003D000822380833C7F302B4770440F440F337E51
:1003E000342B1295110F107E3F71312B60E0FF20EE
:1003F00009F461E0832F0E944701DF91CF911F91A3
:100400000F91FF900895FF920F931F93482F062F8F
:10041000E82FE370F0E0EE0FFF1FE459FF4F01906B
:10042000F081E02DF08046954695242F277030E02E
:10043000B9016F5F7F4F81E090E00E946B0402C0C2
:10044000880F991F2A95E2F701974695469546959C
:100450009C01042E02C0220F331F0A94E2F720955C
:100460002F2110E08023912302C0880F991F4A9505
:10047000E2F7282B20831F910F91FF900895EF92B0
:10048000FF920F931F93182FE62EB3E0FB2EF82256
:10049000082F069506950770129516951770EF2D83
:1004A000F0E0EE0FFF1FE458FF4F0190F081E02DC8
:1004B0004081202F30E0B9016F5F7F4F81E090E0F5
:1004C0000E946B04002E02C0880F991F0A94E2F765
:1004D00001979C01012E02C0220F331F0A94E2F7FC
:1004E000209524234E2D50E084239523012E02C015
:1004F000880F991F0A94E2F7282B2083000F000F22
:100500001295110F107EF02AE0948F2D812B6E2D05
:100510000E9403021F910F91FF90EF9008951F9288
:100520000F920FB60F9211248F939F93EF93FF9327
:100530008091840087FD14C0E0918500F0E08CB1CB
:10054000EA57FF4F80838091850090E001968F7776
:10055000907080938500809184008F5F80938400E9
:10056000FF91EF919F918F910F900FBE0F901F9071
:1005700018958AB18F738AB9809185002091840083
:1005800090E080589F4F821B910960E870E00E94C4
:100590006B04FC01EA57FF4F8081215020938400B7
:1005A0009AB19F7390689AB90895809184008823C6
:1005B000E1F30E94B9020895CF93DF93EC0180919B
:1005C0008400882321F00E94B902888381E0DF91B2
:1005D000CF9108959B01AC01599860E271EA87E0E0
:1005E00090E00E947E04C901DA010197A109B109D6
:1005F00089B920B52F7720BD892F9A2FAB2FBB2724
:100600008F7020B5207F282B20BD0895EF92FF9298
:100610000F931F93142FF22E2FB720682FBF2AB1EC
:100620002F7320682AB955980E94EA0280B58F7B03
:1006300080BD80B58E7F80BD1370110F110F110F1B
:100640008AB1877E812B8AB980B5806880BD83E0BE
:10065000F822F29430EFF32280B58F7C8F2980BD91
:10066000902F9370990F80B5897F892B80BD04707E
:100670008AB18B7F802B8AB981E0E822EE0CEE0CE8
:10068000EE0C80B5877F8E2980BD1F910F91FF9062
:10069000EF900895EF920F9343E020E003E0EE2403
:1006A0000E9406030F91EF90089560E875E280E0E4
:1006B00090E00E944A0308955D9BFECF8CB9089597
:1006C0009C0180E090E0A0E0B0E00AC0F901E80FF2
:1006D000F91FE0815D9BFECFECB90196A11DB11D14
:1006E00084179507A607B70788F30895FC0104C08F
:1006F0005D9BFECF31968CB980818823C9F75D9BC5
:10070000FECF1CB808950E94D50208950E94DC0215
:100710000895AF92BF92CF92DF92EF92FF920F9324
:100720001F93CF93DF93EC015A016B01EE24FF245A
:1007300087010BC00E94D502FE01EE0DFF1D8083D4
:100740000894E11CF11C011D111DEA14FB040C05A9
:100750001D0580F3DF91CF911F910F91FF90EF90D6
:10076000DF90CF90BF90AF900895AF92BF92CF929D
:10077000DF92EF92FF920F931F93CF93DF93EC01E1
:100780005A016B01411551056105710521F0EE24F7
:10079000FF24870111C00E94D50289938823D9F7CD
:1007A00010C00E94D5028883209759F00894E11C5C
:1007B000F11C011D111D2196EA14FB040C051D05F9
:1007C00080F3DF91CF911F910F91FF90EF90DF9019
:1007D000CF90BF90AF900895EF92FF920F93DF9369
:1007E000CF93CDB7DEB760970FB6F894DEBF0FBEDC
:1007F000CDBFA82F002309F461C07E010894E11C3D
:10080000F11C88E0F70111928A95E9F729833A8370
:100810004B835C836D837E83AF83988780E2801BEC
:10082000E82FFF27E7FDF0954D815E816F81788588
:10083000181684F01D861E861F86188A8827992719
:100840008E1B9F0B04C076956795579547958A95A3
:10085000D2F728C0202F332727FD3095DB01CA01AE
:10086000022E04C0B695A795979587950A94D2F75E
:100870008D879E87AF87B88B04C0440F551F661FB6
:10088000771FEA95D2F789819A81AB81BC8104C038
:10089000B695A795979587952A95D2F7482B592B0A
:1008A0006A2B7B2B49875A876B877C8729853A85FA
:1008B0004B855C856D857E85AF8598898A2F60968E
:1008C0000FB6F894DEBF0FBECDBFCF91DF910F9171
:1008D000FF90EF90089597FB092E07260AD077FD29
:1008E00004D02ED006D000201AF4709561957F4F69
:1008F0000895F6F7909581959F4F0895A1E21A2EDD
:10090000AA1BBB1BFD010DC0AA1FBB1FEE1FFF1FB3
:10091000A217B307E407F50720F0A21BB30BE40B03
:10092000F50B661F771F881F991F1A9469F760954A
:100930007095809590959B01AC01BD01CF01089504
:10094000AA1BBB1B51E107C0AA1FBB1FA617B707F5
:1009500010F0A61BB70B881F991F5A95A9F7809511
:0C0960009095BC01CD010895F894FFCFE4
:10096C0048656C6C6F205541525421003B00380097
:10097C003500320039003600330030003A003700C1
:04098C003400310002
:00000001FF
