:100000000C942A000C9447000C9447000C94470071
:100010000C9447000C9447000C9447000C94470044
:100020000C9447000C9447000C9447000C94470034
:100030000C9447000C9447000C9447000C94470024
:100040000C9447000C9447000C9447000C94470014
:100050000C94470011241FBECFE5D8E0DEBFCDBF12
:1000600010E0A0E6B0E0E8EFF6E102C005900D92E6
:10007000A638B107D9F710E0A6E8B0E001C01D929C
:10008000A139B107E1F70E947C000C947A0B0C9423
:1000900000000F931F93CF93DF939C018B01009778
:1000A00051F480E3FB018483C3E0D0E0F801EC0F5E
:1000B000FD1F80E21AC0C4E0D0E0F801EC0FFD1F84
:1000C000C9016AE070E00E94FA0A805D808321978E
:1000D000C9016AE070E00E94FA0A9B01611571058E
:1000E00061F7E4CF808321973197D7FFFBCFDF9172
:1000F000CF911F910F910895CF93DF9380E690E009
:100100000E941104809186000E94EC0285E2809397
:100110008F0010929000C0E2DEE4809186000E9481
:10012000D8029093890080938800A0E0B0E0BC01E1
:10013000CD0124E630E040E050E00E94DB0A2FEFE2
:1001400033E040E050E00E94210BDA01C9016AE887
:1001500070E00E94490080E690E00E94070480E67B
:1001600090E06AE870E00E94C003CE010197F1F7C9
:10017000D4CF282FE82FE370F0E0EE0FFF1FE359F4
:10018000FF4F0190F081E02D808190E0269526952B
:10019000277002C0959587952A95E2F7817008959A
:1001A000382F3695369537708370E82FF0E0662348
:1001B00091F0EE0FFF1FEB59FF4F0190F081E02D02
:1001C000208181E090E002C0880F991F3A95E2F704
:1001D000282B20830895EE0FFF1FEB59FF4F01904E
:1001E000F081E02D208181E090E002C0880F991F0E
:1001F0003A95E2F78095822380830895582F782FCF
:100200007370382F369536953770E72FF0E06623F8
:1002100099F0EE0FFF1FEB58FF4F0190F081E02D9A
:10022000208181E090E0032E02C0880F991F0A947C
:10023000E2F7282B208313C0EE0FFF1FEB58FF4F70
:100240000190F081E02D208181E090E0032E02C03A
:10025000880F991F0A94E2F7809582238083852F67
:100260008C7F872B3770330F330F837E832B642F64
:100270000E94D000089540E0662309F441E00E9406
:10028000FE000895E82FE370F0E0EE0FFF1FEB593A
:10029000FF4F0190F081E02D9081869586958770C3
:1002A00021E030E002C0220F331F8A95E2F7922747
:1002B00090830895482FE82FE370F0E0EE0FFF1FC2
:1002C000E359FF4F0190F081E02DE081469546957E
:1002D000242F277030E0B9016F5F7F4F81E090E0FD
:1002E0000E940E0B02C0880F991F2A95E2F78150D9
:1002F000F0E046954695469502C0F595E7954A95F6
:10030000E2F78E230895CF93DF93982F96959695D5
:100310009770382F3295369537708370E82FF0E05C
:10032000C92FD0E06623E9F0EE0FFF1FEB59FF4F16
:100330000190F081E02D2081BE016F5F7F4F81E051
:1003400090E00E940E0B02C0880F991FCA95E2F739
:10035000019702C0880F991F3A95E2F7282B208356
:100360001DC0EE0FFF1FEB59FF4F0190F081E02DF4
:100370002081BE016F5F7F4F81E090E00E940E0BF5
:1003800002C0880F991FCA95E2F7019702C0880F33
:10039000991F3A95E2F7809582238083DF91CF9170
:1003A0000895FF920F931F93CF93DF93382FF62E6C
:1003B000082F0370482F469546954770182F1295C1
:1003C00016951770E02FF0E0C42FD0E06623F9F007
:1003D000EE0FFF1FEB58FF4F0190F081E02D2081C1
:1003E000BE016F5F7F4F81E090E00E940E0B042EF4
:1003F00002C0880F991F0A94E2F70197012E02C0EC
:10040000880F991F0A94E2F7282B20831FC0EE0F54
:10041000FF1FEB58FF4F0190F081E02D2081BE01BE
:100420006F5F7F4F81E090E00E940E0B042E02C0B0
:10043000880F991F0A94E2F70197012E02C0880FD6
:10044000991F0A94E2F78095822380833C7F302BAA
:100450004770440F440F337E342B1295110F107EDA
:100460003F71312B60E0FF2009F461E0832F0E948F
:100470008301DF91CF911F910F91FF900895FF921B
:100480000F931F93482F062FE82FE370F0E0EE0F35
:10049000FF1FEB59FF4F0190F081E02DF080469552
:1004A0004695242F277030E0B9016F5F7F4F81E0C0
:1004B00090E00E940E0B02C0880F991F2A95E2F768
:1004C00001974695469546959C01042E02C0220F41
:1004D000331F0A94E2F720952F2110E08023912307
:1004E00002C0880F991F4A95E2F7282B20831F919D
:1004F0000F91FF900895EF92FF920F931F93182F83
:10050000E62EB3E0FB2EF822082F0695069507701D
:10051000129516951770EF2DF0E0EE0FFF1FEB58B8
:10052000FF4F0190F081E02D4081202F30E0B90194
:100530006F5F7F4F81E090E00E940E0B002E02C0A3
:10054000880F991F0A94E2F701979C01012E02C0BF
:10055000220F331F0A94E2F7209524234E2D50E0FA
:1005600084239523012E02C0880F991F0A94E2F775
:10057000282B2083000F000F1295110F107EF02AF8
:10058000E0948F2D812B6E2D0E943F021F910F91C1
:10059000FF90EF90089581E080938700379A86B1AD
:1005A000876086B987B18F73806487B93D98089555
:1005B000982F969596959770837069F487B1807E91
:1005C000892B87B93498369A349BFECF349A24B15C
:1005D00035B1C90108950895982F8370A9F4892F22
:1005E00060E040E00E94FE0080918700882361F473
:1005F00081E080938700379A86B1876086B987B19A
:100600008F73806487B93D980895AF92BF92CF925F
:10061000DF92EF92FF920F931F93CF93DF93EC0142
:100620005A016B018B8161E00E94D000C601B501C7
:1006300020E030E04AEF54E40E9457077B018C0130
:1006400020E030E040E85FE30E94B10888231CF41A
:1006500061E070E024C0C801B70120E03FEF4FE740
:1006600057E40E9451081816B4F4C601B50120E001
:1006700030E040E251E40E9457070E94810588EC77
:1006800090E005C0FC013197F1F7615070406115B1
:100690007105C1F707C0C801B7010E948105CB01F0
:1006A0000197F1F78B8160E00E94D000C801B7018B
:1006B00020E030E040E85FE30E94B10888231CF4AA
:1006C00061E070E024C0C801B70120E03FEF4FE7D0
:1006D00057E40E9451081816B4F4C601B50120E091
:1006E00030E040E251E40E9457070E94810588EC07
:1006F00090E005C0FC013197F1F761507040611541
:100700007105C1F707C0C801B7010E948105CB017F
:100710000197F1F7DF91CF911F910F91FF90EF902B
:10072000DF90CF90BF90AF9008951F93CF93DF934A
:10073000EC01142F89810E94D0008A8160E00E9420
:10074000D0008C81813069F0612F62956F70888153
:100750000E943F02CE0140E050E060E07FE30E9453
:1007600005038881612F0E943F02CE0140E050E0E6
:1007700060E070E40E940503DF91CF911F9108951E
:100780000F931F93CF93DF938C01EB0161157105DC
:1007900061F08881882331F408C02196C80161E0A6
:1007A0000E94950348814423C1F7DF91CF911F91A7
:1007B0000F9108950F931F93CF93DF93EC01062FB2
:1007C000142F186106C0CE0160E0412F0E949503EE
:1007D00001500023C1F7DF91CF911F910F91089530
:1007E000662311F448E001C04CE060E00E949503EC
:1007F0000895603158F4423048F44295440F440F54
:10080000407C460F406860E00E949503089560E0D8
:1008100042E00E949503089560E041E00E94950344
:100820000895CF93DF93EC019881892F8C7129F47F
:100830009F71988381E08C8304C0937E906198833C
:100840001C82898161E00E943B018A8161E00E94F3
:100850003B018B8161E00E943B01888161E00E9445
:10086000D10180E69AEE0197F1F7898160E00E945C
:10087000D0008A8160E00E94D0008C81813019F420
:1008800088816CE318C0888162E00E943F02CE013B
:1008900040E050E060E07FE30E940503888162E071
:1008A0000E943F02CE0140E050E060E07FE30E9402
:1008B000050388816CE00E943F02CE0140E050E0D9
:1008C00060E070E40E940503CE0161E00E94F00345
:1008D000CE010E940C04CE0160E046E00E94950328
:1008E000DF91CF910895FF920F931F93CF93DF93E2
:1008F000EC0189810E94D0008A8161E00E94D000D1
:100900008B8161E00E94D00008EE13E0C8010197DE
:10091000F1F78C81813029F488810E945A01F82EE8
:1009200019C088810E945A01F82EF29480EFF822B3
:100930008B8160E00E94D000C8010197F1F78B81A4
:1009400061E00E94D000C8010197F1F788810E9400
:100950005A01F82A8B8160E00E94D00088EE93E073
:100960000197F1F78F2DDF91CF911F910F91FF909C
:1009700008952F923F924F925F926F927F928F9243
:100980009F92AF92BF92CF92DF92EF92FF920F931E
:100990001F93DF93CF93CDB7DEB729970FB6F894A7
:1009A000DEBF0FBECDBF6C017B836A83842E222302
:1009B00019F400E011E003C0042F01501FEFF6010D
:1009C000808160E00E94D101C60160E00E94730452
:1009D0008983F601808161E00E94D1019924212E52
:1009E000332427FC3094910143E0220F331F4A95B2
:1009F000E1F73D832C83802F90E09F838E83482CEA
:100A0000552463C0C60160E040E40E949503A92C10
:100A1000BB24A29CF001A39CF00DB29CF00D11240C
:100A20002E813F81E20FF31F93E0EE0FFF1F9A9597
:100A3000E1F78A819B81E80FF91FF987E887EE24A7
:100A4000FF2435011DC0E885F985E00FF11FC601BF
:100A500061E040810E9495030F5F1F4F0830110530
:100A600091F70894E11CF11CE885F9852C813D8102
:100A7000E20FF31FF987E88738E0E316F10449F045
:100A8000C701860D971D841595051CF400E010E044
:100A9000DACF4981490D4068C60160E00E949503A4
:100AA00000E010E00AC0C60161E0402F0E949503FB
:100AB0000F5F1F4F0830110531F0C8018A0D9B1DD3
:100AC0008415950584F388E0980E981408F49ACF5D
:100AD00029960FB6F894DEBF0FBECDBFCF91DF9140
:100AE0001F910F91FF90EF90DF90CF90BF90AF904C
:100AF0009F908F907F906F905F904F903F902F903E
:100B00000895EF92FF920F931F937B018C0120E0D9
:100B100030E040E05FE40E94810888238CF0C80147
:100B2000B70120E030E040E05FE40E94F9060E9457
:100B3000E1089B01AC01205030404040504806C0C5
:100B4000C801B7010E94E1089B01AC01B901CA01CB
:100B50001F910F91FF90EF900895A0E0B0E0E3EBBC
:100B6000F5E00C94430BDC012B01FA019C919230CF
:100B700008F439C1EB018881823008F433C1943024
:100B800069F4843009F02FC111969C9111978981E5
:100B9000981709F428C1ADE7B0E025C1843009F405
:100BA00021C18230A9F4923009F01DC19A01AD0132
:100BB00088E0EA010990AE01E90109929E018150A5
:100BC000C1F7E201898111969C918923818308C133
:100BD000923009F407C112962D903C901397EB01C7
:100BE0008A819B811496AD90BD90CD90DC90179733
:100BF000EC80FD800E811F819101281B390BB9010A
:100C000037FF04C066277727621B730B60327105BC
:100C10000CF061C0121613066CF537014801062E60
:100C200004C096948794779467940A94D2F721E04D
:100C300030E040E050E004C0220F331F441F551F36
:100C40006A95D2F721503040404050402E213F213C
:100C500040235123211531054105510521F021E0A3
:100C600030E040E050E079018A01E628F7280829C1
:100C700019293CC0232BD1F1260E371E3501460120
:100C8000062E04C096948794779467940A94D2F7BA
:100C900021E030E040E050E004C0220F331F441F49
:100CA000551F6A95D2F721503040404050402A21CC
:100CB0003B214C215D21211531054105510521F0D4
:100CC00021E030E040E050E059016A01A628B72851
:100CD000C828D9280BC0821593052CF01C01AA2422
:100CE000BB24650103C0EE24FF24870111969C916B
:100CF000D20111968C91981709F445C0992339F0C7
:100D0000A80197012A193B094C095D0906C0A601F3
:100D100095012E193F09400B510B57FD08C0118258
:100D20003382228224833583468357831DC081E02A
:100D300081833382228288279927DC01821B930BCF
:100D4000A40BB50B84839583A683B7830DC0220FB4
:100D5000331F441F551F2483358346835783828165
:100D600093810197938382832481358146815781C2
:100D7000DA01C9010197A109B1098F5F9F4FAF4FF8
:100D8000BF4328F30BC0918333822282EA0CFB1C01
:100D90000C1D1D1DE482F5820683178383E080838A
:100DA000248135814681578157FF1AC0C901AA277E
:100DB00097FDA095BA2F81709070A070B070569575
:100DC000479537952795822B932BA42BB52B84839E
:100DD0009583A683B78382819381019693838283CF
:100DE000DF0101C0D201CD01CDB7DEB7E2E10C9445
:100DF0005F0BA0E2B0E0EFEFF6E00C944F0B6983DD
:100E00007A838B839C832D833E834F835887E9E0CD
:100E1000EE2EF12CEC0EFD1ECE010196B7010E94C4
:100E20000A0A8E010F5E1F4FCE010596B8010E947F
:100E30000A0A8A8991E089278A8BC701B801AE0125
:100E4000475E5F4F0E94AD050E943509A096E6E01F
:100E50000C946B0BA0E2B0E0E0E3F7E00C944F0BD6
:100E600069837A838B839C832D833E834F8358874A
:100E7000F9E0EF2EF12CEC0EFD1ECE010196B7012C
:100E80000E940A0A8E010F5E1F4FCE010596B8011F
:100E90000E940A0AC701B801AE01475E5F4F0E9477
:100EA000AD050E943509A096E6E00C946B0BA0E21C
:100EB000B0E0EDE5F7E00C94430B69837A838B8314
:100EC0009C832D833E834F835887CE010196BE01BC
:100ED000675F7F4F0E940A0ACE010596BE016F5ED2
:100EE0007F4F0E940A0A9985923088F08989823062
:100EF000C8F0943019F4823051F404C0843029F4DD
:100F0000923081F48DE790E0C6C0923049F420E041
:100F10009A858A89981321E02A87CE010996BBC059
:100F2000823049F420E09A858A89981321E02A8B3F
:100F3000CE014196B0C02D843E844F8458886D8880
:100F40007E888F88988CEE24FF248701AA24BB24F6
:100F5000650140E050E060E070E0E0E0F0E0C101F9
:100F600081709070892BE9F0E60CF71C081D191DA3
:100F70009A01AB012A0D3B1D4C1D5D1D80E090E0E8
:100F8000A0E0B0E0E614F7040805190520F481E0BC
:100F900090E0A0E0B0E0BA01A901480F591F6A1F14
:100FA0007B1FAA0CBB1CCC1CDD1C97FE08C081E07B
:100FB00090E0A0E0B0E0A82AB92ACA2ADB2A31963C
:100FC000E032F10549F0660C771C881C991C569498
:100FD000479437942794C3CFFA85EA892B893C89B3
:100FE0008B859C85280F391F2E5F3F4F17C0CA0184
:100FF00081709070892B61F016950795F794E794AE
:1010000080E090E0A0E0B0E8E82AF92A0A2B1B2B48
:1010100076956795579547952F5F3F4F77FDE7CFBB
:101020000CC0440F551F661F771F17FD4160EE0C63
:10103000FF1C001F111F21503040403090E0590725
:1010400090E0690790E4790760F32B8F3C8FDB0118
:10105000CA018F779070A070B07080349105A1059F
:10106000B10561F447FD0AC0E114F1040105110561
:1010700029F0405C5F4F6F4F7F4F40781A8EFE170C
:1010800011F081E08A8F4D8F5E8F6F8F78A383E0A0
:10109000898FCE0149960E943509A096E2E10C9411
:1010A0005F0BA8E1B0E0E7E5F8E00C944F0B698333
:1010B0007A838B839C832D833E834F83588789E07B
:1010C000E82EF12CEC0EFD1ECE010196B7010E9418
:1010D0000A0A8E010F5E1F4FCE010596B8010E94CD
:1010E0000A0A8985823040F08989823028F0C70158
:1010F000B8010E94820A01C08FEF6896E6E00C9466
:101100006B0BA8E1B0E0E7E8F8E00C944F0B6983C3
:101110007A838B839C832D833E834F83588789E01A
:10112000E82EF12CEC0EFD1ECE010196B7010E94B7
:101130000A0A8E010F5E1F4FCE010596B8010E946C
:101140000A0A8985823040F08989823028F0C701F7
:10115000B8010E94820A01C08FEF6896E6E00C9405
:101160006B0BA8E1B0E0E7EBF8E00C944F0B698360
:101170007A838B839C832D833E834F83588789E0BA
:10118000E82EF12CEC0EFD1ECE010196B7010E9457
:101190000A0A8E010F5E1F4FCE010596B8010E940C
:1011A0000A0A8985823040F08989823028F0C70197
:1011B000B8010E94820A01C081E06896E6E00C94C2
:1011C0006B0BACE0B0E0E7EEF8E00C94530B6983F6
:1011D0007A838B839C83CE010196BE016B5F7F4F28
:1011E0000E940A0A8D81823061F1823050F1843090
:1011F00021F48E81882351F12EC02F81388537FD4F
:1012000020C06E812F3131051CF06623F9F023C018
:101210008EE190E0821B930B29853A854B855C8596
:1012200004C056954795379527958A95D2F766233A
:10123000B1F050954095309521953F4F4F4F5F4FFE
:101240000EC020E030E040E050E009C02FEF3FEF5B
:101250004FEF5FE704C020E030E040E050E8B90124
:10126000CA012C96E2E00C946F0BDF92EF92FF9292
:101270000F931F93FC01E480F58006811781D180D4
:101280008081823048F480E090E0A0E1B0E0E82A7C
:10129000F92A0A2B1B2BA5C0843009F49FC0823089
:1012A00021F4EE24FF24870105C0E114F1040105B7
:1012B000110519F4E0E0F0E096C0628173819FEFC0
:1012C000623879070CF05BC022E83FEF261B370B32
:1012D0002A3131052CF020E030E040E050E02AC017
:1012E000B801A701022E04C07695679557954795DA
:1012F0000A94D2F781E090E0A0E0B0E004C0880F4B
:10130000991FAA1FBB1F2A95D2F70197A109B109FE
:101310008E219F21A023B1230097A105B10521F0C3
:1013200081E090E0A0E0B0E09A01AB01282B392BDE
:101330004A2B5B2BDA01C9018F779070A070B070D7
:1013400080349105A105B10539F427FF09C0205C5F
:101350003F4F4F4F5F4F04C0215C3F4F4F4F5F4F98
:10136000E0E0F0E02030A0E03A07A0E04A07A0E487
:101370005A0710F0E1E0F0E079018A0127C06038F7
:10138000710564F5FB01E158FF4FD801C7018F7764
:101390009070A070B07080349105A105B10539F44A
:1013A000E7FE0DC080E490E0A0E0B0E004C08FE371
:1013B00090E0A0E0B0E0E80EF91E0A1F1B1F17FF27
:1013C00005C016950795F794E794319687E0169532
:1013D0000795F794E7948A95D1F705C0EE24FF248A
:1013E0008701EFEFF0E06E2F679566276795902FE6
:1013F0009F77D794DD24D7948E2F8695492F462B3F
:10140000582F5D29B701CA011F910F91FF90EF90EE
:10141000DF900895FC01DB01408151812281622F20
:101420006F7770E0221F2227221F9381892F880F58
:10143000822B282F30E0991F9927991F11969C9392
:10144000119721153105A9F5411551056105710562
:1014500011F482E037C082E89FEF13969C938E933D
:1014600012979A01AB0167E0220F331F441F551FEB
:101470006A95D1F783E08C930DC0220F331F441F70
:10148000551F12968D919C911397019713969C93DB
:101490008E931297203080E0380780E0480780E480
:1014A000580758F314962D933D934D935C931797DB
:1014B00008952F3F310579F44115510561057105F6
:1014C00019F484E08C93089564FF03C081E08C9349
:1014D00012C01C9210C02F57304013963C932E938D
:1014E000129783E08C9387E0440F551F661F771F88
:1014F0008A95D1F7706414964D935D936D937C93A8
:10150000179708951F93DC01FB019C91923008F41A
:1015100047C08081823008F443C0943051F4119662
:101520001C91843099F58181682F70E0611B7109ED
:101530003FC0843021F0923031F48230B9F18181A2
:10154000882389F12DC011961C9111978230F1F0FA
:1015500081811817D9F412962D913C9113978281AD
:1015600093818217930794F028173907BCF01496DB
:101570008D919D910D90BC91A02D24813581468146
:101580005781281739074A075B0718F4112341F0E0
:101590000AC082179307A407B50740F4112319F076
:1015A00061E070E005C06FEF7FEF02C060E070E0C7
:1015B000CB011F910895629FD001739FF001829F1C
:1015C000E00DF11D649FE00DF11D929FF00D839FD2
:1015D000F00D749FF00D659FF00D9927729FB00D6F
:1015E000E11DF91F639FB00DE11DF91FBD01CF0182
:1015F00011240895AA1BBB1B51E107C0AA1FBB1FE2
:10160000A617B70710F0A61BB70B881F991F5A958E
:10161000A9F780959095BC01CD01089597FB092EFF
:1016200007260AD077FD04D0E5DF06D000201AF4A3
:10163000709561957F4F0895F6F7909581959F4F2E
:101640000895A1E21A2EAA1BBB1BFD010DC0AA1F03
:10165000BB1FEE1FFF1FA217B307E407F50720F01B
:10166000A21BB30BE40BF50B661F771F881F991F96
:101670001A9469F760957095809590959B01AC01DF
:10168000BD01CF0108952F923F924F925F926F92CA
:101690007F928F929F92AF92BF92CF92DF92EF9202
:1016A000FF920F931F93CF93DF93CDB7DEB7CA1B83
:1016B000DB0B0FB6F894DEBF0FBECDBF09942A88AE
:1016C000398848885F846E847D848C849B84AA8456
:1016D000B984C884DF80EE80FD800C811B81AA81E3
:1016E000B981CE0FD11D0FB6F894DEBF0FBECDBFAE
:0816F000ED010895F894FFCF0D
:1016F8000213171B003B0038003500320039003652
:1017080000330030003A0037003400310000000098
:06171800000000000000CB
:00000001FF
