:100000000C942A000C943F000C943F000C943F0089
:100010000C943F000C943F000C943F000C943F0064
:100020000C943F000C943F000C943F000C943F0054
:100030000C943F000C943F000C943F000C943F0044
:100040000C943F000C943F000C943F000C943F0034
:100050000C943F0011241FBECFE5D8E0DEBFCDBF1A
:1000600010E0A0E6B0E0E8E2F5E002C005900D92F5
:10007000AA37B107D9F70E9441000C9492020C9460
:100080000000CF93DF938091600061E00E94A100A7
:1000900020E137E2C8ECD0E005C0CE010197F1F7CE
:1000A0002150304021153105C1F7809160000E9438
:1000B000E20020E137E2F1CF282FE82FE370F0E0F3
:1000C000EE0FFF1FE759FF4F0190F081E02D808177
:1000D00090E026952695277002C0959587952A95DC
:1000E000E2F781700895382F369536953770837012
:1000F000E82FF0E0662391F0EE0FFF1FEF59FF4F5E
:100100000190F081E02D208181E090E002C0880F15
:10011000991F3A95E2F7282B20830895EE0FFF1FD1
:10012000EF59FF4F0190F081E02D208181E090E0B8
:1001300002C0880F991F3A95E2F780958223808349
:100140000895482F762F582F5370382F36953695AF
:100150003770E52FF0E0662399F0EE0FFF1FEF58A0
:10016000FF4F0190F081E02D208181E090E0032E8F
:1001700002C0880F991F0A94E2F7282B208313C02E
:10018000EE0FFF1FEF58FF4F0190F081E02D20810F
:1001900081E090E0032E02C0880F991F0A94E2F7D5
:1001A0008095822380834C7F452B3770330F330F2C
:1001B000437E432B60E0772309F461E0842F0E94A3
:1001C00073000895E82FE370F0E0EE0FFF1FEF5982
:1001D000FF4F0190F081E02D908186958695877084
:1001E00021E030E002C0220F331F8A95E2F7922708
:1001F00090830895482FE82FE370F0E0EE0FFF1F83
:10020000E759FF4F0190F081E02DE081469546953A
:10021000242F277030E0B9016F5F7F4F81E090E0BD
:100220000E946B0202C0880F991F2A95E2F7815045
:10023000F0E046954695469502C0F595E7954A95B6
:10024000E2F78E230895CF93DF93982F9695969596
:100250009770382F3295369537708370E82FF0E01D
:10026000C92FD0E06623E9F0EE0FFF1FEF59FF4FD3
:100270000190F081E02D2081BE016F5F7F4F81E012
:1002800090E00E946B0202C0880F991FCA95E2F7A6
:10029000019702C0880F991F3A95E2F7282B208317
:1002A0001DC0EE0FFF1FEF59FF4F0190F081E02DB1
:1002B0002081BE016F5F7F4F81E090E00E946B0262
:1002C00002C0880F991FCA95E2F7019702C0880FF4
:1002D000991F3A95E2F7809582238083DF91CF9131
:1002E0000895FF920F931F93CF93DF93382FF62E2D
:1002F000082F0370482F469546954770182F129582
:1003000016951770E02FF0E0C42FD0E06623F9F0C7
:10031000EE0FFF1FEF58FF4F0190F081E02D20817D
:10032000BE016F5F7F4F81E090E00E946B02042E60
:1003300002C0880F991F0A94E2F70197012E02C0AC
:10034000880F991F0A94E2F7282B20831FC0EE0F15
:10035000FF1FEF58FF4F0190F081E02D2081BE017B
:100360006F5F7F4F81E090E00E946B02042E02C01D
:10037000880F991F0A94E2F70197012E02C0880F97
:10038000991F0A94E2F78095822380833C7F302B6B
:100390004770440F440F337E342B1295110F107E9B
:1003A0003F71312B60E0FF2009F461E0832F0E9450
:1003B0002301DF91CF911F910F91FF900895FF923C
:1003C0000F931F93482F062FE82FE370F0E0EE0FF6
:1003D000FF1FEF59FF4F0190F081E02DF08046950F
:1003E0004695242F277030E0B9016F5F7F4F81E081
:1003F00090E00E946B0202C0880F991F2A95E2F7D5
:1004000001974695469546959C01042E02C0220F01
:10041000331F0A94E2F720952F2110E080239123C7
:1004200002C0880F991F4A95E2F7282B20831F915D
:100430000F91FF900895EF92FF920F931F93182F43
:10044000E62EB3E0FB2EF822082F069506950770DE
:10045000129516951770EF2DF0E0EE0FFF1FEF5875
:10046000FF4F0190F081E02D4081202F30E0B90155
:100470006F5F7F4F81E090E00E946B02002E02C010
:10048000880F991F0A94E2F701979C01012E02C080
:10049000220F331F0A94E2F7209524234E2D50E0BB
:1004A00084239523012E02C0880F991F0A94E2F736
:1004B000282B2083000F000F1295110F107EF02AB9
:1004C000E0948F2D812B6E2D0E94DF011F910F91E3
:1004D000FF90EF90089597FB092E07260AD077FD2D
:1004E00004D00CD006D000201AF4709561957F4F8F
:1004F0000895F6F7909581959F4F0895AA1BBB1B11
:1005000051E107C0AA1FBB1FA617B70710F0A61B13
:10051000B70B881F991F5A95A9F780959095BC0134
:08052000CD010895F894FFCF0E
:10052800013B003800350032003900360033003016
:0A053800003A0037003400310000E3
:00000001FF
