:100000000C942A000C9447000C9447000C94470071
:100010000C9447000C9447000C9447000C94470044
:100020000C9447000C9447000C9447000C94470034
:100030000C9447000C9447000C9447000C94470024
:100040000C9447000C9447000C9447000C94470014
:100050000C94470011241FBECFE5D8E0DEBFCDBF12
:1000600010E0A0E6B0E0EAECF6E002C005900D92E8
:10007000AA38B107D9F710E0AAE8B0E001C01D9294
:10008000AB38B107E1F70E9449000C9463030C946C
:1000900000000F931F93CF93DF9380E690E0609171
:1000A00064000E9427038091650061E00E941901AD
:1000B0008091660061E00E9419018091670061E013
:1000C0000E9419011AE0C8ECD0E003E080916700BB
:1000D00060E00E94EB008091650061E00E94EB000F
:1000E00010938A0013C080E690E06091640050E0B5
:1000F0000E94A30280E197E2FE013197F1F7019798
:10010000D9F780918A00815080938A0040918A00BB
:10011000442349F78091650060E00E94EB008091E4
:10012000660061E00E94EB0000938A0013C080E645
:1001300090E06091640050E00E94A30280E197E2A9
:10014000FE013197F1F70197D9F780918A0081502C
:1001500080938A0040918A00442349F78091660089
:1001600060E00E94EB008091670061E00E94EB007C
:1001700010938A0013C080E690E06091640050E024
:100180000E94A30280E197E2FE013197F1F7019707
:10019000D9F780918A00815080938A0040918A002B
:1001A000442309F493CFE7CF282FE82FE370F0E042
:1001B000EE0FFF1FE059FF4F0190F081E02D80818D
:1001C00090E026952695277002C0959587952A95EB
:1001D000E2F781700895382F369536953770837021
:1001E000E82FF0E0662391F0EE0FFF1FE859FF4F74
:1001F0000190F081E02D208181E090E002C0880F25
:10020000991F3A95E2F7282B20830895EE0FFF1FE0
:10021000E859FF4F0190F081E02D208181E090E0CE
:1002200002C0880F991F3A95E2F780958223808358
:100230000895482F762F582F5370382F36953695BE
:100240003770E52FF0E0662399F0EE0FFF1FE858B6
:10025000FF4F0190F081E02D208181E090E0032E9E
:1002600002C0880F991F0A94E2F7282B208313C03D
:10027000EE0FFF1FE858FF4F0190F081E02D208125
:1002800081E090E0032E02C0880F991F0A94E2F7E4
:100290008095822380834C7F452B3770330F330F3B
:1002A000437E432B60E0772309F461E0842F0E94B2
:1002B000EB000895482FE82FE370F0E0EE0FFF1FEA
:1002C000E059FF4F0190F081E02DE0814695469581
:1002D000242F277030E0B9016F5F7F4F81E090E0FD
:1002E0000E94500302C0880F991F2A95E2F781509F
:1002F000F0E046954695469502C0F595E7954A95F6
:10030000E2F78E230895CF93DF93982F96959695D5
:100310009770382F3295369537708370E82FF0E05C
:10032000C92FD0E06623E9F0EE0FFF1FE859FF4F19
:100330000190F081E02D2081BE016F5F7F4F81E051
:1003400090E00E94500302C0880F991FCA95E2F7FF
:10035000019702C0880F991F3A95E2F7282B208356
:100360001DC0EE0FFF1FE859FF4F0190F081E02DF7
:100370002081BE016F5F7F4F81E090E00E945003BB
:1003800002C0880F991FCA95E2F7019702C0880F33
:10039000991F3A95E2F7809582238083DF91CF9170
:1003A0000895FF920F931F93CF93DF93382FF62E6C
:1003B000082F0370482F469546954770182F1295C1
:1003C00016951770E02FF0E0C42FD0E06623F9F007
:1003D000EE0FFF1FE858FF4F0190F081E02D2081C4
:1003E000BE016F5F7F4F81E090E00E945003042EBA
:1003F00002C0880F991F0A94E2F70197012E02C0EC
:10040000880F991F0A94E2F7282B20831FC0EE0F54
:10041000FF1FE858FF4F0190F081E02D2081BE01C1
:100420006F5F7F4F81E090E00E945003042E02C076
:10043000880F991F0A94E2F70197012E02C0880FD6
:10044000991F0A94E2F78095822380833C7F302BAA
:100450004770440F440F337E342B1295110F107EDA
:100460003F71312B60E0FF2009F461E0832F0E948F
:100470008301DF91CF911F910F91FF900895FF921B
:100480000F931F93482F062FE82FE370F0E0EE0F35
:10049000FF1FE859FF4F0190F081E02DF080469555
:1004A0004695242F277030E0B9016F5F7F4F81E0C0
:1004B00090E00E94500302C0880F991F2A95E2F72E
:1004C00001974695469546959C01042E02C0220F41
:1004D000331F0A94E2F720952F2110E08023912307
:1004E00002C0880F991F4A95E2F7282B20831F919D
:1004F0000F91FF900895DC01E62F11966C911197F2
:10050000623010F083E00895EA3010F084E008953E
:10051000F0E0E058FF4F6150808168278C910E9485
:100520003F0280E00895FC016181623010F083E0B9
:10053000089570E06F5F7F4F6170707080810E94DE
:10054000830180E008958F929F92BF92CF92DF92B5
:10055000EF92FF920F931F93CF93DF936C01B62E10
:10056000EA01662311F445E04EC04115510599F4A6
:1005700060E00E947B02482FE1E0EE2EFF24E7FCC2
:10058000F094E701CC0FDD1FCC0DDD1D00E010E085
:10059000CB2CDD242EC07C0100E010E0862E9924B7
:1005A000E02F0815190514F045E0E7CFCE016AE009
:1005B00070E00E943C03682FC7010E947B02482F15
:1005C000E02FEF5FCE016AE070E00E943C03EB0198
:1005D0006115710591F20F5F1F4F82E090E0E80E08
:1005E000F91E4423E9F2C9CFCE010E949302482F9D
:1005F0002296C8018E0D9F1D8C159D0524F40F5F5A
:100600001F4F442389F3842FDF91CF911F910F91C6
:10061000FF90EF90DF90CF90BF909F908F900895C4
:10062000FC019081892F8C7111F081E00895892F50
:10063000807E11F082E008958181823010F083E0A5
:100640000895892F61E00E94D10180E008950F9301
:100650001F93CF93DF93062FEC0110E005C0CE016E
:100660000E94100322961F5F1017C8F380E0DF91ED
:10067000CF911F910F910895AA1BBB1B51E107C099
:10068000AA1FBB1FA617B70710F0A61BB70B881F22
:10069000991F5A95A9F780959095BC01CD010895B1
:1006A00097FB092E07260AD077FD04D0E5DF06D098
:1006B00000201AF4709561957F4F0895F6F7909594
:0A06C00081959F4F0895F894FFCF35
:1006CA00000001000202060A3B0038003500320031
:1006DA0039003600330030003A0037003400310068
:0A06EA003F065B4F666D7D077F6FD2
:00000001FF
