:100000000C942A000C943F000C943F000C943F0089
:100010000C943F000C943F000C943F000C943F0064
:100020000C943F000C943F000C943F000C943F0054
:100030000C943F000C943F000C943F000C943F0044
:100040000C943F000C943F000C943F000C943F0034
:100050000C943F0011241FBECFE5D8E0DEBFCDBF1A
:1000600010E0A0E6B0E0E2E6F4E102C005900D92F7
:10007000AE39B107D9F70E9441000C942F0A0C94B5
:10008000000080E690E00E94070380E690E065E0D3
:1000900040E00E94EF0280E690E065E670E043E019
:1000A00021E00E94AF03FFCF282FE82FE370F0E09C
:1000B000EE0FFF1FEB57FF4F0190F081E02D808185
:1000C00090E026952695277002C0959587952A95EC
:1000D000E2F781700895382F369536953770837022
:1000E000E82FF0E0662391F0EE0FFF1FE358FF4F7B
:1000F0000190F081E02D208181E090E002C0880F26
:10010000991F3A95E2F7282B20830895EE0FFF1FE1
:10011000E358FF4F0190F081E02D208181E090E0D5
:1001200002C0880F991F3A95E2F780958223808359
:100130000895482F762F582F5370382F36953695BF
:100140003770E52FF0E0662399F0EE0FFF1FE357BD
:10015000FF4F0190F081E02D208181E090E0032E9F
:1001600002C0880F991F0A94E2F7282B208313C03E
:10017000EE0FFF1FE357FF4F0190F081E02D20812C
:1001800081E090E0032E02C0880F991F0A94E2F7E5
:100190008095822380834C7F452B3770330F330F3C
:1001A000437E432B60E0772309F461E0842F0E94B3
:1001B0006B000895482FE82FE370F0E0EE0FFF1F6B
:1001C000EB57FF4F0190F081E02DE0814695469579
:1001D000242F277030E0B9016F5F7F4F81E090E0FE
:1001E0000E94D10902C0880F991F2A95E2F7815019
:1001F000F0E046954695469502C0F595E7954A95F7
:10020000E2F78E230895CF93DF93982F96959695D6
:100210009770382F3295369537708370E82FF0E05D
:10022000C92FD0E06623E9F0EE0FFF1FE358FF4F20
:100230000190F081E02D2081BE016F5F7F4F81E052
:1002400090E00E94D10902C0880F991FCA95E2F779
:10025000019702C0880F991F3A95E2F7282B208357
:100260001DC0EE0FFF1FE358FF4F0190F081E02DFE
:100270002081BE016F5F7F4F81E090E00E94D10935
:1002800002C0880F991FCA95E2F7019702C0880F34
:10029000991F3A95E2F7809582238083DF91CF9171
:1002A0000895FF920F931F93CF93DF93382FF62E6D
:1002B000082F0370482F469546954770182F1295C2
:1002C00016951770E02FF0E0C42FD0E06623F9F008
:1002D000EE0FFF1FE357FF4F0190F081E02D2081CB
:1002E000BE016F5F7F4F81E090E00E94D109042E34
:1002F00002C0880F991F0A94E2F70197012E02C0ED
:10030000880F991F0A94E2F7282B20831FC0EE0F55
:10031000FF1FE357FF4F0190F081E02D2081BE01C8
:100320006F5F7F4F81E090E00E94D109042E02C0F0
:10033000880F991F0A94E2F70197012E02C0880FD7
:10034000991F0A94E2F78095822380833C7F302BAB
:100350004770440F440F337E342B1295110F107EDB
:100360003F71312B60E0FF2009F461E0832F0E9490
:100370000301DF91CF911F910F91FF900895FF929C
:100380000F931F93482F062FE82FE370F0E0EE0F36
:10039000FF1FE358FF4F0190F081E02DF08046955C
:1003A0004695242F277030E0B9016F5F7F4F81E0C1
:1003B00090E00E94D10902C0880F991F2A95E2F7A8
:1003C00001974695469546959C01042E02C0220F42
:1003D000331F0A94E2F720952F2110E08023912308
:1003E00002C0880F991F4A95E2F7282B20831F919E
:1003F0000F91FF900895AF92BF92CF92DF92EF924C
:10040000FF920F931F93CF93DF93EC015A016B017F
:100410008B8161E00E946B00C601B50120E030E0F5
:100420004AEF54E40E944D067B018C0120E030E04D
:1004300040E85FE30E94A70788231CF461E070E0B6
:1004400024C0C801B70120E03FEF4FE757E40E9406
:1004500047071816B4F4C601B50120E030E040E2C9
:1004600051E40E944D060E94770488EC90E005C09C
:10047000FC013197F1F76150704061157105C1F7CA
:1004800007C0C801B7010E947704CB010197F1F7BB
:100490008B8160E00E946B00C801B70120E030E072
:1004A00040E85FE30E94A70788231CF461E070E046
:1004B00024C0C801B70120E03FEF4FE757E40E9496
:1004C00047071816B4F4C601B50120E030E040E259
:1004D00051E40E944D060E94770488EC90E005C02C
:1004E000FC013197F1F76150704061157105C1F75A
:1004F00007C0C801B7010E947704CB010197F1F74B
:10050000DF91CF911F910F91FF90EF90DF90CF90EF
:10051000BF90AF9008951F93CF93DF93EC01142FFA
:1005200089810E946B008A8160E00E946B008C814F
:10053000813069F0612F62956F7088810E94BF01E0
:10054000CE0140E050E060E07FE30E94FB01888143
:10055000612F0E94BF01CE0140E050E060E070E4F6
:100560000E94FB01DF91CF911F9108950F931F937C
:10057000CF93DF938C01EB016115710561F08881E8
:10058000882331F408C02196C80161E00E948B02E3
:1005900048814423C1F7DF91CF911F910F910895B6
:1005A0000F931F93CF93DF93EC01062F142F186145
:1005B00006C0CE0160E0412F0E948B020150002353
:1005C000C1F7DF91CF911F910F910895662311F428
:1005D00048E001C04CE060E00E948B020895603169
:1005E00058F4423048F44295440F440F407C460F83
:1005F000406860E00E948B02089560E042E00E9443
:100600008B02089560E041E00E948B020895CF9331
:10061000DF93EC019881892F8C7129F49F71988365
:1006200081E08C8304C0937E906198831C828981D1
:1006300061E00E9499008A8161E00E9499008B81AB
:1006400061E00E949900888161E00E94510180E68A
:100650009AEE0197F1F7898160E00E946B008A8130
:1006600060E00E946B008C81813019F488816CE31A
:1006700018C0888162E00E94BF01CE0140E050E0D6
:1006800060E07FE30E94FB01888162E00E94BF017D
:10069000CE0140E050E060E07FE30E94FB018881F2
:1006A0006CE00E94BF01CE0140E050E060E070E4E9
:1006B0000E94FB01CE0161E00E94E602CE010E9491
:1006C0000203CE0160E046E00E948B02DF91CF91F1
:1006D0000895FF920F931F93CF93DF93EC018981CD
:1006E0000E946B008A8161E00E946B008B8161E057
:1006F0000E946B0008EE13E0C8010197F1F78C81AE
:10070000813029F488810E94DA00F82E19C088818E
:100710000E94DA00F82EF29480EFF8228B8160E0DC
:100720000E946B00C8010197F1F78B8161E00E9484
:100730006B00C8010197F1F788810E94DA00F82A5E
:100740008B8160E00E946B0088EE93E00197F1F7E7
:100750008F2DDF91CF911F910F91FF9008952F92D0
:100760003F924F925F926F927F928F929F92AF9241
:10077000BF92CF92DF92EF92FF920F931F93DF937E
:10078000CF93CDB7DEB729970FB6F894DEBF0FBE73
:10079000CDBF6C017B836A83842E222319F400E091
:1007A00011E003C0042F01501FEFF601808160E0CB
:1007B0000E945101C60160E00E9469038983F6012D
:1007C000808161E00E9451019924212E332427FC6D
:1007D0003094910143E0220F331F4A95E1F73D83A6
:1007E0002C83802F90E09F838E83482C552463C0F8
:1007F000C60160E040E40E948B02A92CBB24A29CAD
:10080000F001A39CF00DB29CF00D11242E813F81CC
:10081000E20FF31F93E0EE0FFF1F9A95E1F78A8135
:100820009B81E80FF91FF987E887EE24FF24350143
:100830001DC0E885F985E00FF11FC60161E0408128
:100840000E948B020F5F1F4F0830110591F708942B
:10085000E11CF11CE885F9852C813D81E20FF31F35
:10086000F987E88738E0E316F10449F0C701860DFF
:10087000971D841595051CF400E010E0DACF49813E
:10088000490D4068C60160E00E948B0200E010E064
:100890000AC0C60161E0402F0E948B020F5F1F4F0C
:1008A0000830110531F0C8018A0D9B1D841595058E
:1008B00084F388E0980E981408F49ACF29960FB61E
:1008C000F894DEBF0FBECDBFCF91DF911F910F9186
:1008D000FF90EF90DF90CF90BF90AF909F908F9060
:1008E0007F906F905F904F903F902F900895EF9280
:1008F000FF920F931F937B018C0120E030E040E0DA
:100900005FE40E94770788238CF0C801B70120E0DC
:1009100030E040E05FE40E94EF050E94D7079B01B2
:10092000AC01205030404040504806C0C801B701DB
:100930000E94D7079B01AC01B901CA011F910F9119
:10094000FF90EF900895A0E0B0E0E9EAF4E00C94A5
:10095000F809DC012B01FA019C91923008F439C1AD
:10096000EB018881823008F433C1943069F484301B
:1009700009F02FC111969C9111978981981709F45C
:1009800028C1A5E9B0E025C1843009F421C1823035
:10099000A9F4923009F01DC19A01AD0188E0EA0185
:1009A0000990AE01E90109929E018150C1F7E2016F
:1009B000898111969C918923818308C1923009F421
:1009C00007C112962D903C901397EB018A819B8171
:1009D0001496AD90BD90CD90DC901797EC80FD8083
:1009E0000E811F819101281B390BB90137FF04C00B
:1009F00066277727621B730B603271050CF061C0AC
:100A0000121613066CF537014801062E04C09694A1
:100A10008794779467940A94D2F721E030E040E01D
:100A200050E004C0220F331F441F551F6A95D2F7B0
:100A300021503040404050402E213F21402351233F
:100A4000211531054105510521F021E030E040E05C
:100A500050E079018A01E628F728082919293CC0C5
:100A6000232BD1F1260E371E35014601062E04C078
:100A700096948794779467940A94D2F721E030E0B3
:100A800040E050E004C0220F331F441F551F6A95F9
:100A9000D2F721503040404050402A213B214C2188
:100AA0005D21211531054105510521F021E030E09E
:100AB00040E050E059016A01A628B728C828D92883
:100AC0000BC0821593052CF01C01AA24BB246501E0
:100AD00003C0EE24FF24870111969C91D201119648
:100AE0008C91981709F445C0992339F0A801970112
:100AF0002A193B094C095D0906C0A60195012E196A
:100B00003F09400B510B57FD08C0118233822282EE
:100B100024833583468357831DC081E081833382DC
:100B2000228288279927DC01821B930BA40BB50B2B
:100B300084839583A683B7830DC0220F331F441F80
:100B4000551F248335834683578382819381019780
:100B5000938382832481358146815781DA01C901DB
:100B60000197A109B1098F5F9F4FAF4FBF4328F392
:100B70000BC0918333822282EA0CFB1C0C1D1D1DCD
:100B8000E482F5820683178383E0808324813581A4
:100B90004681578157FF1AC0C901AA2797FDA09522
:100BA000BA2F81709070A070B070569547953795A8
:100BB0002795822B932BA42BB52B84839583A68317
:100BC000B78382819381019693838283DF0101C081
:100BD000D201CD01CDB7DEB7E2E10C94140AA0E258
:100BE000B0E0E5EFF5E00C94040A69837A838B8327
:100BF0009C832D833E834F835887E9E0EE2EF12CB2
:100C0000EC0EFD1ECE010196B7010E9400098E0177
:100C10000F5E1F4FCE010596B8010E9400098A8918
:100C200091E089278A8BC701B801AE01475E5F4F0B
:100C30000E94A3040E942B08A096E6E00C94200AD0
:100C4000A0E2B0E0E6E2F6E00C94040A69837A835D
:100C50008B839C832D833E834F835887F9E0EF2E4F
:100C6000F12CEC0EFD1ECE010196B7010E94000989
:100C70008E010F5E1F4FCE010596B8010E9400093C
:100C8000C701B801AE01475E5F4F0E94A3040E94F6
:100C90002B08A096E6E00C94200AA0E2B0E0E3E581
:100CA000F6E00C94F80969837A838B839C832D8307
:100CB0003E834F835887CE010196BE01675F7F4F09
:100CC0000E940009CE010596BE016F5E7F4F0E9413
:100CD00000099985923088F089898230C8F0943073
:100CE00019F4823051F404C0843029F4923081F434
:100CF00085E990E0C6C0923049F420E09A858A895F
:100D0000981321E02A87CE010996BBC0823049F4AE
:100D100020E09A858A89981321E02A8BCE0141969A
:100D2000B0C02D843E844F8458886D887E888F881B
:100D3000988CEE24FF248701AA24BB24650140E09F
:100D400050E060E070E0E0E0F0E0C10181709070A0
:100D5000892BE9F0E60CF71C081D191D9A01AB015F
:100D60002A0D3B1D4C1D5D1D80E090E0A0E0B0E031
:100D7000E614F7040805190520F481E090E0A0E0EE
:100D8000B0E0BA01A901480F591F6A1F7B1FAA0CC6
:100D9000BB1CCC1CDD1C97FE08C081E090E0A0E0ED
:100DA000B0E0A82AB92ACA2ADB2A3196E032F10536
:100DB00049F0660C771C881C991C5694479437940C
:100DC0002794C3CFFA85EA892B893C898B859C853A
:100DD000280F391F2E5F3F4F17C0CA0181709070D6
:100DE000892B61F016950795F794E79480E090E0E1
:100DF000A0E0B0E8E82AF92A0A2B1B2B7695679524
:100E0000579547952F5F3F4F77FDE7CF0CC0440FB5
:100E1000551F661F771F17FD4160EE0CFF1C001F5A
:100E2000111F21503040403090E0590790E0690791
:100E300090E4790760F32B8F3C8FDB01CA018F7739
:100E40009070A070B07080349105A105B10561F477
:100E500047FD0AC0E114F1040105110529F0405CC9
:100E60005F4F6F4F7F4F40781A8EFE1711F081E071
:100E70008A8F4D8F5E8F6F8F78A383E0898FCE012D
:100E800049960E942B08A096E2E10C94140AA8E16E
:100E9000B0E0EDE4F7E00C94040A69837A838B8375
:100EA0009C832D833E834F83588789E0E82EF12C65
:100EB000EC0EFD1ECE010196B7010E9400098E01C5
:100EC0000F5E1F4FCE010596B8010E94000989856B
:100ED000823040F08989823028F0C701B8010E9431
:100EE000780901C08FEF6896E6E00C94200AA8E12B
:100EF000B0E0EDE7F7E00C94040A69837A838B8312
:100F00009C832D833E834F83588789E0E82EF12C04
:100F1000EC0EFD1ECE010196B7010E9400098E0164
:100F20000F5E1F4FCE010596B8010E94000989850A
:100F3000823040F08989823028F0C701B8010E94D0
:100F4000780901C08FEF6896E6E00C94200AA8E1CA
:100F5000B0E0EDEAF7E00C94040A69837A838B83AE
:100F60009C832D833E834F83588789E0E82EF12CA4
:100F7000EC0EFD1ECE010196B7010E9400098E0104
:100F80000F5E1F4FCE010596B8010E9400098985AA
:100F9000823040F08989823028F0C701B8010E9470
:100FA000780901C081E06896E6E00C94200AACE084
:100FB000B0E0EDEDF7E00C94080A69837A838B8347
:100FC0009C83CE010196BE016B5F7F4F0E9400099A
:100FD0008D81823061F1823050F1843021F48E8134
:100FE000882351F12EC02F81388537FD20C06E81B6
:100FF0002F3131051CF06623F9F023C08EE190E01B
:10100000821B930B29853A854B855C8504C05695D8
:101010004795379527958A95D2F76623B1F0509575
:101020004095309521953F4F4F4F5F4F0EC020E0C8
:1010300030E040E050E009C02FEF3FEF4FEF5FE7B7
:1010400004C020E030E040E050E8B901CA012C962D
:10105000E2E00C94240ADF92EF92FF920F931F9329
:10106000FC01E480F58006811781D1808081823087
:1010700048F480E090E0A0E1B0E0E82AF92A0A2BE9
:101080001B2BA5C0843009F49FC0823021F4EE24CC
:10109000FF24870105C0E114F1040105110519F4CD
:1010A000E0E0F0E096C0628173819FEF62387907DB
:1010B0000CF05BC022E83FEF261B370B2A313105CD
:1010C0002CF020E030E040E050E02AC0B801A70159
:1010D000022E04C076956795579547950A94D2F7E6
:1010E00081E090E0A0E0B0E004C0880F991FAA1F43
:1010F000BB1F2A95D2F70197A109B1098E219F2123
:10110000A023B1230097A105B10521F081E090E073
:10111000A0E0B0E09A01AB01282B392B4A2B5B2BC6
:10112000DA01C9018F779070A070B070803491059A
:10113000A105B10539F427FF09C0205C3F4F4F4F8F
:101140005F4F04C0215C3F4F4F4F5F4FE0E0F0E046
:101150002030A0E03A07A0E04A07A0E45A0710F0C8
:10116000E1E0F0E079018A0127C06038710564F59B
:10117000FB01E158FF4FD801C7018F779070A07035
:10118000B07080349105A105B10539F4E7FE0DC0BA
:1011900080E490E0A0E0B0E004C08FE390E0A0E045
:1011A000B0E0E80EF91E0A1F1B1F17FF05C01695B9
:1011B0000795F794E794319687E016950795F7948D
:1011C000E7948A95D1F705C0EE24FF248701EFEF5D
:1011D000F0E06E2F679566276795902F9F77D794DD
:1011E000DD24D7948E2F8695492F462B582F5D29C5
:1011F000B701CA011F910F91FF90EF90DF90089502
:10120000FC01DB01408151812281622F6F7770E008
:10121000221F2227221F9381892F880F822B282F9C
:1012200030E0991F9927991F11969C9311972115CA
:101230003105A9F5411551056105710511F482E0EB
:1012400037C082E89FEF13969C938E9312979A0172
:10125000AB0167E0220F331F441F551F6A95D1F77A
:1012600083E08C930DC0220F331F441F551F12962D
:101270008D919C911397019713969C938E9312973F
:10128000203080E0380780E0480780E4580758F3B2
:1012900014962D933D934D935C93179708952F3F8C
:1012A000310579F4411551056105710519F484E0A2
:1012B0008C93089564FF03C081E08C9312C01C924C
:1012C00010C02F57304013963C932E93129783E013
:1012D0008C9387E0440F551F661F771F8A95D1F7BF
:1012E000706414964D935D936D937C931797089556
:1012F0001F93DC01FB019C91923008F447C0808170
:10130000823008F443C0943051F411961C9184301B
:1013100099F58181682F70E0611B71093FC08430AD
:1013200021F0923031F48230B9F18181882389F142
:101330002DC011961C9111978230F1F08181181700
:10134000D9F412962D913C91139782819381821743
:10135000930794F028173907BCF014968D919D914E
:101360000D90BC91A02D248135814681578128178D
:1013700039074A075B0718F4112341F00AC08217A6
:101380009307A407B50740F4112319F061E070E05A
:1013900005C06FEF7FEF02C060E070E0CB011F91EE
:1013A000089597FB092E07260AD077FD04D00CD0AC
:1013B00006D000201AF4709561957F4F0895F6F7D6
:1013C000909581959F4F0895AA1BBB1B51E107C0C3
:1013D000AA1FBB1FA617B70710F0A61BB70B881FC5
:1013E000991F5A95A9F780959095BC01CD01089554
:1013F0002F923F924F925F926F927F928F929F9225
:10140000AF92BF92CF92DF92EF92FF920F931F9312
:10141000CF93DF93CDB7DEB7CA1BDB0B0FB6F894C3
:10142000DEBF0FBECDBF09942A88398848885F8403
:101430006E847D848C849B84AA84B984C884DF8074
:10144000EE80FD800C811B81AA81B981CE0FD11D58
:101450000FB6F894DEBF0FBECDBFED010895F8942E
:02146000FFCFBC
:101462000302060A0000000304041F00000000003B
:1014720000001F0A0400000008040704183B00389B
:10148200003500320039003600330030003A0037B0
:0E1492000034003100000000000000000000E7
:00000001FF
