:100000000C942A000C9447000C9447000C94470071
:100010000C9447000C9447000C9447000C94470044
:100020000C9447000C9447000C9447000C94470034
:100030000C9447000C94AA020C9447000C944700BF
:100040000C9447000C9447000C9447000C94470014
:100050000C94470011241FBECFE5D8E0DEBFCDBF12
:1000600010E0A0E6B0E0E8E8FBE102C005900D92E8
:10007000A63AB107D9F711E0A6EAB0E001C01D9297
:10008000AD32B107E1F70E9449000C94C20D0C9407
:100090000000CF93DF930E9470038CE690E00E94F3
:1000A000D20780E790E00E941805C0E2DEE48CE60B
:1000B00090E00E943D07982F8093290180912B01A9
:1000C000981769F090932B01992349F0892F0E948A
:1000D00077038DE00E9477038AE00E9477038CE229
:1000E00091E00E94A10380932A018823E9F0809186
:1000F000A6008F5F8093A600803130F01092A6009A
:1001000080E790E00E940E0580E790E060912C016E
:100110000E94DC0480912C010E9477038DE00E94F4
:1001200077038AE00E947703CE010197F1F7BFCFF2
:10013000282FE82FE370F0E0EE0FFF1FE358FF4F8A
:100140000190F081E02D808190E026952695277022
:1001500002C0959587952A95E2F781700895382F0A
:100160003695369537708370E82FF0E0662391F06E
:10017000EE0FFF1FEB58FF4F0190F081E02D208123
:1001800081E090E002C0880F991F3A95E2F7282B92
:1001900020830895EE0FFF1FEB58FF4F0190F08171
:1001A000E02D208181E090E002C0880F991F3A95F0
:1001B000E2F78095822380830895582F782F7370FB
:1001C000382F369536953770E72FF0E0662399F093
:1001D000EE0FFF1FEB57FF4F0190F081E02D2081C4
:1001E00081E090E0032E02C0880F991F0A94E2F785
:1001F000282B208313C0EE0FFF1FEB57FF4F0190FA
:10020000F081E02D208181E090E0032E02C0880F74
:10021000991F0A94E2F7809582238083852F8C7F33
:10022000872B3770330F330F837E832B642F0E940D
:10023000AF00089540E0662309F441E00E94DD002C
:100240000895E82FE370F0E0EE0FFF1FEB58FF4F2B
:100250000190F081E02D908186958695877021E050
:1002600030E002C0220F331F8A95E2F79227908375
:100270000895482FE82FE370F0E0EE0FFF1FE358DA
:10028000FF4F0190F081E02DE08146954695242FA7
:10029000277030E0B9016F5F7F4F81E090E00E94EE
:1002A000420D02C0880F991F2A95E2F78150F0E0B5
:1002B00046954695469502C0F595E7954A95E2F72D
:1002C0008E230895CF93DF93982F969596959770E8
:1002D000382F3295369537708370E82FF0E0C92FAC
:1002E000D0E06623E9F0EE0FFF1FEB58FF4F0190BF
:1002F000F081E02D2081BE016F5F7F4F81E090E0B3
:100300000E94420D02C0880F991FCA95E2F701971B
:1003100002C0880F991F3A95E2F7282B20831DC051
:10032000EE0FFF1FEB58FF4F0190F081E02D208171
:10033000BE016F5F7F4F81E090E00E94420D02C0DE
:10034000880F991FCA95E2F7019702C0880F991F7D
:100350003A95E2F7809582238083DF91CF910895CB
:10036000FF920F931F93CF93DF93382FF62E082F12
:100370000370482F469546954770182F129516958D
:100380001770E02FF0E0C42FD0E06623F9F0EE0FF5
:10039000FF1FEB57FF4F0190F081E02D2081BE0140
:1003A0006F5F7F4F81E090E00E94420D042E02C0FB
:1003B000880F991F0A94E2F70197012E02C0880F57
:1003C000991F0A94E2F7282B20831FC0EE0FFF1F0E
:1003D000EB57FF4F0190F081E02D2081BE016F5F50
:1003E0007F4F81E090E00E94420D042E02C0880FF2
:1003F000991F0A94E2F70197012E02C0880F991FF6
:100400000A94E2F78095822380833C7F302B4770EB
:10041000440F440F337E342B1295110F107E3F7121
:10042000312B60E0FF2009F461E0832F0E9462011C
:10043000DF91CF911F910F91FF900895FF920F933D
:100440001F93482F062FE82FE370F0E0EE0FFF1FF9
:10045000EB58FF4F0190F081E02DF08046954695D6
:10046000242F277030E0B9016F5F7F4F81E090E06B
:100470000E94420D02C0880F991F2A95E2F701974A
:100480004695469546959C01042E02C0220F331FC7
:100490000A94E2F720952F2110E08023912302C0D7
:1004A000880F991F4A95E2F7282B20831F910F91FF
:1004B000FF900895EF92FF920F931F93182FE62E4F
:1004C000B3E0FB2EF822082F0695069507701295CB
:1004D00016951770EF2DF0E0EE0FFF1FEB57FF4F53
:1004E0000190F081E02D4081202F30E0B9016F5F55
:1004F0007F4F81E090E00E94420D002E02C0880FE5
:10050000991F0A94E2F701979C01012E02C0220F65
:10051000331F0A94E2F7209524234E2D50E08423C4
:100520009523012E02C0880F991F0A94E2F7282B09
:100530002083000F000F1295110F107EF02AE09417
:100540008F2D812B6E2D0E941E021F910F91FF9007
:10055000EF9008951F920F920FB60F9211248F9370
:100560009F93EF93FF938091A70087FD14C0E091C4
:10057000A800F0E08CB1E755FF4F80838091A80080
:1005800090E001968F7790708093A8008091A700EB
:100590008F5F8093A700FF91EF919F918F910F90B4
:1005A0000FBE0F901F9018958AB18F738AB98091F2
:1005B000A8002091A70090E080589F4F821B9109CE
:1005C00060E870E00E94420DFC01E755FF4F80811A
:1005D00021502093A7009AB19F7390689AB908950B
:1005E0008091A7008823E1F30E94D4020895CF935D
:1005F000DF93EC018091A700882321F00E94D402B0
:10060000888381E0DF91CF9108959B01AC015998D7
:1006100060E271EA87E090E00E94550DC901DA01BD
:100620000197A109B10989B920B52F7720BD892F7C
:100630009A2FAB2FBB278F7020B5207F282B20BD92
:100640000895EF92FF920F931F93142FF22E2FB75E
:1006500020682FBF2AB12F7320682AB955980E94AD
:10066000050380B58F7B80BD80B58E7F80BD137004
:10067000110F110F110F8AB1877E812B8AB980B5B6
:10068000806880BD83E0F822F29430EFF32280B5D9
:100690008F7C8F2980BD902F9370990F80B5897FB3
:1006A000892B80BD04708AB18B7F802B8AB981E051
:1006B000E822EE0CEE0CEE0C80B5877F8E2980BD13
:1006C0001F910F91FF90EF900895EF920F9343E0E9
:1006D00020E003E0EE240E9421030F91EF900895A3
:1006E00060E875E280E090E00E94650308955D9BFC
:1006F000FECF8CB908959C0180E090E0A0E0B0E0CE
:100700000AC0F901E80FF91FE0815D9BFECFECB94B
:100710000196A11DB11D84179507A607B70788F399
:100720000895FC0104C05D9BFECF31968CB9808199
:100730008823C9F75D9BFECF1CB808950E94F00284
:1007400008950E94F7020895AF92BF92CF92DF9270
:10075000EF92FF920F931F93CF93DF93EC015A0117
:100760006B01EE24FF2487010BC00E94F002FE0102
:10077000EE0DFF1D80830894E11CF11C011D111D6D
:10078000EA14FB040C051D0580F3DF91CF911F9146
:100790000F91FF90EF90DF90CF90BF90AF900895B2
:1007A000AF92BF92CF92DF92EF92FF920F931F937F
:1007B000CF93DF93EC015A016B014115510561059F
:1007C000710521F0EE24FF24870111C00E94F00280
:1007D00089938823D9F710C00E94F002888320975C
:1007E00059F00894E11CF11C011D111D2196EA1419
:1007F000FB040C051D0580F3DF91CF911F910F9134
:10080000FF90EF90DF90CF90BF90AF900895AF92A0
:10081000BF92CF92DF92EF92FF920F931F93CF93ED
:10082000DF93EC015A016B018B8161E00E94AF0004
:10083000C601B50120E030E04AEF54E40E94BE0951
:100840007B018C0120E030E040E85FE30E94180B60
:1008500088231CF461E070E024C0C801B70120E0E7
:100860003FEF4FE757E40E94B80A1816B4F4C601E8
:10087000B50120E030E040E251E40E94BE090E9450
:10088000E80788EC90E005C0FC013197F1F7615072
:10089000704061157105C1F707C0C801B7010E941A
:1008A000E807CB010197F1F78B8160E00E94AF0070
:1008B000C801B70120E030E040E85FE30E94180B78
:1008C00088231CF461E070E024C0C801B70120E077
:1008D0003FEF4FE757E40E94B80A1816B4F4C60178
:1008E000B50120E030E040E251E40E94BE090E94E0
:1008F000E80788EC90E005C0FC013197F1F7615002
:10090000704061157105C1F707C0C801B7010E94A9
:10091000E807CB010197F1F7DF91CF911F910F917C
:10092000FF90EF90DF90CF90BF90AF9008951F930E
:10093000CF93DF93EC01142F89810E94AF008A814D
:1009400060E00E94AF008C81813069F0612F629578
:100950006F7088810E941E02CE0140E050E060E08E
:100960007FE30E9407048881612F0E941E02CE014E
:1009700040E050E060E070E40E940704DF91CF9116
:100980001F9108950F931F93CF93DF938C01EB0179
:100990006115710561F08881882331F408C02196C2
:1009A000C80161E00E94970448814423C1F7DF91A8
:1009B000CF911F910F910895462F61E00E949704F7
:1009C00008950F931F93CF93DF93EC01062F142FFD
:1009D000186106C0CE0160E0412F0E9497040150CB
:1009E0000023C1F7DF91CF911F910F9108956623E6
:1009F00011F448E001C04EE060E00E9497040895C1
:100A0000603158F4423048F44295440F440F407C22
:100A1000460F406860E00E949704089560E042E05D
:100A20000E949704089560E041E00E9497040895B1
:100A3000CF93DF93EC019881892F8C7129F49F71FA
:100A4000988381E08C8304C0937E906198831C829C
:100A5000898161E00E941A018A8161E00E941A0185
:100A60008B8161E00E941A01888161E00E94B001DF
:100A700080E69AEE0197F1F7898160E00E94AF006D
:100A80008A8160E00E94AF008C81813019F48881F6
:100A90006CE318C0888162E00E941E02CE0140E033
:100AA00050E060E07FE30E940704888162E00E94DA
:100AB0001E02CE0140E050E060E07FE30E940704A8
:100AC00088816CE00E941E02CE0140E050E060E0B0
:100AD00070E40E940704CE0161E00E94F704CE0199
:100AE0000E941305CE0160E046E00E949704DF916A
:100AF000CF910895FF920F931F93CF93DF93EC0153
:100B000089810E94AF008A8161E00E94AF008B81E1
:100B100061E00E94AF0008EE13E0C8010197F1F711
:100B20008C81813029F488810E943901F82E19C006
:100B300088810E943901F82EF29480EFF8228B818F
:100B400060E00E94AF00C8010197F1F78B8161E07E
:100B50000E94AF00C8010197F1F788810E94390116
:100B6000F82A8B8160E00E94AF0088EE93E0019745
:100B7000F1F78F2DDF91CF911F910F91FF90089585
:100B80002F923F924F925F926F927F928F929F929D
:100B9000AF92BF92CF92DF92EF92FF920F931F938B
:100BA000DF93CF93CDB7DEB729970FB6F894DEBFAA
:100BB0000FBECDBF6C017B836A83842E222319F480
:100BC00000E011E003C0042F01501FEFF601808107
:100BD00060E00E94B001C60160E00E947A0589834E
:100BE000F601808161E00E94B0019924212E332416
:100BF00027FC3094910143E0220F331F4A95E1F71F
:100C00003D832C83802F90E09F838E83482C552436
:100C100063C0C60160E040E40E949704A92CBB2495
:100C2000A29CF001A39CF00DB29CF00D11242E812A
:100C30003F81E20FF31F93E0EE0FFF1F9A95E1F75C
:100C40008A819B81E80FF91FF987E887EE24FF244A
:100C500035011DC0E885F985E00FF11FC60161E08F
:100C600040810E9497040F5F1F4F0830110591F7D4
:100C70000894E11CF11CE885F9852C813D81E20F87
:100C8000F31FF987E88738E0E316F10449F0C7015C
:100C9000860D971D841595051CF400E010E0DACF51
:100CA0004981490D4068C60160E00E94970400E058
:100CB00010E00AC0C60161E0402F0E9497040F5F58
:100CC0001F4F0830110531F0C8018A0D9B1D841596
:100CD000950584F388E0980E981408F49ACF299625
:100CE0000FB6F894DEBF0FBECDBFCF91DF911F913D
:100CF0000F91FF90EF90DF90CF90BF90AF909F90BB
:100D00008F907F906F905F904F903F902F900895BD
:100D1000982F9195982380E002C096958F5F90FF61
:100D2000FCCF08952F923F924F925F926F927F92E5
:100D30008F929F92AF92BF92CF92DF92EF92FF92EB
:100D40000F931F93CF93DF938C013B01DC01FC9148
:100D5000F695F695F7702F2F30E0B9016F5F7F4F52
:100D600081E090E00E94420D0F2E02C0880F991F73
:100D70000A94E2F7482E4A94D80111964C91E42F38
:100D8000E695E695E7702E2F30E0B9016F5F7F4F53
:100D900081E090E00E94420D0E2E02C0880F991F44
:100DA0000A94E2F7582E5A944C7119F428E0D22E86
:100DB00001C0DE2ED8018C91E82EE294E69497E0F3
:100DC000E9228C7111F428E001C02F2FC22ECE0C25
:100DD000AD2CBB24FF24C0E0D0E081E0882E912C14
:100DE00036C0B4010E2C02C0660F771F0A94E2F7DA
:100DF00060956421F80180810E941E02D80111963D
:100E00008C910E943901809585219E0140E0682FD8
:100E100070E018C0CB01042E02C0959587950A9406
:100E2000E2F780FF0CC013012F0C311CF801A281E6
:100E3000B381A20FB31F8C91D1018C93F3944F5FB8
:100E40002F5F3F4F4D1530F3E394CA0DDB1DEC14BB
:100E500040F28F2DDF91CF911F910F91FF90EF9076
:100E6000DF90CF90BF90AF909F908F907F906F90CA
:100E70005F904F903F902F9008959F92AF92BF92B6
:100E8000CF92DF92EF92FF920F931F93CF93DF9356
:100E90007C01DC01FC91F695F695F7702F2F30E080
:100EA000B9016F5F7F4F81E090E00E94420D0F2EED
:100EB00002C0880F991F0A94E2F7982E9A94D701DE
:100EC00011964C91E42FE695E695E7702E2F30E0D1
:100ED000B9016F5F7F4F81E090E00E94420D0E2EBE
:100EE00002C0880F991F0A94E2F7A82EAA944C71A9
:100EF00019F448E0B42E01C0BE2ED7018C91082F02
:100F00000295069507708C7111F428E001C02F2F0F
:100F1000122F100F31E0C32ED12C35C0C02FD0E0DE
:100F2000B601002E02C0660F771F0A94E2F76095A3
:100F30006921F70180810E941E02D70111968C91D0
:100F40000E943901282F20952A21E1F0F701028122
:100F500013818081829586958770C81BD1098B2D5E
:100F600090E0C89F7001C99FF00CD89FF00C11242D
:100F7000822F0E9488060E0D1F1D080F111DD8011B
:100F80008C9104C00F5F011748F280E0DF91CF9190
:100F90001F910F91FF90EF90DF90CF90BF90AF9097
:100FA0009F900895CF93DF93EC01888161E00E94C8
:100FB000B001898160E00E94B0018A819B81892B08
:100FC00021F48DE890E09B838A83DF91CF9108958F
:100FD000EF92FF920F931F937B018C0120E030E092
:100FE00040E05FE40E94E80A88238CF0C801B70162
:100FF00020E030E040E05FE40E9460090E94480B7E
:101000009B01AC01205030404040504806C0C80110
:10101000B7010E94480B9B01AC01B901CA011F91A5
:101020000F91FF90EF900895A0E0B0E0EAE1F8E0C2
:101030000C948B0DDC012B01FA019C91923008F489
:1010400039C1EB018881823008F433C1943069F4EE
:10105000843009F02FC111969C91119789819817BE
:1010600009F428C1ADE9B0E025C1843009F421C1FB
:101070008230A9F4923009F01DC19A01AD0188E0D7
:10108000EA010990AE01E90109929E018150C1F780
:10109000E201898111969C918923818308C1923054
:1010A00009F407C112962D903C901397EB018A81A9
:1010B0009B811496AD90BD90CD90DC901797EC80FD
:1010C000FD800E811F819101281B390BB90137FF6B
:1010D00004C066277727621B730B603271050CF022
:1010E00061C0121613066CF537014801062E04C0C4
:1010F00096948794779467940A94D2F721E030E02D
:1011000040E050E004C0220F331F441F551F6A9572
:10111000D2F721503040404050402E213F21402303
:101120005123211531054105510521F021E030E021
:1011300040E050E079018A01E628F72808291929BA
:101140003CC0232BD1F1260E371E35014601062E59
:1011500004C096948794779467940A94D2F721E018
:1011600030E040E050E004C0220F331F441F551F01
:101170006A95D2F721503040404050402A213B210F
:101180004C215D21211531054105510521F021E05A
:1011900030E040E050E059016A01A628B728C8288D
:1011A000D9280BC0821593052CF01C01AA24BB245E
:1011B000650103C0EE24FF24870111969C91D201A2
:1011C00011968C91981709F445C0992339F0A8011C
:1011D00097012A193B094C095D0906C0A601950132
:1011E0002E193F09400B510B57FD08C01182338265
:1011F000228224833583468357831DC081E0818307
:101200003382228288279927DC01821B930BA40B4F
:10121000B50B84839583A683B7830DC0220F331F3C
:10122000441F551F248335834683578382819381CE
:101230000197938382832481358146815781DA0126
:10124000C9010197A109B1098F5F9F4FAF4FBF43FC
:1012500028F30BC0918333822282EA0CFB1C0C1D05
:101260001D1DE482F5820683178383E08083248139
:1012700035814681578157FF1AC0C901AA2797FDBA
:10128000A095BA2F81709070A070B0705695479558
:1012900037952795822B932BA42BB52B848395838D
:1012A000A683B78382819381019693838283DF0132
:1012B00001C0D201CD01CDB7DEB7E2E10C94A70D9C
:1012C000A0E2B0E0E6E6F9E00C94970D69837A833A
:1012D0008B839C832D833E834F835887E9E0EE2EDA
:1012E000F12CEC0EFD1ECE010196B7010E94710C8F
:1012F0008E010F5E1F4FCE010596B8010E94710C42
:101300008A8991E089278A8BC701B801AE01475EBF
:101310005F4F0E9414080E949C0BA096E6E00C947C
:10132000B30DA0E2B0E0E7E9F9E00C94970D698312
:101330007A838B839C832D833E834F835887F9E088
:10134000EF2EF12CEC0EFD1ECE010196B7010E948E
:10135000710C8E010F5E1F4FCE010596B8010E94E1
:10136000710CC701B801AE01475E5F4F0E941408BF
:101370000E949C0BA096E6E00C94B30DA0E2B0E0B6
:10138000E4ECF9E00C948B0D69837A838B839C8366
:101390002D833E834F835887CE010196BE01675F40
:1013A0007F4F0E94710CCE010596BE016F5E7F4F8C
:1013B0000E94710C9985923088F089898230C8F03A
:1013C000943019F4823051F404C0843029F49230FE
:1013D00081F48DE990E0C6C0923049F420E09A850E
:1013E0008A89981321E02A87CE010996BBC08230F2
:1013F00049F420E09A858A89981321E02A8BCE014E
:101400004196B0C02D843E844F8458886D887E8874
:101410008F88988CEE24FF248701AA24BB246501C1
:1014200040E050E060E070E0E0E0F0E0C101817099
:101430009070892BE9F0E60CF71C081D191D9A0124
:10144000AB012A0D3B1D4C1D5D1D80E090E0A0E02E
:10145000B0E0E614F7040805190520F481E090E0F7
:10146000A0E0B0E0BA01A901480F591F6A1F7B1F15
:10147000AA0CBB1CCC1CDD1C97FE08C081E090E0D0
:10148000A0E0B0E0A82AB92ACA2ADB2A3196E032C5
:10149000F10549F0660C771C881C991C56944794FA
:1014A00037942794C3CFFA85EA892B893C898B85A9
:1014B0009C85280F391F2E5F3F4F17C0CA018170CE
:1014C0009070892B61F016950795F794E79480E06A
:1014D00090E0A0E0B0E8E82AF92A0A2B1B2B7695C9
:1014E0006795579547952F5F3F4F77FDE7CF0CC026
:1014F000440F551F661F771F17FD4160EE0CFF1C40
:10150000001F111F21503040403090E0590790E0FB
:10151000690790E4790760F32B8F3C8FDB01CA01E8
:101520008F779070A070B07080349105A105B105DF
:1015300061F447FD0AC0E114F1040105110529F029
:10154000405C5F4F6F4F7F4F40781A8EFE1711F04F
:1015500081E08A8F4D8F5E8F6F8F78A383E0898FB4
:10156000CE0149960E949C0BA096E2E10C94A70D37
:10157000A8E1B0E0EEEBFAE00C94970D69837A8372
:101580008B839C832D833E834F83588789E0E82E8D
:10159000F12CEC0EFD1ECE010196B7010E94710CDC
:1015A0008E010F5E1F4FCE010596B8010E94710C8F
:1015B0008985823040F08989823028F0C701B801DE
:1015C0000E94E90C01C08FEF6896E6E00C94B30D21
:1015D000A8E1B0E0EEEEFAE00C94970D69837A830F
:1015E0008B839C832D833E834F83588789E0E82E2D
:1015F000F12CEC0EFD1ECE010196B7010E94710C7C
:101600008E010F5E1F4FCE010596B8010E94710C2E
:101610008985823040F08989823028F0C701B8017D
:101620000E94E90C01C08FEF6896E6E00C94B30DC0
:10163000A8E1B0E0EEE1FBE00C94970D69837A83BA
:101640008B839C832D833E834F83588789E0E82ECC
:10165000F12CEC0EFD1ECE010196B7010E94710C1B
:101660008E010F5E1F4FCE010596B8010E94710CCE
:101670008985823040F08989823028F0C701B8011D
:101680000E94E90C01C081E06896E6E00C94B30D7D
:10169000ACE0B0E0EEE4FBE00C949B0D69837A8350
:1016A0008B839C83CE010196BE016B5F7F4F0E94AE
:1016B000710C8D81823061F1823050F1843021F4DF
:1016C0008E81882351F12EC02F81388537FD20C0AF
:1016D0006E812F3131051CF06623F9F023C08EE1B5
:1016E00090E0821B930B29853A854B855C8504C06D
:1016F00056954795379527958A95D2F76623B1F089
:1017000050954095309521953F4F4F4F5F4F0EC0FC
:1017100020E030E040E050E009C02FEF3FEF4FEF16
:101720005FE704C020E030E040E050E8B901CA01C2
:101730002C96E2E00C94B70DDF92EF92FF920F939C
:101740001F93FC01E480F58006811781D1808081A0
:10175000823048F480E090E0A0E1B0E0E82AF92A85
:101760000A2B1B2BA5C0843009F49FC0823021F4C2
:10177000EE24FF24870105C0E114F10401051105E1
:1017800019F4E0E0F0E096C0628173819FEF623867
:1017900079070CF05BC022E83FEF261B370B2A319C
:1017A00031052CF020E030E040E050E02AC0B801E4
:1017B000A701022E04C076956795579547950A9420
:1017C000D2F781E090E0A0E0B0E004C0880F991F5C
:1017D000AA1FBB1F2A95D2F70197A109B1098E2133
:1017E0009F21A023B1230097A105B10521F081E03D
:1017F00090E0A0E0B0E09A01AB01282B392B4A2BF6
:101800005B2BDA01C9018F779070A070B0708034C3
:101810009105A105B10539F427FF09C0205C3F4FB0
:101820004F4F5F4F04C0215C3F4F4F4F5F4FE0E091
:10183000F0E02030A0E03A07A0E04A07A0E45A0711
:1018400010F0E1E0F0E079018A0127C0603871050D
:1018500064F5FB01E158FF4FD801C7018F77907005
:10186000A070B07080349105A105B10539F4E7FE90
:101870000DC080E490E0A0E0B0E004C08FE390E011
:10188000A0E0B0E0E80EF91E0A1F1B1F17FF05C0FD
:1018900016950795F794E794319687E01695079586
:1018A000F794E7948A95D1F705C0EE24FF248701C9
:1018B000EFEFF0E06E2F679566276795902F9F7783
:1018C000D794DD24D7948E2F8695492F462B582FF9
:1018D0005D29B701CA011F910F91FF90EF90DF9032
:1018E0000895FC01DB01408151812281622F6F77D5
:1018F00070E0221F2227221F9381892F880F822BBD
:10190000282F30E0991F9927991F11969C931197C2
:1019100021153105A9F5411551056105710511F430
:1019200082E037C082E89FEF13969C938E931297C4
:101930009A01AB0167E0220F331F441F551F6A95C0
:10194000D1F783E08C930DC0220F331F441F551F26
:1019500012968D919C911397019713969C938E9359
:101960001297203080E0380780E0480780E458076D
:1019700058F314962D933D934D935C9317970895C8
:101980002F3F310579F4411551056105710519F4B1
:1019900084E08C93089564FF03C081E08C9312C0AF
:1019A0001C9210C02F57304013963C932E931297E1
:1019B00083E08C9387E0440F551F661F771F8A953D
:1019C000D1F7706414964D935D936D937C93179744
:1019D00008951F93DC01FB019C91923008F447C0ED
:1019E0008081823008F443C0943051F411961C91E8
:1019F000843099F58181682F70E0611B71093FC0C7
:101A0000843021F0923031F48230B9F18181882321
:101A100089F12DC011961C9111978230F1F08181CE
:101A20001817D9F412962D913C91139782819381C6
:101A30008217930794F028173907BCF014968D91FC
:101A40009D910D90BC91A02D2481358146815781B7
:101A5000281739074A075B0718F4112341F00AC019
:101A600082179307A407B50740F4112319F061E02A
:101A700070E005C06FEF7FEF02C060E070E0CB0167
:101A80001F91089597FB092E07260AD077FD04D0F1
:101A90002ED006D000201AF4709561957F4F0895DE
:101AA000F6F7909581959F4F0895A1E21A2EAA1BF3
:101AB000BB1BFD010DC0AA1FBB1FEE1FFF1FA217FE
:101AC000B307E407F50720F0A21BB30BE40BF50BFB
:101AD000661F771F881F991F1A9469F76095709584
:101AE000809590959B01AC01BD01CF010895AA1B83
:101AF000BB1B51E107C0AA1FBB1FA617B70710F0F9
:101B0000A61BB70B881F991F5A95A9F7809590952A
:101B1000BC01CD0108952F923F924F925F926F9238
:101B20007F928F929F92AF92BF92CF92DF92EF926D
:101B3000FF920F931F93CF93DF93CDB7DEB7CA1BEE
:101B4000DB0B0FB6F894DEBF0FBECDBF09942A8819
:101B5000398848885F846E847D848C849B84AA84C1
:101B6000B984C884DF80EE80FD800C811B81AA814E
:101B7000B981CE0FD11D0FB6F894DEBF0FBECDBF19
:081B8000ED010895F894FFCF78
:101B88003132333435363738392A3023128E6000F3
:101B980000010509003B00380035003200390036E5
:101BA80000330030003A003700340031003132335E
:101BB8004134353642373839432A3023440000004F
:061BC80000000000000017
:00000001FF
