:100000000C942A000C9447000C9447000C94470071
:100010000C9447000C947F0A0C9447000C94470002
:100020000C9447000C9447000C9447000C94C60AAB
:100030000C9447000C9447000C9447000C94470024
:100040000C9447000C9447000C9447000C94470014
:100050000C94470011241FBECFE5D8E0DEBFCDBF12
:1000600011E0A0E6B0E0EAE6FBE102C005900D92E7
:10007000A63BB107D9F711E0A6EBB1E001C01D9294
:10008000A83DB107E1F70E9496070C94B30D0C94BC
:100090000000EF92FF920F93DF93CF93CDB7DEB7BF
:1000A00060970FB6F894DEBF0FBECDBFA82F002318
:1000B00009F461C07E010894E11CF11C88E0F7019D
:1000C00011928A95E9F729833A834B835C836D8388
:1000D0007E83AF83988780E2801BE82FFF27E7FDB0
:1000E000F0954D815E816F817885181684F01D86AC
:1000F0001E861F86188A882799278E1B9F0B04C08F
:1001000076956795579547958A95D2F728C0202F01
:10011000332727FD3095DB01CA01022E04C0B695B6
:10012000A795979587950A94D2F78D879E87AF8775
:10013000B88B04C0440F551F661F771FEA95D2F78E
:1001400089819A81AB81BC8104C0B695A7959795AA
:1001500087952A95D2F7482B592B6A2B7B2B4987F9
:100160005A876B877C8729853A854B855C856D85A9
:100170007E85AF8598898A2F60960FB6F894DEBF8A
:100180000FBECDBFCF91DF910F91FF90EF900895FB
:10019000EF92FF920F931F937B018C0120E030E0E0
:1001A00040E05FE40E94740488238CF0C801B7012A
:1001B00020E030E040E05FE40E9440020E94D4046E
:1001C0009B01AC01205030404040504806C0C8015F
:1001D000B7010E94D4049B01AC01B901CA011F916F
:1001E0000F91FF90EF900895A0E0B0E0EAEFF0E00B
:1001F0000C944B0DDC012B01FA019C91923008F418
:1002000039C1EB018881823008F433C1943069F43C
:10021000843009F02FC111969C911197898198170C
:1002200009F428C1ADEAB0E025C1843009F421C148
:100230008230A9F4923009F01DC19A01AD0188E025
:10024000EA010990AE01E90109929E018150C1F7CE
:10025000E201898111969C918923818308C19230A2
:1002600009F407C112962D903C901397EB018A81F7
:100270009B811496AD90BD90CD90DC901797EC804B
:10028000FD800E811F819101281B390BB90137FFB9
:1002900004C066277727621B730B603271050CF070
:1002A00061C0121613066CF537014801062E04C012
:1002B00096948794779467940A94D2F721E030E07B
:1002C00040E050E004C0220F331F441F551F6A95C1
:1002D000D2F721503040404050402E213F21402352
:1002E0005123211531054105510521F021E030E070
:1002F00040E050E079018A01E628F7280829192909
:100300003CC0232BD1F1260E371E35014601062EA7
:1003100004C096948794779467940A94D2F721E066
:1003200030E040E050E004C0220F331F441F551F4F
:100330006A95D2F721503040404050402A213B215D
:100340004C215D21211531054105510521F021E0A8
:1003500030E040E050E059016A01A628B728C828DB
:10036000D9280BC0821593052CF01C01AA24BB24AC
:10037000650103C0EE24FF24870111969C91D201F0
:1003800011968C91981709F445C0992339F0A8016A
:1003900097012A193B094C095D0906C0A601950180
:1003A0002E193F09400B510B57FD08C011823382B3
:1003B000228224833583468357831DC081E0818355
:1003C0003382228288279927DC01821B930BA40B9E
:1003D000B50B84839583A683B7830DC0220F331F8B
:1003E000441F551F2483358346835783828193811D
:1003F0000197938382832481358146815781DA0175
:10040000C9010197A109B1098F5F9F4FAF4FBF434A
:1004100028F30BC0918333822282EA0CFB1C0C1D53
:100420001D1DE482F5820683178383E08083248187
:1004300035814681578157FF1AC0C901AA2797FD08
:10044000A095BA2F81709070A070B07056954795A6
:1004500037952795822B932BA42BB52B84839583DB
:10046000A683B78382819381019693838283DF0180
:1004700001C0D201CD01CDB7DEB7E2E10C94670D2A
:10048000A0E2B0E0E6E4F2E00C94570D69837A83D1
:100490008B839C832D833E834F835887E9E0EE2E28
:1004A000F12CEC0EFD1ECE010196B7010E94C5068F
:1004B0008E010F5E1F4FCE010596B8010E94C50642
:1004C0008A8991E089278A8BC701B801AE01475E0E
:1004D0005F4F0E94F4000E94F005A096E6E00C94A5
:1004E000730DA0E2B0E0E7E7F2E00C94570D6983EA
:1004F0007A838B839C832D833E834F835887F9E0D7
:10050000EF2EF12CEC0EFD1ECE010196B7010E94DC
:10051000C5068E010F5E1F4FCE010596B8010E94E1
:10052000C506C701B801AE01475E5F4F0E94F400E7
:100530000E94F005A096E6E00C94730DA0E2B0E0F6
:10054000E4EAF2E00C944B0D69837A838B839C83FD
:100550002D833E834F835887CE010196BE01675F8E
:100560007F4F0E94C506CE010596BE016F5E7F4F8C
:100570000E94C5069985923088F089898230C8F03A
:10058000943019F4823051F404C0843029F492304C
:1005900081F48DEA90E0C6C0923049F420E09A855B
:1005A0008A89981321E02A87CE010996BBC0823040
:1005B00049F420E09A858A89981321E02A8BCE019C
:1005C0004196B0C02D843E844F8458886D887E88C3
:1005D0008F88988CEE24FF248701AA24BB24650110
:1005E00040E050E060E070E0E0E0F0E0C1018170E8
:1005F0009070892BE9F0E60CF71C081D191D9A0173
:10060000AB012A0D3B1D4C1D5D1D80E090E0A0E07C
:10061000B0E0E614F7040805190520F481E090E045
:10062000A0E0B0E0BA01A901480F591F6A1F7B1F63
:10063000AA0CBB1CCC1CDD1C97FE08C081E090E01E
:10064000A0E0B0E0A82AB92ACA2ADB2A3196E03213
:10065000F10549F0660C771C881C991C5694479448
:1006600037942794C3CFFA85EA892B893C898B85F7
:100670009C85280F391F2E5F3F4F17C0CA0181701C
:100680009070892B61F016950795F794E79480E0B8
:1006900090E0A0E0B0E8E82AF92A0A2B1B2B769517
:1006A0006795579547952F5F3F4F77FDE7CF0CC074
:1006B000440F551F661F771F17FD4160EE0CFF1C8E
:1006C000001F111F21503040403090E0590790E04A
:1006D000690790E4790760F32B8F3C8FDB01CA0137
:1006E0008F779070A070B07080349105A105B1052E
:1006F00061F447FD0AC0E114F1040105110529F078
:10070000405C5F4F6F4F7F4F40781A8EFE1711F09D
:1007100081E08A8F4D8F5E8F6F8F78A383E0898F02
:10072000CE0149960E94F005A096E2E10C94670D77
:10073000A8E1B0E0EEE9F3E00C94530D69837A830D
:100740008B839C832D833E834F835887B9E0EB2EA8
:10075000F12CEC0EFD1ECE010196B7010E94C506DC
:100760008E010F5E1F4FCE010596B8010E94C5068F
:100770002985223008F47EC03989323010F4B8015E
:100780007CC08A859A8989278A87243011F0223093
:1007900031F4231709F06EC06DEA70E06EC034309A
:1007A00039F41D861E861F86188A1C861B8604C087
:1007B000323021F484E08987B7015FC02B853C8506
:1007C0008B899C89281B390B3C872B87ED84FE8401
:1007D0000F851889AD88BE88CF88D88CEA14FB04B1
:1007E0000C051D0540F4EE0CFF1C001F111F2150CD
:1007F00030403C872B8720E030E040E050E080E054
:1008000090E0A0E0B0E460E070E0EA14FB040C05C6
:100810001D0540F0282B392B4A2B5B2BEA18FB08CF
:100820000C091D09B695A79597958795EE0CFF1CA9
:10083000001F111F6F5F7F4F6F31710531F7DA01B4
:10084000C9018F779070A070B07080349105A105B8
:10085000B10561F427FD0AC0E114F1040105110599
:1008600029F0205C3F4F4F4F5F4F20782D873E8708
:100870004F87588BBE01675F7F4FCB010E94F00509
:100880006896EAE00C946F0DA8E1B0E0EAE4F4E0C9
:100890000C94570D69837A838B839C832D833E83CD
:1008A0004F83588789E0E82EF12CEC0EFD1ECE0117
:1008B0000196B7010E94C5068E010F5E1F4FCE0143
:1008C0000596B8010E94C5068985823040F0898965
:1008D000823028F0C701B8010E943D0701C08FEFA8
:1008E0006896E6E00C94730DA8E1B0E0EAE7F4E066
:1008F0000C94570D69837A838B839C832D833E836D
:100900004F83588789E0E82EF12CEC0EFD1ECE01B6
:100910000196B7010E94C5068E010F5E1F4FCE01E2
:100920000596B8010E94C5068985823040F0898904
:10093000823028F0C701B8010E943D0701C08FEF47
:100940006896E6E00C94730DA8E1B0E0EAEAF4E002
:100950000C94570D69837A838B839C832D833E830C
:100960004F83588789E0E82EF12CEC0EFD1ECE0156
:100970000196B7010E94C5068E010F5E1F4FCE0182
:100980000596B8010E94C5068985823040F08989A4
:10099000823028F0C701B8010E943D0701C081E004
:1009A0006896E6E00C94730DACE0B0E0EAEDF4E09C
:1009B0000C945B0D69837A838B839C83CE010196B3
:1009C000BE016B5F7F4F0E94C5068D81823061F151
:1009D000823050F1843021F48E81882351F12EC071
:1009E0002F81388537FD20C06E812F3131051CF0F5
:1009F0006623F9F023C08EE190E0821B930B2985DA
:100A00003A854B855C8504C0569547953795279563
:100A10008A95D2F76623B1F050954095309521958F
:100A20003F4F4F4F5F4F0EC020E030E040E050E0BE
:100A300009C02FEF3FEF4FEF5FE704C020E030E049
:100A400040E050E8B901CA012C96E2E00C94770D21
:100A5000A8E0B0E0EEE2F5E00C94530D7B018C01D0
:100A6000611571058105910519F482E0898360C0E3
:100A700083E089838EE1C82ED12CDC82CB82ED828B
:100A8000FE820F831887C801B7010E94A105FC01EF
:100A90003197F7FF3BC0222733272E1B3F0B57010F
:100AA0006801022E04C0D694C794B794A7940A9400
:100AB000D2F740E050E060E070E081E090E0A0E03C
:100AC000B0E004C0880F991FAA1FBB1F2A95D2F758
:100AD0000197A109B1098E219F21A023B12300977D
:100AE000A105B10521F041E050E060E070E04A2945
:100AF0005B296C297D294D835E836F8378878EE126
:100B000090E08E1B9F0B9C838B8312C0309781F0EB
:100B10000E2E04C0EE0CFF1C001F111F0A94D2F70A
:100B2000ED82FE820F831887CE1ADF0ADC82CB8229
:100B30001A82CE0101960E94F0052896EAE00C94F4
:100B40006F0DEF92FF920F931F937B018C0180E05A
:100B5000E81680E0F80681E0080780E0180788F4CE
:100B60008FEFE816F1040105110531F028F088E057
:100B700090E0A0E0B0E017C080E090E0A0E0B0E03E
:100B800012C080E0E81680E0F80680E0080781E007
:100B9000180728F088E190E0A0E0B0E004C080E110
:100BA00090E0A0E0B0E020E230E040E050E0281B20
:100BB000390B4A0B5B0B04C016950795F794E79425
:100BC0008A95D2F7F701EB54FF4F8081281B31093A
:100BD00041095109C9011F910F91FF90EF900895AC
:100BE000DF92EF92FF920F931F93FC01E480F58058
:100BF00006811781D1808081823048F480E090E0C6
:100C0000A0E1B0E0E82AF92A0A2B1B2BA5C084300A
:100C100009F49FC0823021F4EE24FF24870105C02F
:100C2000E114F1040105110519F4E0E0F0E096C0CB
:100C3000628173819FEF623879070CF05BC022E814
:100C40003FEF261B370B2A3131052CF020E030E036
:100C500040E050E02AC0B801A701022E04C07695FA
:100C60006795579547950A94D2F781E090E0A0E008
:100C7000B0E004C0880F991FAA1FBB1F2A95D2F7A6
:100C80000197A109B1098E219F21A023B1230097CB
:100C9000A105B10521F081E090E0A0E0B0E09A016B
:100CA000AB01282B392B4A2B5B2BDA01C9018F773B
:100CB0009070A070B07080349105A105B10539F431
:100CC00027FF09C0205C3F4F4F4F5F4F04C0215C9E
:100CD0003F4F4F4F5F4FE0E0F0E02030A0E03A0799
:100CE000A0E04A07A0E45A0710F0E1E0F0E0790143
:100CF0008A0127C06038710564F5FB01E158FF4F98
:100D0000D801C7018F779070A070B07080349105C2
:100D1000A105B10539F4E7FE0DC080E490E0A0E044
:100D2000B0E004C08FE390E0A0E0B0E0E80EF91E70
:100D30000A1F1B1F17FF05C016950795F794E79428
:100D4000319687E016950795F794E7948A95D1F741
:100D500005C0EE24FF248701EFEFF0E06E2F6795CA
:100D600066276795902F9F77D794DD24D7948E2F91
:100D70008695492F462B582F5D29B701CA011F912F
:100D80000F91FF90EF90DF900895FC01DB0140810F
:100D900051812281622F6F7770E0221F2227221F4C
:100DA0009381892F880F822B282F30E0991F992754
:100DB000991F11969C93119721153105A9F541159D
:100DC00051056105710511F482E037C082E89FEF9B
:100DD00013969C938E9312979A01AB0167E0220FB2
:100DE000331F441F551F6A95D1F783E08C930DC0C4
:100DF000220F331F441F551F12968D919C911397FC
:100E0000019713969C938E931297203080E03807B9
:100E100080E0480780E4580758F314962D933D93DB
:100E20004D935C93179708952F3F310579F4411541
:100E300051056105710519F484E08C93089564FFF0
:100E400003C081E08C9312C01C9210C02F57304019
:100E500013963C932E93129783E08C9387E0440F74
:100E6000551F661F771F8A95D1F7706414964D93AE
:100E70005D936D937C93179708951F93DC01FB019D
:100E80009C91923008F447C08081823008F443C0BE
:100E9000943051F411961C91843099F58181682F1A
:100EA00070E0611B71093FC0843021F0923031F451
:100EB0008230B9F18181882389F12DC011961C916E
:100EC00011978230F1F081811817D9F412962D9183
:100ED0003C911397828193818217930794F028178E
:100EE0003907BCF014968D919D910D90BC91A02D69
:100EF0002481358146815781281739074A075B07C6
:100F000018F4112341F00AC082179307A407B5070C
:100F100040F4112319F061E070E005C06FEF7FEF3E
:100F200002C060E070E0CB011F910895EF920F9333
:100F30001F93CF93DF9380E690E00E94870C80910F
:100F4000B6010E9488098091650042E350E060E0AC
:100F500070E00E94D2098093C701C8ECD0E080E61F
:100F600090E00E94820C8091B6010E947409A0E07A
:100F7000B0E08093C2019093C301A093C401B093E9
:100F8000C501BC01CD012FEF30E040E050E00E94F0
:100F9000E30C2FEF33E040E050E00E94290D209356
:100FA000C6018091C701622F0E94A10980E690E0EE
:100FB00065E041E00E94740C03B780E690E010E029
:100FC00020E030E040E050E060E070E0EAE0EE2E4B
:100FD0000E944F0C88EE93E0FE013197F1F70197E4
:100FE000D9F7BDCF0F931F93E82F10E001C01F5F0B
:100FF0008E2F01E00E944900E82F822F832B842B43
:10100000852B862B872B8E2B892B89F7812F1F9180
:101010000F910895382F3695369537708370E82FE5
:10102000F0E0662391F0EE0FFF1FEA59FF4F0190A9
:10103000F081E02D208181E090E002C0880F991FAF
:101040003A95E2F7282B20830895EE0FFF1FEA5907
:10105000FF4F0190F081E02D208181E090E002C0FF
:10106000880F991F3A95E2F780958223808308952F
:10107000582F782F7370382F369536953770E72FA5
:10108000F0E0662399F0EE0FFF1FEA58FF4F019042
:10109000F081E02D208181E090E0032E02C0880FD6
:1010A000991F0A94E2F7282B208313C0EE0FFF1F2D
:1010B000EA58FF4F0190F081E02D208181E090E01F
:1010C000032E02C0880F991F0A94E2F780958223AD
:1010D0008083852F8C7F872B3770330F330F837E70
:1010E000832B642F0E940A08089540E0662309F4C8
:1010F00041E00E9438080895CF93DF93982F96958A
:1011000096959770382F3295369537708370E82F03
:10111000F0E0C92FD0E06623E9F0EE0FFF1FEA5997
:10112000FF4F0190F081E02D2081BE016F5F7F4F66
:1011300081E090E00E94160D02C0880F991FCA95A9
:10114000E2F7019702C0880F991F3A95E2F7282B22
:1011500020831DC0EE0FFF1FEA59FF4F0190F08161
:10116000E02D2081BE016F5F7F4F81E090E00E9403
:10117000160D02C0880F991FCA95E2F7019702C0A9
:10118000880F991F3A95E2F7809582238083DF913B
:10119000CF910895FF920F931F93CF93DF93382F32
:1011A000F62E082F0370482F469546954770182F46
:1011B000129516951770E02FF0E0C42FD0E066234B
:1011C000F9F0EE0FFF1FEA58FF4F0190F081E02D7C
:1011D0002081BE016F5F7F4F81E090E00E94160D7D
:1011E000042E02C0880F991F0A94E2F70197012E7E
:1011F00002C0880F991F0A94E2F7282B20831FC092
:10120000EE0FFF1FEA58FF4F0190F081E02D208183
:10121000BE016F5F7F4F81E090E00E94160D042EAB
:1012200002C0880F991F0A94E2F70197012E02C0AD
:10123000880F991F0A94E2F78095822380833C7F70
:10124000302B4770440F440F337E342B1295110F0F
:10125000107E3F71312B60E0FF2009F461E0832FA5
:101260000E947C08DF91CF911F910F91FF9008950C
:10127000FF920F931F93482F062FE82FE370F0E0A3
:10128000EE0FFF1FEA59FF4F0190F081E02DF08033
:1012900046954695242F277030E0B9016F5F7F4F48
:1012A00081E090E00E94160D02C0880F991F2A95D8
:1012B000E2F701974695469546959C01042E02C09B
:1012C000220F331F0A94E2F720952F2110E080238C
:1012D000912302C0880F991F4A95E2F7282B20839B
:1012E0001F910F91FF900895982F9695969597705E
:1012F000837069F487B1807E892B87B93498369AD8
:10130000349BFECF349A24B135B1C90108950895B4
:10131000982F8370A9F4892F60E040E00E9438087C
:101320008091B701882361F481E08093B701379AF7
:1013300086B1876086B987B18F73806487B93D981D
:1013400008950F931F93082F10E0F801EE0FFF1F71
:10135000DF01A854BE4F8AE990E08D939C932FEF54
:1013600030E08AE9689FC00111246FEF70E00E94AD
:10137000020D3196AEE7B0E0EE0FFF1FEA0FFB1F44
:1013800070E0261B370B31832083000F111F000FE5
:10139000111FA00FB11F6B597F4F6D937C931F914D
:1013A0000F9108957F928F929F92AF92BF92CF92AA
:1013B000DF92EF92FF920F931F93CF93DF93982FBB
:1013C0006A017B0183B7882311F4772408C085B5AF
:1013D000882319F077247A9483C077247394C72DD7
:1013E000D0E0FE01E254FE4F9083892F61E00E941D
:1013F0007508C114D104E104F10411F411E031C005
:1014000060E072E18AE790E0A70196010E94290D51
:1014100049015A01A50160E070E080E090E008E039
:101420000E9449000E94F207E0E08110E1E08E0F87
:101430008B3008F08AE0E82FF0E0EA57FF4F108188
:10144000E12FF0E0EE0FFF1FE157FF4F9401A501E0
:1014500060E070E080E090E000810E94490022504E
:1014600009F42FEFAE01440F551FFA01E556FF4F67
:101470000190F081E02D17708081887F812B80831F
:10148000DA01A854BE4F2C9311961C9280818F7B59
:1014900080838081877F808380818F7C808380812F
:1014A0008F7C808369B74C0F5D1F440F551F81E00F
:1014B00090E09C01042E02C0220F331F0A94E2F731
:1014C000622B69BF29B74F5F5F4F02C0880F991F1A
:1014D0004A95E2F78095822389BF8FB780688FBFD6
:1014E000872DDF91CF911F910F91FF90EF90DF90AB
:1014F000CF90BF90AF909F908F907F9008951F9254
:101500000F920FB60F9211242F933F934F935F9337
:101510006F937F938F939F93AF93BF93EF93FF93BB
:101520008091BD0191E089278093BD01E091BD01CB
:10153000F0E0EE0FFF1FEE57FF4F808191819093F7
:10154000C1018093C0018091C0019091C1018F3F82
:10155000910559F08091C0019091C10184BD6091C5
:10156000BD018091BF010E940A08FF91EF91BF91D8
:10157000AF919F918F917F916F915F914F913F912B
:101580002F910F900FBE0F901F9018951F920F92E2
:101590000FB60F9211242F933F934F935F936F9346
:1015A0007F938F939F93AF93BF93EF93FF9380911C
:1015B000BC0191E089278093BC01E091BC01F0E07F
:1015C000EE0FFF1FE258FF4F808191819093C10180
:1015D0008093C0018091C0019091C1018F3F91051E
:1015E00059F08091C0019091C10182BF6091BC010E
:1015F0008091BE010E940A08FF91EF91BF91AF91C7
:101600009F918F917F916F915F914F913F912F911A
:101610000F900FBE0F901F9018952F923F924F92F0
:101620005F926F927F928F929F92AF92BF92CF9272
:10163000DF92EF92FF920F931F93CF93DF93EC0112
:101640007B018B8161E00E940A0800E010E0C80184
:10165000B7010E9428051B012C012BEA3AEA4AE255
:1016600050E40E949E023B014C0120E030E040E843
:101670005FE30E94A404882314F461E054C0C40111
:10168000B30120E030E04FE753E40E944404181611
:101690000CF045C0C201B10120E030E04AE754E45B
:1016A0000E9498035B016C0120E030E04AEF54E4B3
:1016B0000E949E027B018C0120E030E040E85FE365
:1016C0000E94A40488231CF461E070E024C0C801D7
:1016D000B70120E03FEF4FE757E40E94440418169B
:1016E000B4F4C601B50120E030E040E251E40E94CC
:1016F0009E020E94C80088EC90E005C0FC01319772
:10170000F1F76150704061157105C1F70EC0C80155
:10171000B7010E94C800CB010197F1F706C0C401D0
:10172000B3010E94C8006A95F1F78B8160E00E94C6
:101730000A08C401B30120E030E040E85FE30E9402
:10174000A404882314F461E054C0C401B30120E070
:1017500030E04FE753E40E94440418160CF045C0F3
:10176000C201B10120E030E04AE754E40E9498034E
:101770005B016C0120E030E04AEF54E40E949E02DD
:101780007B018C0120E030E040E85FE30E94A4048C
:1017900088231CF461E070E024C0C801B70120E098
:1017A0003FEF4FE757E40E9444041816B4F4C60113
:1017B000B50120E030E040E251E40E949E020E9428
:1017C000C80088EC90E005C0FC013197F1F761504A
:1017D000704061157105C1F70EC0C801B7010E94C4
:1017E000C800CB010197F1F706C0C401B3010E9404
:1017F000C8006A95F1F7DF91CF911F910F91FF908B
:10180000EF90DF90CF90BF90AF909F908F907F90A0
:101810006F905F904F903F902F9008951F93CF93BC
:10182000DF93EC01142F89810E940A088A8160E00D
:101830000E940A088C81813059F0612F62956F7087
:1018400088810E943809CE0164EF71E00E940D0B7F
:101850008881612F0E943809CE0160ED77E00E94F7
:101860000D0BDF91CF911F9108950F931F93CF938D
:10187000DF938C01EB016115710561F0888188238C
:1018800031F408C02196C80161E00E940E0C488125
:101890004423C1F7DF91CF911F910F910895CF920B
:1018A000DF92EF92FF920F931F936C014E2D88EC05
:1018B000E82E81E0F82EC801B70150E00E94820DA9
:1018C000C601B7010E94350C1F910F91FF90EF9058
:1018D000DF90CF900895662311F448E001C04EE0F8
:1018E00060E00E940E0C0895603158F4423048F4D4
:1018F0004295440F440F407C460F406860E00E94D0
:101900000E0C089560E041E00E940E0C0895CF9304
:10191000DF93EC019881892F8C7129F49F71988352
:1019200081E08C8304C0937E906198831C828981BE
:1019300061E00E9475088A8161E00E9475088B81D0
:1019400061E00E947508888161E00E94CA0880E613
:101950009AEE0197F1F7898160E00E940A088A8176
:1019600060E00E940A088C81813019F488816CE360
:1019700014C0888162E00E943809CE0164EF71E0F2
:101980000E940D0B888162E00E943809CE0164EF4D
:1019900071E00E940D0B88816CE00E943809CE0135
:1019A00060ED77E00E940D0BCE0161E00E946B0CB0
:1019B000CE010E94820CCE0160E046E00E940E0C37
:1019C000DF91CF910895629FD001739FF001829FB4
:1019D000E00DF11D649FE00DF11D929FF00D839FBE
:1019E000F00D749FF00D659FF00D9927729FB00D5B
:1019F000E11DF91F639FB00DE11DF91FBD01CF016E
:101A000011240895AA1BBB1B51E107C0AA1FBB1FCD
:101A1000A617B70710F0A61BB70B881F991F5A957A
:101A2000A9F780959095BC01CD01089597FB092EEB
:101A300007260AD077FD04D0E5DF06D000201AF48F
:101A4000709561957F4F0895F6F7909581959F4F1A
:101A50000895A1E21A2EAA1BBB1BFD010DC0AA1FEF
:101A6000BB1FEE1FFF1FA217B307E407F50720F007
:101A7000A21BB30BE40BF50B661F771F881F991F82
:101A80001A9469F760957095809590959B01AC01CB
:101A9000BD01CF0108952F923F924F925F926F92B6
:101AA0007F928F929F92AF92BF92CF92DF92EF92EE
:101AB000FF920F931F93CF93DF93CDB7DEB7CA1B6F
:101AC000DB0B0FB6F894DEBF0FBECDBF09942A889A
:101AD000398848885F846E847D848C849B84AA8442
:101AE000B984C884DF80EE80FD800C811B81AA81CF
:101AF000B981CE0FD11D0FB6F894DEBF0FBECDBF9A
:101B0000ED010895FB019F01E8944230C4F0453295
:101B1000B4F44A3029F497FB1EF4909581959F4FB9
:101B2000642F77270E94020D805D8A330CF0895D57
:101B30008193CB010097A1F716F45DE251931082D7
:101B4000C9010C94A30DDC01FC01672F719177236F
:101B5000E1F7329704C07C916D9370836291AE1768
:0A1B6000BF07C8F30895F894FFCF03
:101B6A000203070B000F3B00380035003200390032
:101B7A003600330030003A003700340031004D009F
:101B8A004D000000000001020202030303040405E1
:101B9A000500000300060008000A00530045000D76
:101BAA001F5C004300171348004A000406000000A7
:101BBA0000000000000001020203030303040404FE
:101BCA0004040404040505050505050505050505C0
:101BDA0005050505050606060606060606060606A0
:101BEA00060606060606060606060606060606068B
:101BFA000606060606070707070707070707070770
:101C0A00070707070707070707070707070707075A
:101C1A00070707070707070707070707070707074A
:101C2A00070707070707070707070707070707073A
:101C3A00070707070708080808080808080808081F
:101C4A00080808080808080808080808080808080A
:101C5A0008080808080808080808080808080808FA
:101C6A0008080808080808080808080808080808EA
:101C7A0008080808080808080808080808080808DA
:101C8A0008080808080808080808080808080808CA
:101C9A0008080808080808080808080808080808BA
:101CAA0008080808080808080808080808080808AA
:061CBA00080808080800FC
:00000001FF
