:100000000C942A000C943F000C943F000C943F0089
:100010000C943F000C943F000C943F000C943F0064
:100020000C943F000C943F000C943F000C943F0054
:100030000C943F000C943F000C943F000C943F0044
:100040000C943F000C943F000C943F000C943F0034
:100050000C943F0011241FBECFE5D8E0DEBFCDBF1A
:1000600011E0A0E6B0E0EEEEF5E102C005900D92E1
:10007000AA38B107D9F70E9441000C94F50A0C94F4
:100080000000CF93DF9380E690E00E94B10380E10F
:1000900097E228EC30E0F9013197F1F70197D9F7B1
:1000A000C8ECD0E080E690E040E050E064E373E428
:1000B0000E94680380E197E2FE013197F1F7019712
:1000C000D9F780E690E040E050E064E373EC0E94F2
:1000D000680380E197E2FE013197F1F70197D9F7C4
:1000E000E1CF282FE82FE370F0E0EE0FFF1FEE586E
:1000F000FF4F0190F081E02D808190E026952695BC
:10010000277002C0959587952A95E2F7817008952A
:10011000382F3695369537708370E82FF0E06623D8
:1001200091F0EE0FFF1FE659FF4F0190F081E02D97
:10013000208181E090E002C0880F991F3A95E2F794
:10014000282B20830895EE0FFF1FE659FF4F0190E3
:10015000F081E02D208181E090E002C0880F991F9E
:100160003A95E2F78095822380830895482F762F71
:10017000582F5370382F369536953770E52FF0E0AD
:10018000662399F0EE0FFF1FE658FF4F0190F081B4
:10019000E02D208181E090E0032E02C0880F991F9E
:1001A0000A94E2F7282B208313C0EE0FFF1FE658B6
:1001B000FF4F0190F081E02D208181E090E0032E3F
:1001C00002C0880F991F0A94E2F7809582238083EA
:1001D0004C7F452B3770330F330F437E432B60E04A
:1001E000772309F461E0842F0E9488000895E82FA6
:1001F000E370F0E0EE0FFF1FE659FF4F0190F08132
:10020000E02D908186958695877021E030E002C0D0
:10021000220F331F8A95E2F7922790830895482F83
:10022000E82FE370F0E0EE0FFF1FEE58FF4F019054
:10023000F081E02DE08146954695242F277030E02F
:10024000B9016F5F7F4F81E090E00E94970A02C082
:10025000880F991F2A95E2F78150F0E04695469560
:10026000469502C0F595E7954A95E2F78E230895E5
:10027000CF93DF93982F969596959770382F329558
:10028000369537708370E82FF0E0C92FD0E06623F1
:10029000E9F0EE0FFF1FE659FF4F0190F081E02DCE
:1002A0002081BE016F5F7F4F81E090E00E94970A3E
:1002B00002C0880F991FCA95E2F7019702C0880F04
:1002C000991F3A95E2F7282B20831DC0EE0FFF1FE0
:1002D000E659FF4F0190F081E02D2081BE016F5F54
:1002E0007F4F81E090E00E94970A02C0880F991F1B
:1002F000CA95E2F7019702C0880F991F3A95E2F775
:10030000809582238083DF91CF910895FF920F9390
:100310001F93CF93DF93382FF62E082F0370482FAB
:10032000469546954770182F129516951770E02F31
:10033000F0E0C42FD0E06623F9F0EE0FFF1FE6587F
:10034000FF4F0190F081E02D2081BE016F5F7F4F54
:1003500081E090E00E94970A042E02C0880F991F46
:100360000A94E2F70197012E02C0880F991F0A94A0
:10037000E2F7282B20831FC0EE0FFF1FE658FF4F28
:100380000190F081E02D2081BE016F5F7F4F81E001
:1003900090E00E94970A042E02C0880F991F0A94C9
:1003A000E2F70197012E02C0880F991F0A94E2F725
:1003B0008095822380833C7F302B4770440F440F0D
:1003C000337E342B1295110F107E3F71312B60E07C
:1003D000FF2009F461E0832F0E943801DF91CF9163
:1003E0001F910F91FF900895FF920F931F93482F35
:1003F000062FE82FE370F0E0EE0FFF1FE659FF4FE6
:100400000190F081E02DF08046954695242F2770CD
:1004100030E0B9016F5F7F4F81E090E00E94970A62
:1004200002C0880F991F2A95E2F7019746954695D5
:1004300046959C01042E02C0220F331F0A94E2F756
:1004400020952F2110E08023912302C0880F991F4F
:100450004A95E2F7282B20831F910F91FF90089572
:10046000EF92FF920F931F93182FE62EB3E0FB2E0F
:10047000F822082F069506950770129516951770A5
:10048000EF2DF0E0EE0FFF1FE658FF4F0190F081D7
:10049000E02D4081202F30E0B9016F5F7F4F81E078
:1004A00090E00E94970A002E02C0880F991F0A94BC
:1004B000E2F701979C01012E02C0220F331F0A941C
:1004C000E2F7209524234E2D50E084239523012E1E
:1004D00002C0880F991F0A94E2F7282B2083000F8F
:1004E000000F1295110F107EF02AE0948F2D812BB2
:1004F0006E2D0E94F4011F910F91FF90EF900895CF
:100500001F93CF93DF93EC01662339F4898590E044
:100510000396182F1370029708C06130B9F58985CA
:1005200090E00196182F1370029683709C81992396
:1005300019F0913059F50AC0FE01E10FF11D81E07B
:100540008583808161E00E94880010C0FE01E80F71
:10055000F11D8581813021F41582808160E014C015
:10056000FE01E10FF11D8581813059F48985FE017D
:10057000E80FF11D1582808160E00E9488001987D4
:1005800005C09583808161E00E948800DF91CF9152
:100590001F9108952F923F924F925F926F927F9298
:1005A0008F929F92AF92BF92CF92DF92EF92FF9283
:1005B0000F931F93DF93CF9300D00F92CDB7DEB789
:1005C0009B838A83698319012A01C801B70120E04E
:1005D00030E048EC52E40E946007181654F40F2EE5
:1005E000F0E0EF2EF0E0FF2EF8EC0F2FF2E41F2FDB
:1005F000F02D60E070E08AE794E4A80197010E9482
:10060000B4063B014C01AA24BB24650145C08A8184
:100610009B8169810E948002C401B30120E030E027
:100620004AEF54E40E94BA057B018C0120E030E0DF
:1006300040E85FE30E94C00788231CF461E070E09B
:1006400023C0C801B70120E03FEF4FE757E40E9405
:1006500060071816ACF4C401B30120E030E040E2BA
:1006600051E40E94BA050E94E40306C088EC90E0C1
:100670000197F1F76150704061157105B9F707C036
:10068000C801B7010E94E403CB010197F1F7089478
:10069000A11CB11CC11CD11CA214B304C404D504F8
:1006A00008F4B5CF0F900F900F90CF91DF911F916D
:1006B0000F91FF90EF90DF90CF90BF90AF909F9001
:1006C0008F907F906F905F904F903F902F90089504
:1006D000DF92EF92FF920F931F93CF93DF93EC0182
:1006E0007A018B01DD24CB01BA0120E030E040E04B
:1006F00050E00E949007882314F0DD24D394E894FE
:1007000017F96C8170E06F5F7F4F882777FD8095C8
:10071000982F0E94F0079B01AC01C801B7010E940D
:10072000BA0520E030E044E35EE30E94B4060E9494
:10073000E4039B01AC01CE016D2D0F2EF0E0EF2EF6
:10074000F0E0FF2EF8EC0F2FF2E41F2FF02D0E94A7
:10075000CA02DF91CF911F910F91FF90EF90DF9030
:100760000895CF92DF92EF92FF920F931F93CF9352
:10077000DF93EC01198681E08D831E821F8218862B
:100780006E01EE24FF248E010E0D1F1DF8018081E5
:1007900061E00E94B600F8018081F60165810E9447
:1007A00088000894E11CF11C0894C11CD11CF4E0E1
:1007B000EF16F10441F7DF91CF911F910F91FF9058
:1007C000EF90DF90CF900895EF92FF920F931F93D9
:1007D0007B018C0120E030E040E05FE40E94900764
:1007E00088238CF0C801B70120E030E040E05FE4EE
:1007F0000E945C050E944E089B01AC0120503040D5
:100800004040504806C0C801B7010E944E089B01F5
:10081000AC01B901CA011F910F91FF90EF900895AB
:10082000A0E0B0E0E6E1F4E00C94BE0ADC012B01AC
:10083000FA019C91923008F439C1EB018881823031
:1008400008F433C1943069F4843009F02FC1119653
:100850009C9111978981981709F428C1A2E8B0E00A
:1008600025C1843009F421C18230A9F4923009F005
:100870001DC19A01AD0188E0EA010990AE01E901CC
:1008800009929E018150C1F7E201898111969C91E4
:100890008923818308C1923009F407C112962D90F3
:1008A0003C901397EB018A819B811496AD90BD908B
:1008B000CD90DC901797EC80FD800E811F81910117
:1008C000281B390BB90137FF04C066277727621B45
:1008D000730B603271050CF061C0121613066CF5D3
:1008E00037014801062E04C0969487947794679444
:1008F0000A94D2F721E030E040E050E004C0220F3B
:10090000331F441F551F6A95D2F721503040404095
:1009100050402E213F21402351232115310541050F
:10092000510521F021E030E040E050E079018A01FA
:10093000E628F728082919293CC0232BD1F1260ED7
:10094000371E35014601062E04C09694879477948D
:1009500067940A94D2F721E030E040E050E004C010
:10096000220F331F441F551F6A95D2F72150304084
:10097000404050402A213B214C215D212115310569
:100980004105510521F021E030E040E050E05901FF
:100990006A01A628B728C828D9280BC08215930554
:1009A0002CF01C01AA24BB24650103C0EE24FF2403
:1009B000870111969C91D20111968C91981709F498
:1009C00045C0992339F0A80197012A193B094C0920
:1009D0005D0906C0A60195012E193F09400B510B78
:1009E00057FD08C0118233822282248335834683D7
:1009F00057831DC081E08183338222828827992713
:100A0000DC01821B930BA40BB50B84839583A68317
:100A1000B7830DC0220F331F441F551F2483358316
:100A200046835783828193810197938382832481B4
:100A3000358146815781DA01C9010197A109B109C0
:100A40008F5F9F4FAF4FBF4328F30BC0918333821B
:100A50002282EA0CFB1C0C1D1D1DE482F58206831C
:100A6000178383E08083248135814681578157FF36
:100A70001AC0C901AA2797FDA095BA2F817090705E
:100A8000A070B0705695479537952795822B932B7C
:100A9000A42BB52B84839583A683B783828193810E
:100AA000019693838283DF0101C0D201CD01CDB7CE
:100AB000DEB7E2E10C94DA0AA0E2B0E0E2E6F5E0AB
:100AC0000C94CA0A69837A838B839C832D833E832B
:100AD0004F835887E9E0EE2EF12CEC0EFD1ECE017F
:100AE0000196B7010E94C6098E010F5E1F4FCE010D
:100AF0000596B8010E94C6098A8991E089278A8BE8
:100B0000C701B801AE01475E5F4F0E9410040E940A
:100B1000F108A096E6E00C94E60AA0E2B0E0E3E972
:100B2000F5E00C94CA0A69837A838B839C832D83B6
:100B30003E834F835887F9E0EF2EF12CEC0EFD1E1B
:100B4000CE010196B7010E94C6098E010F5E1F4FAC
:100B5000CE010596B8010E94C609C701B801AE01D1
:100B6000475E5F4F0E9410040E94F108A096E6E0E5
:100B70000C94E60AA0E2B0E0E0ECF5E00C94BE0ACA
:100B800069837A838B839C832D833E834F8358872D
:100B9000CE010196BE01675F7F4F0E94C609CE015C
:100BA0000596BE016F5E7F4F0E94C60999859230FF
:100BB00088F089898230C8F0943019F4823051F479
:100BC00004C0843029F4923081F482E890E0C6C0F9
:100BD000923049F420E09A858A89981321E02A8787
:100BE000CE010996BBC0823049F420E09A858A89FB
:100BF000981321E02A8BCE014196B0C02D843E840B
:100C00004F8458886D887E888F88988CEE24FF24C6
:100C10008701AA24BB24650140E050E060E070E059
:100C2000E0E0F0E0C10181709070892BE9F0E60C02
:100C3000F71C081D191D9A01AB012A0D3B1D4C1D07
:100C40005D1D80E090E0A0E0B0E0E614F704080548
:100C5000190520F481E090E0A0E0B0E0BA01A9011C
:100C6000480F591F6A1F7B1FAA0CBB1CCC1CDD1C24
:100C700097FE08C081E090E0A0E0B0E0A82AB92A81
:100C8000CA2ADB2A3196E032F10549F0660C771C5E
:100C9000881C991C5694479437942794C3CFFA859F
:100CA000EA892B893C898B859C85280F391F2E5F0B
:100CB0003F4F17C0CA0181709070892B61F0169563
:100CC0000795F794E79480E090E0A0E0B0E8E82A88
:100CD000F92A0A2B1B2B76956795579547952F5F19
:100CE0003F4F77FDE7CF0CC0440F551F661F771F9E
:100CF00017FD4160EE0CFF1C001F111F21503040FA
:100D0000403090E0590790E0690790E4790760F37C
:100D10002B8F3C8FDB01CA018F779070A070B07071
:100D200080349105A105B10561F447FD0AC0E114C5
:100D3000F1040105110529F0405C5F4F6F4F7F4FB3
:100D400040781A8EFE1711F081E08A8F4D8F5E8FEA
:100D50006F8F78A383E0898FCE0149960E94F108B6
:100D6000A096E2E10C94DA0AA8E1B0E0EAEBF6E042
:100D70000C94C60A69837A838B839C832D833E837C
:100D80004F835887B9E0EB2EF12CEC0EFD1ECE01FF
:100D90000196B7010E94C6098E010F5E1F4FCE015A
:100DA0000596B8010E94C6092985223008F47EC044
:100DB0003989323010F4B8017CC08A859A89892734
:100DC0008A87243011F0223031F4231709F06EC0E5
:100DD00062E870E06EC0343039F41D861E861F86CE
:100DE000188A1C861B8604C0323021F484E089876F
:100DF000B7015FC02B853C858B899C89281B390BEB
:100E00003C872B87ED84FE840F851889AD88BE88CA
:100E1000CF88D88CEA14FB040C051D0540F4EE0CB9
:100E2000FF1C001F111F215030403C872B8720E002
:100E300030E040E050E080E090E0A0E0B0E460E02E
:100E400070E0EA14FB040C051D0540F0282B392B3B
:100E50004A2B5B2BEA18FB080C091D09B695A795D0
:100E600097958795EE0CFF1C001F111F6F5F7F4F3A
:100E70006F31710531F7DA01C9018F779070A07079
:100E8000B07080349105A105B10561F427FD0AC059
:100E9000E114F1040105110529F0205C3F4F4F4F8B
:100EA0005F4F20782D873E874F87588BBE01675F45
:100EB0007F4FCB010E94F1086896EAE00C94E20AA9
:100EC000A8E1B0E0E6E6F7E00C94CA0A69837A8309
:100ED0008B839C832D833E834F83588789E0E82E44
:100EE000F12CEC0EFD1ECE010196B7010E94C60941
:100EF0008E010F5E1F4FCE010596B8010E94C609F4
:100F00008985823040F08989823028F0C701B80194
:100F10000E943E0A01C08FEF6896E6E00C94E60A54
:100F2000A8E1B0E0E6E9F7E00C94CA0A69837A83A5
:100F30008B839C832D833E834F83588789E0E82EE3
:100F4000F12CEC0EFD1ECE010196B7010E94C609E0
:100F50008E010F5E1F4FCE010596B8010E94C60993
:100F60008985823040F08989823028F0C701B80134
:100F70000E943E0A01C08FEF6896E6E00C94E60AF4
:100F8000A8E1B0E0E6ECF7E00C94CA0A69837A8342
:100F90008B839C832D833E834F83588789E0E82E83
:100FA000F12CEC0EFD1ECE010196B7010E94C60980
:100FB0008E010F5E1F4FCE010596B8010E94C60933
:100FC0008985823040F08989823028F0C701B801D4
:100FD0000E943E0A01C081E06896E6E00C94E60AB1
:100FE000A8E0B0E0E6EFF7E00C94C70A9B01AC0183
:100FF00083E08983DA01C9018827B7FD83959927A2
:10100000AA27BB27B82E211531054105510519F432
:1010100082E089833AC08823A9F0203080E0380735
:1010200080E0480780E8580729F460E070E080E03D
:101030009FEC30C0EE24FF248701E21AF30A040B70
:10104000150B02C079018A018EE1C82ED12CDC82F9
:10105000CB82ED82FE820F831887C801B7010E9400
:10106000A20801971816190684F4082E04C0EE0C85
:10107000FF1C001F111F0A94D2F7ED82FE820F831E
:101080001887C81AD90ADC82CB82BA82CE010196AF
:101090000E94F1082896E9E00C94E30AACE0B0E085
:1010A000E4E5F8E00C94CE0A69837A838B839C8311
:1010B000CE010196BE016B5F7F4F0E94C6098D81F4
:1010C000823061F1823050F1843021F48E818823A6
:1010D00051F12EC02F81388537FD20C06E812F3110
:1010E00031051CF06623F9F023C08EE190E0821BED
:1010F000930B29853A854B855C8504C056954795A9
:10110000379527958A95D2F76623B1F0509540958B
:10111000309521953F4F4F4F5F4F0EC020E030E09C
:1011200040E050E009C02FEF3FEF4FEF5FE704C012
:1011300020E030E040E050E8B901CA012C96E2E03E
:101140000C94EA0AEF92FF920F931F937B018C019C
:1011500080E0E81680E0F80681E0080780E01807E4
:1011600088F48FEFE816F1040105110531F028F03D
:1011700088E090E0A0E0B0E017C080E090E0A0E060
:10118000B0E012C080E0E81680E0F80680E00807D2
:1011900081E0180728F088E190E0A0E0B0E004C00A
:1011A00080E190E0A0E0B0E020E230E040E050E0FC
:1011B000281B390B4A0B5B0B04C016950795F79457
:1011C000E7948A95D2F7F701E657FF4F8081281BF5
:1011D000310941095109C9011F910F91FF90EF9009
:1011E0000895DF92EF92FF920F931F93FC01E4802A
:1011F000F58006811781D1808081823048F480E0BB
:1012000090E0A0E1B0E0E82AF92A0A2B1B2BA5C048
:10121000843009F49FC0823021F4EE24FF2487013A
:1012200005C0E114F1040105110519F4E0E0F0E056
:1012300096C0628173819FEF623879070CF05BC0C2
:1012400022E83FEF261B370B2A3131052CF020E036
:1012500030E040E050E02AC0B801A701022E04C0EF
:1012600076956795579547950A94D2F781E090E077
:10127000A0E0B0E004C0880F991FAA1FBB1F2A95E9
:10128000D2F70197A109B1098E219F21A023B12393
:101290000097A105B10521F081E090E0A0E0B0E069
:1012A0009A01AB01282B392B4A2B5B2BDA01C901A0
:1012B0008F779070A070B07080349105A105B10552
:1012C00039F427FF09C0205C3F4F4F4F5F4F04C0E8
:1012D000215C3F4F4F4F5F4FE0E0F0E02030A0E057
:1012E0003A07A0E04A07A0E45A0710F0E1E0F0E076
:1012F00079018A0127C06038710564F5FB01E15866
:10130000FF4FD801C7018F779070A070B070803404
:101310009105A105B10539F4E7FE0DC080E490E028
:10132000A0E0B0E004C08FE390E0A0E0B0E0E80E01
:10133000F91E0A1F1B1F17FF05C016950795F79486
:10134000E794319687E016950795F794E7948A9588
:10135000D1F705C0EE24FF248701EFEFF0E06E2FF8
:10136000679566276795902F9F77D794DD24D7944C
:101370008E2F8695492F462B582F5D29B701CA011C
:101380001F910F91FF90EF90DF900895FC01DB011A
:10139000408151812281622F6F7770E0221F2227C6
:1013A000221F9381892F880F822B282F30E0991FCD
:1013B0009927991F11969C93119721153105A9F52D
:1013C000411551056105710511F482E037C082E8CD
:1013D0009FEF13969C938E9312979A01AB0167E04F
:1013E000220F331F441F551F6A95D1F783E08C935A
:1013F0000DC0220F331F441F551F12968D919C91D3
:101400001397019713969C938E931297203080E048
:10141000380780E0480780E4580758F314962D9366
:101420003D934D935C93179708952F3F310579F4C1
:10143000411551056105710519F484E08C930895F7
:1014400064FF03C081E08C9312C01C9210C02F5720
:10145000304013963C932E93129783E08C9387E051
:10146000440F551F661F771F8A95D1F77064149635
:101470004D935D936D937C93179708951F93DC01B3
:10148000FB019C91923008F447C08081823008F4BF
:1014900043C0943051F411961C91843099F58181A8
:1014A000682F70E0611B71093FC0843021F09230D9
:1014B00031F48230B9F18181882389F12DC01196F0
:1014C0001C9111978230F1F081811817D9F412968E
:1014D0002D913C911397828193818217930794F009
:1014E00028173907BCF014968D919D910D90BC91F1
:1014F000A02D2481358146815781281739074A0755
:101500005B0718F4112341F00AC082179307A40760
:10151000B50740F4112319F061E070E005C06FEFEA
:101520007FEF02C060E070E0CB011F91089597FB50
:10153000092E07260AD077FD04D00CD006D0002053
:101540001AF4709561957F4F0895F6F790958195FF
:101550009F4F0895AA1BBB1B51E107C0AA1FBB1FC9
:10156000A617B70710F0A61BB70B881F991F5A952F
:10157000A9F780959095BC01CD0108952F923F92D7
:101580004F925F926F927F928F929F92AF92BF9293
:10159000CF92DF92EF92FF920F931F93CF93DF933F
:1015A000CDB7DEB7CA1BDB0B0FB6F894DEBF0FBE9C
:1015B000CDBF09942A88398848885F846E847D84E9
:1015C0008C849B84AA84B984C884DF80EE80FD80EB
:1015D0000C811B81AA81B981CE0FD11D0FB6F89461
:0E15E000DEBF0FBECDBFED010895F894FFCF22
:1015EE0002060A0E0100000000003B003800350024
:1015FE00320039003600330030003A003700340034
:10160E003100000000000000000000010202030390
:10161E000303040404040404040405050505050578
:10162E000505050505050505050506060606060656
:10163E00060606060606060606060606060606063C
:10164E000606060606060606060607070707070726
:10165E00070707070707070707070707070707070C
:10166E0007070707070707070707070707070707FC
:10167E0007070707070707070707070707070707EC
:10168E0007070707070707070707080808080808D6
:10169E0008080808080808080808080808080808BC
:1016AE0008080808080808080808080808080808AC
:1016BE00080808080808080808080808080808089C
:1016CE00080808080808080808080808080808088C
:1016DE00080808080808080808080808080808087C
:1016EE00080808080808080808080808080808086C
:1016FE00080808080808080808080808080808085C
:0A170E000808080808080808080881
:00000001FF
