:100000000C942A000C9447000C9447000C94470071
:100010000C9447000C9447000C9447000C94470044
:100020000C9447000C9447000C9447000C94470034
:100030000C9447000C9447000C9447000C94470024
:100040000C9447000C9447000C9447000C94470014
:100050000C94470011241FBECFE5D8E0DEBFCDBF12
:1000600010E0A0E6B0E0ECECF6E002C005900D92E6
:10007000AC37B107D9F710E0ACE7B0E001C01D9292
:10008000AE37B107E1F70E9449000C9464030C9469
:1000900000007F928F929F92AF92BF92CF92DF9299
:1000A000EF92FF920F931F93CF93DF9380916100A4
:1000B00061E00E9493028091620060E00E949302DE
:1000C00040E8E42EF12CC8ECD0E038E0832E912CEF
:1000D00020E1A22EB12C01E010E095E0792E8FEF07
:1000E000C82ED12C809162000E941C02982F809310
:1000F0007D0080916000981721F010927C00909311
:100100006000933009F463C0943040F49130A1F161
:1001100080917C00923008F040C00CC0953009F40A
:1001200096C0953008F46FC0963009F4B4C097308B
:10013000C9F6DBC0B801082E02C0660F771F0A940B
:10014000E2F7970102C0359527958A95E2F7622B71
:10015000809161000E94010380917C0090E00196F3
:100160008770907080937C0088EB9BE0FE01319754
:10017000F1F70197D9F7B6CF60917C006095609355
:100180007C00809161000E94010388E893E1FE01F8
:100190003197F1F70197D9F7A5CFB80102C0660FE3
:1001A000771F8A95E2F7809161000E940103809198
:1001B0007C0090E001968770907080937C0084ECC6
:1001C00099E0FE013197F1F70197D9F78BCFB7018D
:1001D00000907C0002C0759567950A94E2F78091C3
:1001E00061000E94010380917C0090E0019687707D
:1001F000907080937C0084EC99E0FE013197F1F7D8
:100200000197D9F76FCF80917C00B801082E02C00A
:10021000660F771F0A94E2F7970102C0359527957C
:100220008A95E2F7622B809161000E940103809120
:100230007C0090E001968370907080937C0088EB46
:100240009BE0FE013197F1F70197D9F74BCF8091F1
:100250007C00B401082E02C0759567950A94E2F7F8
:10026000950102C0220F331F8A95E2F7622B80911D
:1002700061000E94010380917C0090E001968370F0
:10028000907080937C0088EB9BE0FE013197F1F742
:100290000197D9F727CF80917C00B801082E02C0C2
:1002A000660F771F0A94E2F7970102C035952795EC
:1002B0008A95E2F7622B809161000E940103809190
:1002C0007C0090E0019667E070E00E943D0380931F
:1002D0007C00843011F470927C0084EC99E0FE0183
:1002E0003197F1F70197D9F7FDCE80917C0067E057
:1002F00070E0681B7109C60102C0959587956A95E3
:10030000E2F7BC01809161000E94010380917C00B2
:1003100090E001968770907080937C0088EB9BE062
:10032000FE013197F1F70197D9F7DCCE282FE82F9E
:10033000E370F0E0EE0FFF1FE559FF4F0190F081F1
:10034000E02D808190E026952695277002C0959536
:1003500087952A95E2F781700895382F369536955E
:1003600037708370E82FF0E0662391F0EE0FFF1FE7
:10037000ED59FF4F0190F081E02D208181E090E068
:1003800002C0880F991F3A95E2F7282B2083089521
:10039000EE0FFF1FED59FF4F0190F081E02D2081FE
:1003A00081E090E002C0880F991F3A95E2F78095AE
:1003B000822380830895482F762F582F5370382F2B
:1003C000369536953770E52FF0E0662399F0EE0FFD
:1003D000FF1FED58FF4F0190F081E02D208181E05B
:1003E00090E0032E02C0880F991F0A94E2F7282B91
:1003F000208313C0EE0FFF1FED58FF4F0190F081D7
:10040000E02D208181E090E0032E02C0880F991F2B
:100410000A94E2F78095822380834C7F452B3770C6
:10042000330F330F437E432B60E0772309F461E001
:10043000842F0E94AD010895482FE82FE370F0E06B
:10044000EE0FFF1FE559FF4F0190F081E02DE08195
:1004500046954695242F277030E0B9016F5F7F4F96
:1004600081E090E00E943D0302C0880F991F2A9509
:10047000E2F78150F0E046954695469502C0F59525
:10048000E7954A95E2F78E230895CF93DF93982F4F
:10049000969596959770382F32953695377083706C
:1004A000E82FF0E0C92FD0E06623E9F0EE0FFF1F40
:1004B000ED59FF4F0190F081E02D2081BE016F5F6B
:1004C0007F4F81E090E00E943D0302C0880F991F9A
:1004D000CA95E2F7019702C0880F991F3A95E2F793
:1004E000282B20831DC0EE0FFF1FED59FF4F0190F9
:1004F000F081E02D2081BE016F5F7F4F81E090E0B1
:100500000E943D0302C0880F991FCA95E2F7019728
:1005100002C0880F991F3A95E2F780958223808365
:10052000DF91CF910895FF920F931F93CF93DF93A5
:10053000382FF62E082F0370482F469546954770A2
:10054000182F129516951770E02FF0E0C42FD0E009
:100550006623F9F0EE0FFF1FED58FF4F0190F08179
:10056000E02D2081BE016F5F7F4F81E090E00E940F
:100570003D03042E02C0880F991F0A94E2F70197E9
:10058000012E02C0880F991F0A94E2F7282B2083BE
:100590001FC0EE0FFF1FED58FF4F0190F081E02DBF
:1005A0002081BE016F5F7F4F81E090E00E943D039C
:1005B000042E02C0880F991F0A94E2F70197012EBA
:1005C00002C0880F991F0A94E2F7809582238083E6
:1005D0003C7F302B4770440F440F337E342B1295F1
:1005E000110F107E3F71312B60E0FF2009F461E0B4
:1005F000832F0E944502DF91CF911F910F91FF90B1
:100600000895FF920F931F93482F062FE82FE37052
:10061000F0E0EE0FFF1FED59FF4F0190F081E02D4C
:10062000F08046954695242F277030E0B9016F5F22
:100630007F4F81E090E00E943D0302C0880F991F28
:100640002A95E2F701974695469546959C01042E1A
:1006500002C0220F331F0A94E2F720952F2110E0E9
:100660008023912302C0880F991F4A95E2F7282B17
:1006700020831F910F91FF90089597FB092E072665
:100680000AD077FD04D00CD006D000201AF4709563
:1006900061957F4F0895F6F7909581959F4F089546
:1006A000AA1BBB1B51E107C0AA1FBB1FA617B70798
:1006B00010F0A61BB70B881F991F5A95A9F78095B4
:0C06C0009095BC01CD010895F894FFCF87
:1006CC00FF036E3B00380035003200390036003332
:0C06DC000030003A00370034003100000C
:00000001FF
