:100000000C942A000C949A020C94C3020C94EC02F7
:100010000C9447000C9447000C9447000C94470044
:100020000C9447000C9447000C9447000C94470034
:100030000C9447000C9447000C9447000C94470024
:100040000C9447000C9447000C9447000C94470014
:100050000C94470011241FBECFE5D8E0DEBFCDBF12
:1000600010E0A0E6B0E0EAE8F8E002C005900D92EA
:10007000AC38B107D9F710E0ACE8B0E001C01D9290
:10008000A339B107E1F70E9452000C9443040C9489
:10009000000080918C0090E00196817090708093B8
:1000A0008C000895CF93DF938091610061E049E473
:1000B00050E00E9415038091600061E00E940A01F7
:1000C000C8ECD0E060918C00809160000E949F009D
:1000D00084EF91E0FE013197F1F70197D9F7F2CF64
:1000E0000F931F93E82F10E001C01F5F8E2F01E0D8
:1000F0000E949D03E82F822F832B842B852B862B38
:10010000872B8E2B892B89F7812F1F910F910895B3
:10011000282FE82FE370F0E0EE0FFF1FE659FF4FA6
:100120000190F081E02D808190E026952695277042
:1001300002C0959587952A95E2F781700895382F2A
:100140003695369537708370E82FF0E0662391F08E
:10015000EE0FFF1FEE59FF4F0190F081E02D20813F
:1001600081E090E002C0880F991F3A95E2F7282BB2
:1001700020830895EE0FFF1FEE59FF4F0190F0818D
:10018000E02D208181E090E002C0880F991F3A9510
:10019000E2F78095822380830895582F782F73701B
:1001A000382F369536953770E72FF0E0662399F0B3
:1001B000EE0FFF1FEE58FF4F0190F081E02D2081E0
:1001C00081E090E0032E02C0880F991F0A94E2F7A5
:1001D000282B208313C0EE0FFF1FEE58FF4F019016
:1001E000F081E02D208181E090E0032E02C0880F95
:1001F000991F0A94E2F7809582238083852F8C7F54
:10020000872B3770330F330F837E832B642F0E942D
:100210009F00089540E0662309F441E00E94CD006C
:100220000895E82FE370F0E0EE0FFF1FEE59FF4F47
:100230000190F081E02D908186958695877021E070
:1002400030E002C0220F331F8A95E2F79227908395
:100250000895482FE82FE370F0E0EE0FFF1FE659F6
:10026000FF4F0190F081E02DE08146954695242FC7
:10027000277030E0B9016F5F7F4F81E090E00E940E
:100280001C0402C0880F991F2A95E2F78150F0E004
:1002900046954695469502C0F595E7954A95E2F74D
:1002A0008E230895CF93DF93982F96959695977008
:1002B000382F3295369537708370E82FF0E0C92FCC
:1002C000D0E06623E9F0EE0FFF1FEE59FF4F0190DB
:1002D000F081E02D2081BE016F5F7F4F81E090E0D3
:1002E0000E941C0402C0880F991FCA95E2F701976B
:1002F00002C0880F991F3A95E2F7282B20831DC072
:10030000EE0FFF1FEE59FF4F0190F081E02D20818D
:10031000BE016F5F7F4F81E090E00E941C0402C02D
:10032000880F991FCA95E2F7019702C0880F991F9D
:100330003A95E2F7809582238083DF91CF910895EB
:10034000FF920F931F93CF93DF93382FF62E082F32
:100350000370482F469546954770182F12951695AD
:100360001770E02FF0E0C42FD0E06623F9F0EE0F15
:10037000FF1FEE58FF4F0190F081E02D2081BE015C
:100380006F5F7F4F81E090E00E941C04042E02C04A
:10039000880F991F0A94E2F70197012E02C0880F77
:1003A000991F0A94E2F7282B20831FC0EE0FFF1F2E
:1003B000EE58FF4F0190F081E02D2081BE016F5F6C
:1003C0007F4F81E090E00E941C04042E02C0880F41
:1003D000991F0A94E2F70197012E02C0880F991F16
:1003E0000A94E2F78095822380833C7F302B47700C
:1003F000440F440F337E342B1295110F107E3F7142
:10040000312B60E0FF2009F461E0832F0E9452014C
:10041000DF91CF911F910F91FF900895FF920F935D
:100420001F93482F062FE82FE370F0E0EE0FFF1F19
:10043000EE59FF4F0190F081E02DF08046954695F2
:10044000242F277030E0B9016F5F7F4F81E090E08B
:100450000E941C0402C0880F991F2A95E2F7019799
:100460004695469546959C01042E02C0220F331FE7
:100470000A94E2F720952F2110E08023912302C0F7
:10048000880F991F4A95E2F7282B20831F910F911F
:10049000FF900895EF92FF920F931F93182FE62E6F
:1004A000B3E0FB2EF822082F0695069507701295EB
:1004B00016951770EF2DF0E0EE0FFF1FEE58FF4F6F
:1004C0000190F081E02D4081202F30E0B9016F5F75
:1004D0007F4F81E090E00E941C04002E02C0880F34
:1004E000991F0A94E2F701979C01012E02C0220F86
:1004F000331F0A94E2F7209524234E2D50E08423E5
:100500009523012E02C0880F991F0A94E2F7282B29
:100510002083000F000F1295110F107EF02AE09437
:100520008F2D812B6E2D0E940E021F910F91FF9037
:10053000EF9008951F920F920FB60F9211242F93F0
:100540003F934F935F936F937F938F939F93AF935B
:10055000BF93EF93FF93E0918D00F0918E00309761
:1005600009F00995FF91EF91BF91AF919F918F9104
:100570007F916F915F914F913F912F910F900FBE9F
:100580000F901F9018951F920F920FB60F92112483
:100590002F933F934F935F936F937F938F939F938B
:1005A000AF93BF93EF93FF93E0918F00F091900092
:1005B000309709F00995FF91EF91BF91AF919F910D
:1005C0008F917F916F915F914F913F912F910F90FC
:1005D0000FBE0F901F9018951F920F920FB60F929B
:1005E00011242F933F934F935F936F937F938F9338
:1005F0009F93AF93BF93EF93FF93E0919100F0919E
:100600009200309709F00995FF91EF91BF91AF915A
:100610009F918F917F916F915F914F913F912F911A
:100620000F900FBE0F901F9018957F928F929F9200
:10063000AF92BF92CF92DF92EF92FF920F931F93F0
:10064000DF93CF930F92CDB7DEB78983762E4A0121
:10065000982F80917A00981711F400E00CC08091D7
:100660007B00981711F401E006C080917C00981778
:1006700009F054C002E0898160E00E940A0110E0A4
:100680006801CC0CDD1CF601E358FF4FA080B1805F
:10069000F5014081F801ED57FF4F208130E0B901AD
:1006A0006F5F7F4F81E0E82EF12C81E090E00E94A7
:1006B0001C0402C0880F991F2A95E2F70197F801E0
:1006C000EA57FF4F60819C01062E02C0220F331FA4
:1006D0000A94E2F720952423472D50E084239523A4
:1006E00002C0880F991F6A95E2F7282BF501208335
:1006F0008BB707571F4FF801008002C0EE0CFF1C9C
:100700000A94E2F78E298BBF8FB780688FBF8DE880
:1007100090E0C80ED91EF601918280820F90CF9191
:10072000DF911F910F91FF90EF90DF90CF90BF90DE
:10073000AF909F908F907F900895EF92FF920F93CC
:10074000DF93CF93CDB7DEB760970FB6F894DEBFD7
:100750000FBECDBFA82F002309F461C07E0108940D
:10076000E11CF11C88E0F70111928A95E9F72983D1
:100770003A834B835C836D837E83AF83988780E26B
:10078000801BE82FFF27E7FDF0954D815E816F818B
:100790007885181684F01D861E861F86188A88277D
:1007A00099278E1B9F0B04C07695679557954795A3
:1007B0008A95D2F728C0202F332727FD3095DB01FB
:1007C000CA01022E04C0B695A795979587950A94FD
:1007D000D2F78D879E87AF87B88B04C0440F551F13
:1007E000661F771FEA95D2F789819A81AB81BC8118
:1007F00004C0B695A795979587952A95D2F7482B6B
:10080000592B6A2B7B2B49875A876B877C872985D5
:100810003A854B855C856D857E85AF8598898A2F65
:1008200060960FB6F894DEBF0FBECDBFCF91DF91BB
:100830000F91FF90EF90089597FB092E07260AD09D
:1008400077FD04D00CD006D000201AF47095619585
:100850007F4F0895F6F7909581959F4F0895AA1BB5
:10086000BB1B51E107C0AA1FBB1FA617B70710F09B
:10087000A61BB70B881F991F5A95A9F780959095CD
:0A088000BC01CD010895F894FFCFEC
:10088A00010F3B00380035003200390036003300D2
:10089A0030003A003700340031000B0F095500557B
:0C08AA00005400020201000206060705CF
:00000001FF
