:100000000C942A000C9447000C9447000C94470071
:100010000C9447000C9417040C9447000C944E0762
:100020000C9447000C9447000C9447000C94540423
:100030000C9447000C9491040C9447000C944700D6
:100040000C9447000C9447000C9447000C94470014
:100050000C94470011241FBECFE5D8E0DEBFCDBF12
:1000600010E0A0E6B0E0E8EDF6E102C005900D92E8
:10007000AC3DB107D9F714E0ACEDB0E001C01D9282
:10008000AB32B107E1F70E94C8000C946A0B0C94E4
:100090000000EF92FF920F93DF93CF93CDB7DEB7BF
:1000A00060970FB6F894DEBF0FBECDBFA82F002318
:1000B00009F461C07E010894E11CF11C88E0F7019D
:1000C00011928A95E9F729833A834B835C836D8388
:1000D0007E83AF83988780E2801BE82FFF27E7FDB0
:1000E000F0954D815E816F817885181684F01D86AC
:1000F0001E861F86188A882799278E1B9F0B04C08F
:1001000076956795579547958A95D2F728C0202F01
:10011000332727FD3095DB01CA01022E04C0B695B6
:10012000A795979587950A94D2F78D879E87AF8775
:10013000B88B04C0440F551F661F771FEA95D2F78E
:1001400089819A81AB81BC8104C0B695A7959795AA
:1001500087952A95D2F7482B592B6A2B7B2B4987F9
:100160005A876B877C8729853A854B855C856D85A9
:100170007E85AF8598898A2F60960FB6F894DEBF8A
:100180000FBECDBFCF91DF910F91FF90EF900895FB
:10019000AF92BF92CF92DF92EF92FF920F93809136
:1001A000870042E350E060E070E00E9468038093C3
:1001B0002A0480918A0061E00E943D0280918B00B8
:1001C00061E00E943D0288E890E00E949D0560E8A1
:1001D00075E280E090E042E020E003E0EE240E943F
:1001E00001058BE891E060E670E045E550E020E035
:1001F00030E001E0EE24FF24CC24DD24AA24BB243B
:100200000E94C20986E691E069E670E045E550E0AB
:1002100020E030E00E94C2098FE391E062E770E0E5
:1002200045E550E020E030E00E94C20983E291E021
:100230006DE770E045E550E020E030E00E94C20943
:100240000E94C10AFFCF0F931F93DF93CF9300D07B
:10025000CDB7DEB70E94B0079A8389838E010F5F06
:100260001F4F8EED90E042E050E060E070E00E94B1
:100270004505C80162E370E00E945309F2CF0F9375
:100280001F93DF93CF9300D0CDB7DEB70E94B007A6
:100290009A8389838E010F5F1F4F6091DF006695FF
:1002A0006695617080918A000E94D2016091DF00A2
:1002B000669566956695617080918B000E94D2016B
:1002C000C80162E370E00E945309E7CF0F931F93C8
:1002D000DF93CF9300D0CDB7DEB70E94B0079A83EB
:1002E00089838E010F5F1F4F6091DF00862F807F13
:1002F00041F062956F70615088E890E00E9475054A
:1003000004C088E890E00E948D05C80162E370E0B7
:100310000E945309E9CF0F931F93DF93CF9300D02F
:10032000CDB7DEB70E94B0079A8389838E010F5F35
:100330001F4F6091DE002091DF00722F737080E00C
:1003400090E02FEF30E040E050E00E94EC0A2CEE0D
:100350003FE440E050E00E94320B235F3F4F80912A
:100360002A04B9010E943C03C80162E370E00E94C4
:100370005309DFCF0F931F93E82F10E001C01F5FD9
:100380008E2F01E00E944900E82F822F832B842BBF
:10039000852B862B872B8E2B892B89F7812F1F91FD
:1003A0000F910895382F3695369537708370E82F62
:1003B000F0E0662391F0EE0FFF1FE457FF4F01902E
:1003C000F081E02D208181E090E002C0880F991F2C
:1003D0003A95E2F7282B20830895EE0FFF1FE4578C
:1003E000FF4F0190F081E02D208181E090E002C07C
:1003F000880F991F3A95E2F78095822380830895AC
:10040000582F782F7370382F369536953770E72F21
:10041000F0E0662399F0EE0FFF1FE456FF4F0190C6
:10042000F081E02D208181E090E0032E02C0880F52
:10043000991F0A94E2F7282B208313C0EE0FFF1FA9
:10044000E456FF4F0190F081E02D208181E090E0A3
:10045000032E02C0880F991F0A94E2F78095822329
:100460008083852F8C7F872B3770330F330F837EEC
:10047000832B642F0E94D201089540E0662309F483
:1004800041E00E9400020895CF93DF93982F969544
:1004900096959770382F3295369537708370E82F80
:1004A000F0E0C92FD0E06623E9F0EE0FFF1FE4571C
:1004B000FF4F0190F081E02D2081BE016F5F7F4FE3
:1004C00081E090E00E941F0B02C0880F991FCA951F
:1004D000E2F7019702C0880F991F3A95E2F7282B9F
:1004E00020831DC0EE0FFF1FE457FF4F0190F081E6
:1004F000E02D2081BE016F5F7F4F81E090E00E9480
:100500001F0B02C0880F991FCA95E2F7019702C01E
:10051000880F991F3A95E2F7809582238083DF91B7
:10052000CF910895FF920F931F93CF93DF93382FAE
:10053000F62E082F0370482F469546954770182FC2
:10054000129516951770E02FF0E0C42FD0E06623C7
:10055000F9F0EE0FFF1FE456FF4F0190F081E02D00
:100560002081BE016F5F7F4F81E090E00E941F0BF2
:10057000042E02C0880F991F0A94E2F70197012EFA
:1005800002C0880F991F0A94E2F7282B20831FC00E
:10059000EE0FFF1FE456FF4F0190F081E02D208108
:1005A000BE016F5F7F4F81E090E00E941F0B042E21
:1005B00002C0880F991F0A94E2F70197012E02C02A
:1005C000880F991F0A94E2F78095822380833C7FED
:1005D000302B4770440F440F337E342B1295110F8C
:1005E000107E3F71312B60E0FF2009F461E0832F22
:1005F0000E944402DF91CF911F910F91FF900895C7
:10060000FF920F931F93482F062FE82FE370F0E01F
:10061000EE0FFF1FE457FF4F0190F081E02DF080B7
:1006200046954695242F277030E0B9016F5F7F4FC4
:1006300081E090E00E941F0B02C0880F991F2A954D
:10064000E2F701974695469546959C01042E02C017
:10065000220F331F0A94E2F720952F2110E0802308
:10066000912302C0880F991F4A95E2F7282B208317
:100670001F910F91FF900895FF920F931F939B017D
:10068000082F10E0F801E052FF4FF0806F2D70E06E
:1006900080E090E040E050E00E94EC0A2FEF3FEF56
:1006A00040E050E00E94320B000F111FE3EEF0E03B
:1006B000D801AE0FBF1F822F80958C933197E00F2A
:1006C000F11FF094F20EF0821F910F91FF900895A8
:1006D0007F928F929F92AF92BF92CF92DF92EF92D2
:1006E000FF920F931F93CF93DF93982F6A017B01A3
:1006F00083B7882311F4772408C085B5882319F0BF
:1007000077247A9485C077247394C72DD0E0FE01B6
:10071000E851FF4F9083892F61E00E943D02C11490
:10072000D104E104F10411F411E031C060E072E1A0
:100730008AE790E0A70196010E94320B49015A0115
:10074000A50160E070E080E090E008E00E944900D0
:100750000E94BA01E0E08110E1E08E0F8B3008F0DA
:100760008AE0E82FF0E0EC55FF4F1081E12FF0E038
:10077000EE0FFF1FE355FF4F9401A50160E070E00D
:1007800080E090E000810E944900225009F42FEFA0
:10079000AE01440F551FFA01E754FF4FA081B1810C
:1007A00017708C91887F812B8C93FE01E052FF4F54
:1007B0002083FA01EE51FF4F209520838C918F7B8F
:1007C0008C938C91877F8C938C918F7C8C938C9164
:1007D0008F7C8C9369B74C0F5D1F440F551F81E0D0
:1007E00090E09C01042E02C0220F331F0A94E2F70E
:1007F000622B69BF29B74F5F5F4F02C0880F991FF7
:100800004A95E2F78095822389BF8FB780688FBFB2
:10081000872DDF91CF911F910F91FF90EF90DF9087
:10082000CF90BF90AF909F908F907F9008951F9230
:100830000F920FB60F9211242F933F934F935F9314
:100840006F937F938F939F93AF93BF93EF93FF9398
:100850008091E70091E089278093E700E091E7002D
:10086000F0E0EC51FF4F80818093EA008091EA0034
:100870008F3F49F08091EA0084BD6091E70080914C
:10088000E9000E94D201FF91EF91BF91AF919F913A
:100890008F917F916F915F914F913F912F910F9029
:1008A0000FBE0F901F9018951F920F920FB60F92C8
:1008B00011242F933F934F935F936F937F938F9365
:1008C0009F93AF93BF93EF93FF938091E60091E0E6
:1008D00089278093E600E091E600F0E0EE51FF4FBB
:1008E00080818093EA008091EA008F3F49F08091F7
:1008F000EA0082BF6091E6008091E8000E94D20188
:10090000FF91EF91BF91AF919F918F917F916F91E7
:100910005F914F913F912F910F900FBE0F901F90BD
:1009200018951F920F920FB60F9211248F939F93D9
:10093000EF93FF938091EB0087FD14C0E091EC00F2
:10094000F0E08CB1E351FF4F80838091EC0090E0A8
:1009500001968F7790708093EC008091EB008F5F11
:100960008093EB00FF91EF919F918F910F900FBEBD
:100970000F901F9018958AB18F738AB98091EC00FF
:100980002091EB0090E080589F4F821B910960E816
:1009900070E00E941F0BFC01E351FF4F808121504A
:1009A0002093EB009AB19F7390689AB90895CF9302
:1009B000DF93EC018091EB00882321F00E94BB04BF
:1009C000888381E0DF91CF9108959B01AC01599814
:1009D00060E271EA87E090E00E94320BC901DA011F
:1009E0000197A109B10989B920B52F7720BD892FB9
:1009F0009A2FAB2FBB278F7020B5207F282B20BDCF
:100A00000895EF92FF920F931F93142FF22E2FB79A
:100A100020682FBF2AB12F7320682AB955980E94E9
:100A2000E50480B58F7B80BD80B58E7F80BD13705F
:100A3000110F110F110F8AB1877E812B8AB980B5F2
:100A4000806880BD83E0F822F29430EFF32280B515
:100A50008F7C8F2980BD902F9370990F80B5897FEF
:100A6000892B80BD04708AB18B7F802B8AB981E08D
:100A7000E822EE0CEE0CEE0C80B5877F8E2980BD4F
:100A80001F910F91FF90EF900895EF92FF920F93B7
:100A90001F93CF93DF93EC017A018B018091EB00E0
:100AA00090E0A0E0B0E084179507A607B70778F4B8
:100AB00090E013C0CE010E94D7040894E108F10829
:100AC00001091109982F917080FF07C02196E11448
:100AD000F1040105110571F791E0892FDF91CF91A4
:100AE0001F910F91FF90EF900895DC01E62F119672
:100AF0006C911197623010F083E00895EA3010F0A5
:100B000084E00895F0E0E553FF4F6150808168274D
:100B10008C910E94000380E00895FC0161816230A5
:100B200010F083E0089570E06F5F7F4F6170707028
:100B300080810E94440280E00895FC019081892F09
:100B40008C7111F081E00895892F807E11F082E090
:100B500008958181823010F083E00895892F61E04B
:100B60000E94920280E0089508950F931F93CF93FF
:100B7000DF938C010E94AA0780916D0190916E0114
:100B80009801280F391F42E02835340758F482179E
:100B9000930740F4EC01C159DE4F30936E0120936E
:100BA0006D0102C0C0E0D0E00E94D808CE01DF9104
:100BB000CF911F910F910895FC019C012D5F3F4F34
:100BC000328321838FEF9FEF948383833683258342
:100BD0003087278310820895FC01118610860895BE
:100BE000CF93DF93AC01DB01EC0129813A81F9015C
:100BF0008281938113969C938E93129789819A8117
:100C000015969C938E9314970280F381E02D758343
:100C10006483E9017B836A83FA0172836183199695
:100C20005C934E93189780818F5F8083DF91CF9183
:100C30000895CF93DF939C01EB01488159818FEF99
:100C40004F3F580721F4F901A781B08510C0D901A1
:100C5000139604C012960D90BC91A02D1296ED91A2
:100C6000FC911397808191814817590798F7129644
:100C7000ED91FC911397FB83EA83D583C483BD83F5
:100C8000AC831396DC93CE93129739872887F901AA
:100C900080818F5F8083DF91CF910895CF93DF9321
:100CA000DC011296ED91FC91139714968D919C9115
:100CB0001597958384831496CD91DC911597FB83CA
:100CC000EA831896ED91FC911997818192818A1798
:100CD0009B0711F4D283C18319961C921E92189718
:100CE000808181508083DF91CF910895FC0191E153
:100CF000908322E2229383E382936293729312920F
:100D000080E88293129282E0829383E0829384E06F
:100D1000829385E0829386E0829387E0829388E0E5
:100D2000829389E0829380E18293929382E182931D
:100D300083E1829384E1829385E1829386E18293C9
:100D400087E1829388E1829389E1829380E28293B2
:100D500081E28293229383E282934293529386E2CA
:100D6000829387E2829388E2829389E2829380E38E
:100D7000829381E382933197CF0108951BBC8CE766
:100D80008ABD8BE08EBD89B7806189BFA091C70302
:100D9000B091C803CD91CDBFDD91DEBFFF91EF9142
:100DA000DF91CF91BF91AF919F918F917F916F9183
:100DB0005F914F913F912F911F910F91FF90EF9075
:100DC000DF90CF90BF90AF909F908F907F906F906B
:100DD0005F904F903F902F901F900F900FBE0F90FD
:100DE000089581E008950F920FB6F8940F921F9224
:100DF00011242F923F924F925F926F927F928F9227
:100E00009F92AF92BF92CF92DF92EF92FF920F9399
:100E10001F932F933F934F935F936F937F938F9382
:100E20009F93AF93BF93CF93DF93EF93FF93A091E3
:100E3000C703B091C8030DB60D920EB60D920E9475
:100E4000FD070E94BB07A091C703B091C803CD91D5
:100E5000CDBFDD91DEBFFF91EF91DF91CF91BF91CB
:100E6000AF919F918F917F916F915F914F913F9142
:100E70002F911F910F91FF90EF90DF90CF90BF9037
:100E8000AF909F908F907F906F905F904F903F902A
:100E90002F901F900F900FBE0F9008950E94F306A1
:100EA00018950F920FB6F8940F921F9211242F925B
:100EB0003F924F925F926F927F928F929F92AF92EA
:100EC000BF92CF92DF92EF92FF920F931F932F93D7
:100ED0003F934F935F936F937F938F939F93AF93C2
:100EE000BF93CF93DF93EF93FF93A091C703B0918C
:100EF000C8030DB60D920EB60D920E94BB07A091CD
:100F0000C703B091C803CD91CDBFDD91DEBFFF9186
:100F1000EF91DF91CF91BF91AF919F918F917F9191
:100F20006F915F914F913F912F911F910F91FF9082
:100F3000EF90DF90CF90BF90AF909F908F907F9079
:100F40006F905F904F903F902F901F900F900FBE2B
:100F50000F9008958091CD038F5F8093CD03089506
:100F60000FB6F8940F922091CB033091CC030F90E1
:100F70000FBEC90108958091CD03882351F081E00F
:100F80008093C90308958091CE0381508093CE034E
:100F900001C099E0E091CE03E99FF0011124EB52EA
:100FA000FC4F8081882379F39091CE0389E0989F4C
:100FB000D0011124AB52BC4F1196ED91FC911297C8
:100FC0000280F381E02D1296FC93EE931197CD01F0
:100FD0000396E817F90731F48281938112969C9366
:100FE0008E9311971196ED91FC91129786819781BE
:100FF0009093C8038093C7030895FF920F931F93A4
:10100000CF93DF938091CD03882309F08FC0809127
:10101000CB039091CC0301969093CC038093CB03A8
:101020008091CB039091CC03892B79F52091140406
:101030003091150480911604909117049093150433
:101040008093140430931704209316048091CA03EC
:101050008F5F8093CA03E0911404F091150480819E
:10106000882319F48FEF9FEF0CC0E0911404F091E6
:1010700015040580F681E02D0680F781E02D828140
:1010800093819093DB008093DA002091CB03309121
:10109000CC038091DA009091DB002817390708F41F
:1010A0004AC089E0F82EE0911404F0911504808183
:1010B000882339F48FEF9FEF9093DB008093DA0061
:1010C0003AC0E0911404F09115040580F681E02DFA
:1010D000C681D7812A813B818091CB039091CC033B
:1010E0008217930728F43093DB002093DA0023C0A3
:1010F0008E010E5F1F4FC8010E944E068C899D898C
:10110000892B21F0CE010C960E944E069E8980917B
:10111000CE03891710F49093CE039F9DC001112434
:101120008B529C4FB8010E94F005BDCF8091CF0338
:101130008F5F8093CF03DF91CF911F910F91FF902D
:101140000895CF93DF93EC01E091C703F091C803BA
:10115000938382838091CB039091CC03C817D907E6
:1011600068F480911604909117046091C703709100
:10117000C8036E5F7F4F0E94190617C08091140448
:10118000909115046091C7037091C8036E5F7F4F03
:101190000E9419068091DA009091DB00C817D907E8
:1011A00020F4D093DB00C093DA00DF91CF91089553
:1011B000CF92DF92FF920F931F93DF93CF930F9203
:1011C000CDB7DEB70FB6F8940F928091CD03815062
:1011D0008093CD038091CD03882309F058C080917E
:1011E000D003882309F453C0198299E0F92E2DC049
:1011F000E0911D04F0911E04C680D780C6010C96B4
:101200000E944E0686010E5F1F4FC8010E944E06C7
:10121000D60156969C918091CE03891710F4909335
:10122000CE039F9DC00111248B529C4FB8010E9498
:10123000F005E091C703F091C803D60156969C9142
:101240008689981710F0B1E0B9838091180488233B
:1012500079F68091CF03882341F40CC00E94FD07EA
:101260008091CF0381508093CF038091CF03882357
:10127000A9F707C0E981E13021F08091C9038130ED
:1012800031F41092C9030E94510781E001C080E04F
:101290000F900FBE0F90CF91DF911F910F91FF9094
:1012A000DF90CF900895CF93DF93FC01EB01809105
:1012B000CD038F5F8093CD0320813181C20FD31F77
:1012C0008091CB039091CC038217930728F4C21727
:1012D000D30728F020E00CC0C217D30740F080915C
:1012E000CB039091CC0320E08C179D0708F421E0FC
:1012F000D183C083222351F08091C7039091C8030A
:1013000002960E944E06CE010E94A1080E94D808B3
:10131000882311F40E945107DF91CF9108950F9314
:101320001F938091D2038823E1F38091CD038F5FD7
:101330008093CD03109121040E94D808112389F3D2
:101340000FB6F8940F92E0912604F09127040681DD
:101350001781C80102960E944E068091D0038150E9
:101360008093D0038091D20381508093D2030F9059
:101370000FBEF8018789908D0E94B405C8010E94B4
:10138000B405CFCF2F923F924F925F927F928F9270
:101390009F92AF92BF92CF92DF92EF92FF920F9304
:1013A0001F93CF93DF931C014B015A012901702E2B
:1013B000E60181E290E00E94B5056C01009771F0B2
:1013C000209721F4C5010E94B505EC01F601D08FEC
:1013D000C78B209729F4C6010E94B4058FEFBFC0C8
:1013E000CE0165EA70E0A5010E94540B0894A108A3
:1013F000B108F601C789D08DCA0DDB1DC60149961B
:10140000B40148E050E00E945B0BF60110A2072DEA
:10141000F4E0F71508F404E0F601068B42E0A42E90
:10142000B12CAC0CBD1CC5010E94EC05C6010C968C
:101430000E94EC05F601D186C08685E090E0801B15
:10144000910995878487D38AC28ACE01B101A2010E
:101450000E947606F60191838083E114F10419F06D
:10146000F701D182C0820FB6F8940F928091D00319
:101470008F5F8093D0038091C7039091C803892B1D
:1014800079F5D092C803C092C7038091D003813010
:10149000B1F5C5EDD3E0CE010E94DC052996F4E05C
:1014A000C230DF07C1F732E0E32E34E0F32EC7018C
:1014B0000E94DC050BE014E0C8010E94DC0588E115
:1014C00094E00E94DC0581E294E00E94DC05F09249
:1014D0001504E092140410931704009316040FC02F
:1014E0008091D103882359F4E091C703F091C80398
:1014F0008689781620F0D092C803C092C703F601FF
:1015000096898091D403891710F49093D403809125
:10151000D3038F5F8093D303F60196898091CE0326
:10152000891710F49093CE03F601868929E0829FF3
:10153000C00111248B529C4FB5010E94F0050F9001
:101540000FBE8091D103882349F0E091C703F09149
:10155000C8038689871510F40E94510781E0DF9146
:10156000CF911F910F91FF90EF90DF90CF90BF90A0
:10157000AF909F908F907F905F904F903F902F9073
:101580000895AF92BF92CF92DF92EF92FF920F93A6
:101590008FE899E065ED70E045E550E020E030E04F
:1015A00000E0EE24FF24CC24DD24AA24BB240E94E6
:1015B000C209813049F4F8948093D1031092CC038E
:1015C0001092CB030E94BE060F91FF90EF90DF9028
:1015D000CF90BF90AF900895629FD001739FF001AC
:1015E000829FE00DF11D649FE00DF11D929FF00DB3
:1015F000839FF00D749FF00D659FF00D9927729FEA
:10160000B00DE11DF91F639FB00DE11DF91FBD0174
:10161000CF0111240895AA1BBB1B51E107C0AA1FCB
:10162000BB1FA617B70710F0A61BB70B881F991F83
:101630005A95A9F780959095BC01CD01089597FB27
:10164000092E07260AD077FD04D0E5DF06D000205A
:101650001AF4709561957F4F0895F6F790958195EE
:101660009F4F0895A1E21A2EAA1BBB1BFD010DC0BE
:10167000AA1FBB1FEE1FFF1FA217B307E407F50742
:1016800020F0A21BB30BE40BF50B661F771F881F1E
:10169000991F1A9469F760957095809590959B01B4
:1016A000AC01BD01CF010895DC0101C06D93415033
:1016B0005040E0F70895FB01DC014150504048F0F4
:1016C00001900D920020C9F701C01D924150504079
:0816D000E0F70895F894FFCF44
:1016D8005461736B5F50574D005461736B5F4C439B
:1016E80044005461736B5F4D6F746F720054617383
:1016F8006B5F55415254001B02000B0F3B00380032
:101708003500320039003600330030003A00370027
:10171800340031000102020203030304040505003A
:10172800000300060008000A00530045000D1F5C76
:10173800004300171348004A0004063F065B4F6643
:0C1748006D7D077F6F49444C4500FFFF9A
:00000001FF
