:100000000C942A000C94F8020C9421030C944A03DB
:100010000C9447000C9447000C9447000C94EA069B
:100020000C9447000C9447000C9447000C94470034
:100030000C9447000C94FB030C9447000C9447006D
:100040000C9447000C9447000C9447000C94470014
:100050000C94470011241FBECFE5D8E0DEBFCDBF12
:1000600010E0A0E6B0E0E2EDF5E102C005900D92EF
:10007000A23DB107D9F714E0A2EDB0E001C01D9296
:10008000AC31B107E1F70E9449000C94E70A0C94E7
:100090000000AF92BF92CF92DF92EF92FF920F9348
:1000A0008091D2000E94DF028091830061E040E1F4
:1000B00051E00E9473038091840061E04EEF50E0B4
:1000C0000E9473038FE790E00E943A0560E875E2B2
:1000D00080E090E041E020E003E0EE240E94410453
:1000E0008DED90E060E670E045E550E020E030E026
:1000F00001E0EE24FF24CC24DD24AA24BB240E94AA
:100100005E0984EB90E069E670E045E550E020E0B0
:1001100030E00E945E0988E990E065E770E045E51F
:1001200050E020E030E00E945E090E945D0AFFCFAF
:100130000F931F93DF93CF9300D0CDB7DEB70E940C
:100140004C079A8389838E010F5F1F4F83ED90E0E8
:1001500042E050E060E070E00E948504C80162E384
:1001600070E00E94EF08F2CF0F931F93DF93CF93BD
:1001700000D0CDB7DEB70E944C079A8389838E01E9
:100180000F5F1F4F8FE790E00E94A50480931B0430
:10019000882311F490E003C0982F9F529F7092958E
:1001A000907F8091D4008F70892B8093D400C801F8
:1001B00062E370E00E94EF08E5CF0F931F93DF9397
:1001C000CF9300D0CDB7DEB70E944C079A838983C6
:1001D0008E010F5F1F4F8091D2000E94CB0280934F
:1001E000D30093708091D4008C7F892B8093D400AE
:1001F000C80162E370E00E94EF08EDCF80918400B7
:100200000E94210190E0882309F491E0990F990F51
:10021000990F8091D400877F892B8093D400089513
:10022000809183000E94210190E0882309F491E0ED
:10023000990F990F8091D4008B7F892B8093D400E4
:100240000895282FE82FE370F0E0EE0FFF1FE75628
:10025000FF4F0190F081E02D808190E0269526955A
:10026000277002C0959587952A95E2F781700895C9
:10027000382F3695369537708370E82FF0E0662377
:1002800091F0EE0FFF1FEF56FF4F0190F081E02D30
:10029000208181E090E002C0880F991F3A95E2F733
:1002A000282B20830895EE0FFF1FEF56FF4F01907C
:1002B000F081E02D208181E090E002C0880F991F3D
:1002C0003A95E2F78095822380830895582F782FFE
:1002D0007370382F369536953770E72FF0E0662328
:1002E00099F0EE0FFF1FEF55FF4F0190F081E02DC9
:1002F000208181E090E0032E02C0880F991F0A94AC
:10030000E2F7282B208313C0EE0FFF1FEF55FF4F9E
:100310000190F081E02D208181E090E0032E02C069
:10032000880F991F0A94E2F7809582238083852F96
:100330008C7F872B3770330F330F837E832B642F93
:100340000E943801089540E0662309F441E00E94CC
:1003500066010895482FE82FE370F0E0EE0FFF1FCD
:10036000E756FF4F0190F081E02DE08146954695DC
:10037000242F277030E0B9016F5F7F4F81E090E05C
:100380000E94880A02C0880F991F2A95E2F78150BF
:10039000F0E046954695469502C0F595E7954A9555
:1003A000E2F78E230895CF93DF93982F9695969535
:1003B0009770382F3295369537708370E82FF0E0BC
:1003C000C92FD0E06623E9F0EE0FFF1FEF56FF4F75
:1003D0000190F081E02D2081BE016F5F7F4F81E0B1
:1003E00090E00E94880A02C0880F991FCA95E2F720
:1003F000019702C0880F991F3A95E2F7282B2083B6
:100400001DC0EE0FFF1FEF56FF4F0190F081E02D52
:100410002081BE016F5F7F4F81E090E00E94880ADB
:1004200002C0880F991FCA95E2F7019702C0880F92
:10043000991F3A95E2F7809582238083DF91CF91CF
:100440000895FF920F931F93CF93DF93382FF62ECB
:10045000082F0370482F469546954770182F129520
:1004600016951770E02FF0E0C42FD0E06623F9F066
:10047000EE0FFF1FEF55FF4F0190F081E02D20811F
:10048000BE016F5F7F4F81E090E00E94880A042EDA
:1004900002C0880F991F0A94E2F70197012E02C04B
:1004A000880F991F0A94E2F7282B20831FC0EE0FB4
:1004B000FF1FEF55FF4F0190F081E02D2081BE011D
:1004C0006F5F7F4F81E090E00E94880A042E02C097
:1004D000880F991F0A94E2F70197012E02C0880F36
:1004E000991F0A94E2F78095822380833C7F302B0A
:1004F0004770440F440F337E342B1295110F107E3A
:100500003F71312B60E0FF2009F461E0832F0E94EE
:10051000D301DF91CF911F910F91FF900895FF922A
:100520000F931F93482F062FE82FE370F0E0EE0F94
:10053000FF1FEF56FF4F0190F081E02DF0804695B0
:100540004695242F277030E0B9016F5F7F4F81E01F
:1005500090E00E94880A02C0880F991F2A95E2F74E
:1005600001974695469546959C01042E02C0220FA0
:10057000331F0A94E2F720952F2110E08023912366
:1005800002C0880F991F4A95E2F7282B20831F91FC
:100590000F91FF900895982F969596959770837078
:1005A00069F487B1807E892B87B93498369A349B59
:1005B000FECF349A24B135B1C90108950895982F1A
:1005C0008370A9F4892F60E040E00E946601809169
:1005D000D500882361F481E08093D500379A86B1F5
:1005E000876086B987B18F73806487B93D98089515
:1005F0001F920F920FB60F9211242F933F934F9398
:100600005F936F937F938F939F93AF93BF93EF937A
:10061000FF93E091D600F091D700309709F009954B
:10062000FF91EF91BF91AF919F918F917F916F91CA
:100630005F914F913F912F910F900FBE0F901F90A0
:1006400018951F920F920FB60F9211242F933F937C
:100650004F935F936F937F938F939F93AF93BF93CA
:10066000EF93FF93E091D800F091D900309709F013
:100670000995FF91EF91BF91AF919F918F917F91DC
:100680006F915F914F913F912F910F900FBE0F90FF
:100690001F9018951F920F920FB60F9211242F934F
:1006A0003F934F935F936F937F938F939F93AF93FA
:1006B000BF93EF93FF93E091DA00F091DB00309766
:1006C00009F00995FF91EF91BF91AF919F918F91A3
:1006D0007F916F915F914F913F912F910F900FBE3E
:1006E0000F901F9018957F928F929F92AF92BF921A
:1006F000CF92DF92EF92FF920F931F93DF93CF93EE
:100700000F92CDB7DEB78983762E4A01982F80915C
:10071000A900981711F400E00CC08091AA00981766
:1007200011F401E006C08091AB00981709F054C0A5
:1007300002E0898160E00E94A30110E06801CC0C16
:10074000DD1CF601E455FF4FA080B180F50140812A
:10075000F801EE54FF4F208130E0B9016F5F7F4F09
:1007600081E0E82EF12C81E090E00E94880A02C02E
:10077000880F991F2A95E2F70197F801EB54FF4F74
:1007800060819C01062E02C0220F331F0A94E2F7FB
:1007900020952423472D50E08423952302C0880F01
:1007A000991F6A95E2F7282BF50120838BB708542F
:1007B0001F4FF801008002C0EE0CFF1C0A94E2F704
:1007C0008E298BBF8FB780688FBF86ED90E0C80EF3
:1007D000D91EF601918280820F90CF91DF911F91F7
:1007E0000F91FF90EF90DF90CF90BF90AF909F90D0
:1007F0008F907F9008951F920F920FB60F92112441
:100800008F939F93EF93FF938091DC0087FD14C03B
:10081000E091DD00F0E08CB1E252FF4F80838091E7
:10082000DD0090E001968F7790708093DD008091DD
:10083000DC008F5F8093DC00FF91EF919F918F919F
:100840000F900FBE0F901F9018959B01AC01599807
:1008500060E271EA87E090E00E949B0AC901DA0138
:100860000197A109B10989B920B52F7720BD892F3A
:100870009A2FAB2FBB278F7020B5207F282B20BD50
:100880000895EF92FF920F931F93142FF22E2FB71C
:1008900020682FBF2AB12F7320682AB955980E946B
:1008A000250480B58F7B80BD80B58E7F80BD1370A1
:1008B000110F110F110F8AB1877E812B8AB980B574
:1008C000806880BD83E0F822F29430EFF32280B597
:1008D0008F7C8F2980BD902F9370990F80B5897F71
:1008E000892B80BD04708AB18B7F802B8AB981E00F
:1008F000E822EE0CEE0CEE0C80B5877F8E2980BDD1
:100900001F910F91FF90EF9008959C0180E090E07F
:10091000A0E0B0E00AC0F901E80FF91FE0815D9B9B
:10092000FECFECB90196A11DB11D84179507A6074E
:10093000B70788F30895982F9195982380E002C017
:1009400096958F5F90FFFCCF08959F92AF92BF92D4
:10095000CF92DF92EF92FF920F931F93CF93DF938B
:100960007C01DC01FC91F695F695F7702F2F30E0B5
:10097000B9016F5F7F4F81E090E00E94880A0F2EDF
:1009800002C0880F991F0A94E2F7982E9A94D70113
:1009900011964C91E42FE695E695E7702E2F30E006
:1009A000B9016F5F7F4F81E090E00E94880A0E2EB0
:1009B00002C0880F991F0A94E2F7A82EAA944C71DE
:1009C00019F448E0B42E01C0BE2ED7018C91082F37
:1009D0000295069507708C7111F428E001C02F2F45
:1009E000122F100F31E0C32ED12C35C0C02FD0E014
:1009F000B601002E02C0660F771F0A94E2F76095D9
:100A00006921F70180810E948F02D70111968C9194
:100A10000E94AA01282F20952A21E1F0F7010281E6
:100A200013818081829586958770C81BD1098B2D93
:100A300090E0C89F7001C99FF00CD89FF00C112462
:100A4000822F0E949B040E0D1F1D080F111DD8013F
:100A50008C9104C00F5F011748F280E0DF91CF91C5
:100A60001F910F91FF90EF90DF90CF90BF90AF90CC
:100A70009F900895CF93DF93EC01888161E00E94FD
:100A80002102898160E00E9421028A819B81892B59
:100A900021F48BEB90E09B838A83DF91CF910895C3
:100AA00008950F931F93CF93DF938C010E94460705
:100AB00080915E0190915F019801280F391F42E0FB
:100AC0002835340758F48217930740F4EC01C05AD4
:100AD000DE4F30935F0120935E0102C0C0E0D0E0A2
:100AE0000E947408CE01DF91CF911F910F9108955C
:100AF000FC019C012D5F3F4F328321838FEF9FEFDD
:100B000094838383368325833087278310820895D7
:100B1000FC01118610860895CF93DF93AC01DB01B1
:100B2000EC0129813A81F9018281938113969C938A
:100B30008E93129789819A8115969C938E93149720
:100B40000280F381E02D75836483E9017B836A83EE
:100B5000FA017283618319965C934E931897808192
:100B60008F5F8083DF91CF910895CF93DF939C01B6
:100B7000EB01488159818FEF4F3F580721F4F9016C
:100B8000A781B08510C0D901139604C012960D90AC
:100B9000BC91A02D1296ED91FC91139780819181CB
:100BA0004817590798F71296ED91FC911397FB831C
:100BB000EA83D583C483BD83AC831396DC93CE9341
:100BC000129739872887F90180818F5F8083DF91B1
:100BD000CF910895CF93DF93DC011296ED91FC91B4
:100BE000139714968D919C911597958384831496F1
:100BF000CD91DC911597FB83EA831896ED91FC91DA
:100C00001997818192818A179B0711F4D283C1833E
:100C100019961C921E921897808181508083DF91D3
:100C2000CF910895FC0191E1908322E2229383E326
:100C3000829362937293129280E88293129282E07E
:100C4000829383E0829384E0829385E0829386E0BE
:100C5000829387E0829388E0829389E0829380E1A7
:100C60008293929382E1829383E1829384E18293DF
:100C700085E1829386E1829387E1829388E1829382
:100C800089E1829380E2829381E28293229383E2DC
:100C900082934293529386E2829387E2829388E220
:100CA000829389E2829380E3829381E382933197F6
:100CB000CF0108951BBC8CE78ABD8BE08EBD89B740
:100CC000806189BFA091B803B091B903CD91CDBF28
:100CD000DD91DEBFFF91EF91DF91CF91BF91AF9199
:100CE0009F918F917F916F915F914F913F912F9144
:100CF0001F910F91FF90EF90DF90CF90BF90AF903A
:100D00009F908F907F906F905F904F903F902F902B
:100D10001F900F900FBE0F90089581E008950F92DD
:100D20000FB6F8940F921F9211242F923F924F9278
:100D30005F926F927F928F929F92AF92BF92CF926B
:100D4000DF92EF92FF920F931F932F933F934F9356
:100D50005F936F937F938F939F93AF93BF93CF9343
:100D6000DF93EF93FF93A091B803B091B9030DB651
:100D70000D920EB60D920E9499070E945707A091FE
:100D8000B803B091B903CD91CDBFDD91DEBFFF9126
:100D9000EF91DF91CF91BF91AF919F918F917F9113
:100DA0006F915F914F913F912F911F910F91FF9004
:100DB000EF90DF90CF90BF90AF909F908F907F90FB
:100DC0006F905F904F903F902F901F900F900FBEAD
:100DD0000F9008950E948F0618950F920FB6F89401
:100DE0000F921F9211242F923F924F925F926F9217
:100DF0007F928F929F92AF92BF92CF92DF92EF92AB
:100E0000FF920F931F932F933F934F935F936F9393
:100E10007F938F939F93AF93BF93CF93DF93EF9382
:100E2000FF93A091B803B091B9030DB60D920EB621
:100E30000D920E945707A091B803B091B903CD91CC
:100E4000CDBFDD91DEBFFF91EF91DF91CF91BF91DB
:100E5000AF919F918F917F916F915F914F913F9152
:100E60002F911F910F91FF90EF90DF90CF90BF9047
:100E7000AF909F908F907F906F905F904F903F903A
:100E80002F901F900F900FBE0F9008958091BE037A
:100E90008F5F8093BE0308950FB6F8940F92209150
:100EA000BC033091BD030F900FBEC901089580911E
:100EB000BE03882351F081E08093BA0308958091A6
:100EC000BF0381508093BF0301C099E0E091BF034D
:100ED000E99FF0011124EA53FC4F8081882379F3C4
:100EE0009091BF0389E0989FD0011124AA53BC4F71
:100EF0001196ED91FC9112970280F381E02D1296EC
:100F0000FC93EE931197CD010396E817F90731F49E
:100F10008281938112969C938E9311971196ED91F5
:100F2000FC911297868197819093B9038093B803BF
:100F30000895FF920F931F93CF93DF938091BE0389
:100F4000882309F08FC08091BC039091BD03019666
:100F50009093BD038093BC038091BC039091BD032B
:100F6000892B79F5209105043091060480910704BE
:100F7000909108049093060480930504309308042C
:100F8000209307048091BB038F5F8093BB03E091A4
:100F90000504F09106048081882319F48FEF9FEFF8
:100FA0000CC0E0910504F09106040580F681E02D67
:100FB0000680F781E02D828193819093D100809308
:100FC000D0002091BC033091BD038091D00090915E
:100FD000D1002817390708F44AC089E0F82EE091BB
:100FE0000504F09106048081882339F48FEF9FEF88
:100FF0009093D1008093D0003AC0E0910504F09125
:1010000006040580F681E02DC681D7812A813B81C7
:101010008091BC039091BD038217930728F430930D
:10102000D1002093D00023C08E010E5F1F4FC80156
:101030000E94EA058C899D89892B21F0CE010C96AE
:101040000E94EA059E898091BF03891710F490934E
:10105000BF039F9DC00111248A539C4FB8010E9479
:101060008C05BDCF8091C0038F5F8093C003DF915B
:10107000CF911F910F91FF900895CF93DF93EC01D3
:10108000E091B803F091B903938382838091BC030C
:101090009091BD03C817D90768F480910704909117
:1010A00008046091B8037091B9036E5F7F4F0E948E
:1010B000B50517C080910504909106046091B803AE
:1010C0007091B9036E5F7F4F0E94B5058091D0008B
:1010D0009091D100C817D90720F4D093D100C093C4
:1010E000D000DF91CF910895CF92DF92FF920F93BE
:1010F0001F93DF93CF930F92CDB7DEB70FB6F8945F
:101100000F928091BE0381508093BE038091BE03F5
:10111000882309F058C08091C103882309F453C083
:10112000198299E0F92E2DC0E0910E04F0910F0480
:10113000C680D780C6010C960E94EA0586010E5F24
:101140001F4FC8010E94EA05D60156969C918091D6
:10115000BF03891710F49093BF039F9DC001112412
:101160008A539C4FB8010E948C05E091B803F0911E
:10117000B903D60156969C918689981710F0B1E074
:10118000B98380910904882379F68091C00388236C
:1011900041F40CC00E9499078091C0038150809354
:1011A000C0038091C0038823A9F707C0E981E1301B
:1011B00021F08091BA03813031F41092BA030E9479
:1011C000ED0681E001C080E00F900FBE0F90CF913F
:1011D000DF911F910F91FF90DF90CF900895CF93F3
:1011E000DF93FC01EB018091BE038F5F8093BE0310
:1011F00020813181C20FD31F8091BC039091BD0328
:101200008217930728F4C217D30728F020E00CC0F8
:10121000C217D30740F08091BC039091BD0320E03A
:101220008C179D0708F421E0D183C083222351F05D
:101230008091B8039091B90302960E94EA05CE010D
:101240000E943D080E947408882311F40E94ED0654
:10125000DF91CF9108950F931F938091C30388234B
:10126000E1F38091BE038F5F8093BE03109112045F
:101270000E947408112389F30FB6F8940F92E0913D
:101280001704F091180406811781C80102960E9484
:10129000EA058091C10381508093C1038091C3030B
:1012A00081508093C3030F900FBEF8018789908D02
:1012B0000E945005C8010E945005CFCF2F923F9247
:1012C0004F925F927F928F929F92AF92BF92CF92F6
:1012D000DF92EF92FF920F931F93CF93DF931C0146
:1012E0004B015A012901702EE60181E290E00E9433
:1012F00051056C01009771F0209721F4C5010E94FF
:101300005105EC01F601D08FC78B209729F4C60157
:101310000E9450058FEFBFC0CE0165EA70E0A501C5
:101320000E94D10A0894A108B108F601C789D08D9E
:10133000CA0DDB1DC6014996B40148E050E00E9489
:10134000D80AF60110A2072DF4E0F71508F404E01E
:10135000F601068B42E0A42EB12CAC0CBD1CC501DD
:101360000E948805C6010C960E948805F601D18668
:10137000C08685E090E0801B910995878487D38A99
:10138000C28ACE01B101A2010E941206F601918328
:101390008083E114F10419F0F701D182C0820FB605
:1013A000F8940F928091C1038F5F8093C103809165
:1013B000B8039091B903892B79F5D092B903C09203
:1013C000B8038091C1038130B1F5C6ECD3E0CE0102
:1013D0000E9478052996F3E0C33FDF07C1F733EF9A
:1013E000E32E33E0F32EC7010E9478050CEF13E0E3
:1013F000C8010E94780589E094E00E94780582E1A6
:1014000094E00E947805F0920604E092050410939F
:101410000804009307040FC08091C203882359F485
:10142000E091B803F091B9038689781620F0D09244
:10143000B903C092B803F60196898091C503891754
:1014400010F49093C5038091C4038F5F8093C4030D
:10145000F60196898091BF03891710F49093BF031A
:10146000F601868929E0829FC00111248A539C4F8E
:10147000B5010E948C050F900FBE8091C203882396
:1014800049F0E091B803F091B9038689871510F40B
:101490000E94ED0681E0DF91CF911F910F91FF90A7
:1014A000EF90DF90CF90BF90AF909F908F907F9004
:1014B0005F904F903F902F900895AF92BF92CF9240
:1014C000DF92EF92FF920F938BE299E06BEC70E06A
:1014D00045E550E020E030E000E0EE24FF24CC249D
:1014E000DD24AA24BB240E945E09813049F4F894CB
:1014F0008093C2031092BD031092BC030E945A064F
:101500000F91FF90EF90DF90CF90BF90AF90089534
:1015100097FB092E07260AD077FD04D02ED006D0DF
:1015200000201AF4709561957F4F0895F6F7909515
:1015300081959F4F0895A1E21A2EAA1BBB1BFD01A6
:101540000DC0AA1FBB1FEE1FFF1FA217B307E407A2
:10155000F50720F0A21BB30BE40BF50B661F771FFA
:10156000881F991F1A9469F76095709580959095DA
:101570009B01AC01BD01CF010895AA1BBB1B51E12A
:1015800007C0AA1FBB1FA617B70710F0A61BB70BF3
:10159000881F991F5A95A9F780959095BC01CD0198
:1015A0000895DC0101C06D9341505040E0F708956B
:1015B000FB01DC014150504048F001900D920020A9
:1015C000C9F701C01D9241505040E0F70895F894CA
:0215D000FFCF4B
:1015D2005461736B5F414443005461736B5F4B65AD
:1015E20079706164005461736B5F5541525400110C
:1015F2008D85000B0F3132333435363738390030B0
:10160200003B00380035003200390036003300302C
:10161200003A003700340031000B0F095500550025
:10162200540002020100020606070531323341343A
:10163200353642373839432A30234449444C450031
:02164200FFFFA8
:00000001FF
